:020000040800F2
:1000000000300020651300085D0300085F0300084E
:1000100000000000000000000000000000000000E0
:100020000000000000000000000000006103000864
:1000300000000000000000006303000865030008E2
:10004000B513000800000000B5130008B513000840
:10005000B5130008B5130008B51300086D030008B8
:1000600000000000B5130008B5130008B513000820
:10007000B5130008B5130008B51300080000000010
:10008000B51300080000000000000000B5130008D0
:1000900000000000B5130008B5130008B5130008F0
:1000A00000000000B513000800000000B5130008B0
:1000B000B513000800000000000000000000000070
:1000C00010B5064C2378002B07D1054B002B02D02E
:1000D000044800E000BF0123237010BD1000002081
:1000E0000000000010140008044B10B5002B03D0D2
:1000F0000349044800E000BF10BDC04600000000F6
:100100001400002010140008002243088B4274D30E
:1001100003098B425FD3030A8B4244D3030B8B4208
:1001200028D3030C8B420DD3FF22090212BA030C11
:100130008B4202D31212090265D0030B8B4219D3F2
:1001400000E0090AC30B8B4201D3CB03C01A524112
:10015000830B8B4201D38B03C01A5241430B8B425A
:1001600001D34B03C01A5241030B8B4201D30B0343
:10017000C01A5241C30A8B4201D3CB02C01A52416A
:10018000830A8B4201D38B02C01A5241430A8B422D
:1001900001D34B02C01A5241030A8B4201D30B0216
:1001A000C01A5241CDD2C3098B4201D3CB01C01A30
:1001B000524183098B4201D38B01C01A524143093A
:1001C0008B4201D34B01C01A524103098B4201D328
:1001D0000B01C01A5241C3088B4201D3CB00C01A95
:1001E000524183088B4201D38B00C01A524143080D
:1001F0008B4201D34B00C01A5241411A00D2014632
:10020000524110467047FFE701B5002000F006F8A4
:1002100002BDC0460029F7D076E770477047C04658
:1002200072B6FEE700B58DB01C22002105A801F0D2
:10023000E7F814220021684601F0E2F811490B6842
:1002400007229343063A13430B60059280235B0217
:10025000069305A800F060FA00280FD10723009349
:10026000063B019300230293039304930121684604
:1002700000F0DEFB002803D10DB000BDFFF7D0FF7A
:10028000FFF7CEFF0020024010B500F0BDF9FFF7E8
:10029000C9FF00F025F8002000F0BAF80121002085
:1002A00000F0F8F80C49E1235B020B6000234B607F
:1002B0000B814B818B81002000F060F9002808D170
:1002C0000221064800F086FDFA20400000F0BAF94D
:1002D000F6E7FFF7A5FFC0462C0000200004005001
:1002E00070B58AB01422002105A801F089F8194BD5
:1002F000596B042211435963596B0A400192019AC8
:10030000596B202211435963596B0A400292029A99
:100310005A6B02252A435A635A6B2A400392039A66
:100320005A6B012422435A635B6B23400493049B62
:10033000094E00220221300000F046FD059506948A
:1003400000230793089305A9300000F05FFC0AB072
:1003500070BDC0460010024000040050FEE7FEE7FA
:100360007047704710B500F05BF910BD10B5002064
:1003700000F0D8F810BD000082B00A4B196C0122C1
:1003800011431964196C0A400092009ADA6B8021BB
:1003900049050A43DA63DB6B0B400193019B02B012
:1003A0007047C0460010024070B588B0174B5A6BBA
:1003B000012422435A635A6B22400092009A5A6BDE
:1003C00022435A635A6B22400192019ADA6B8021D0
:1003D00089020A43DA63DB6B0B400293029B04231E
:1003E000039302250495069505940794A026F60527
:1003F00003A9300000F00AFC082303930495079436
:1004000003A9300000F002FC08B070BD00100240EB
:1004100070B588B00400012832D800281DD11A4ACE
:10042000516B012319435163526B13400193019B9C
:100430006300164A9E5A03960123049300230593F2
:1004400003330693A300124A985803A900F0DEFB79
:10045000012C0CD0002008B070BD0B4A516B042356
:1004600019435163526B13400293029BE0E7A400CF
:10047000074BE0580122310000F0A6FC0020EAE71B
:1004800002204042E7E7C04600100240281400085E
:100490002C14000810B586B004001C4A506B0423CD
:1004A00018435063526B13400093009B80239B01C1
:1004B00001930123039301330493002908D10023FE
:1004C000029301A9124800F0A1FB002006B010BD64
:1004D000104B029301A90E4800F098FB600004192C
:1004E000A4000D4804190D49200000F08DFC0C4AB1
:1004F0000021200000F076FC00220F21072000F0F0
:10050000B3F8072000F0E0F8DFE7C0460010024033
:100510000008005000002110D00000200D0000064F
:100520003F05000810B503004000C0188000024BD2
:10053000181800F071FC10BDD0000020704710B5F5
:100540000020FFF7FBFF10BD10B50B4B1B680360CD
:100550000B6843600C2343614B8903614B688360E4
:100560000B89C3608B89836180231B02C3610023D5
:10057000436200F0B7FE10BD0000002070B50D0012
:1005800000280DD194244443084824182000FFF784
:100590000BFF29002000FFF7D7FF002803D170BD13
:1005A00002204042FBE704204042F8E73C000020E4
:1005B00010B50400114B1978002901D1012010BD9C
:1005C000FA208000FFF7A0FD01000D4B1868FFF72F
:1005D0009BFD00F085F800280DD1032C01D90120E6
:1005E000EDE7013000222100404200F03DF8054BCC
:1005F0001C600020E3E70120E1E7C0460400002082
:100600000C0000200800002010B50320FFF7D0FFE9
:10061000041E02D00124200010BDFFF7ADFEFAE752
:10062000034B1B78034A11685B1813607047C04680
:1006300004000020DC000020014B18687047C04611
:10064000DC00002070B50400FFF7F6FF0500631C16
:1006500002D0044B1B78E418FFF7EEFF401BA042CA
:10066000FAD370BD0400002070B5002811DB8308A8
:10067000134EC0339B009D5903242040C000FF222D
:1006800014008440A54389010A4082402A439A51BC
:1006900070BD0F230340083B9B0806339B00094AAB
:1006A000944663445C6803221040C000FC3215008D
:1006B0008540AC4389010A40824022435A60E7E703
:1006C00000E100E000ED00E0002805DB1F231840FA
:1006D0001E3B8340014A13607047C04600E100E0C2
:1006E000013880235B0498420FD2094A50600948C0
:1006F000036A1B021B0AC02109060B430362002385
:10070000936007331360002070470120FCE7C04668
:1007100010E000E000ED00E070B5041E00D139E10A
:100720000368DB072CD5A14B9A6838231340082BAC
:1007300022D043688022520293422ED0A022D202BD
:10074000934231D0994B1A6899490A401A601A6845
:1007500098490A401A606368002B31D0FFF76CFF9C
:100760000500924B1B689B030AD4FFF765FF401BF3
:100770006428F6D903200EE14368002B00D10BE179
:1007800023689B0747D5894B9B6838221A4261D161
:10079000E368002B22D10120FDE0844A1168802308
:1007A0005B020B431360D6E7804B19688022D202AC
:1007B0000A431A601968802252020A431A60CAE783
:1007C000FFF73AFF0500794B1B689B03D8D5FFF76D
:1007D00033FF401B6428F6D90320DCE0734B5A68D2
:1007E00075490A40616909020A435A601A687349E7
:1007F0000A4021690A431A601B68DB0A07221A4073
:100800006F4BD3406F4A13606F4B1868FFF7D0FEF1
:10081000002800D0C2E023681B0757D5634B9A68B5
:1008200038231340182B4ED0A369002B77D05F4A92
:10083000136E01210B431366FFF7FEFE05005B4BB1
:100840001B6E9B0742D4FFF7F7FE401B0228F6D928
:100850000320A0E0E368002B22D0544A13685749D4
:100860000B4021690B431360116880235B000B432D
:100870001360FFF7E1FE05004C4B1B685B0506D4D7
:10088000FFF7DAFE401B0228F6D9032083E0474930
:100890004B68494A13406269120213434B60BAE73E
:1008A000424A136849490B401360FFF7C5FE050033
:1008B0003E4B1B685B05AED5FFF7BEFE401B022812
:1008C000F6D9032067E0A369002B69D023685B0792
:1008D00068D5364B9A6838231340202B32D0A36852
:1008E000012B34D0052B38D0304BDA6D01218A43EF
:1008F000DA65DA6D03318A43DA65A368002B38D0F4
:10090000FFF79AFE0400294BDB6D9B072FD4FFF7FE
:1009100093FE001B2E4B9842F5D903203BE0234A5F
:10092000136E01218B431366FFF786FE05001F4BF4
:100930001B6E9B07CAD5FFF77FFE401B0228F6D926
:10094000032028E0A368002B2ED0002023E0174AC4
:10095000D36D01210B43D365CFE7144BDA6D04212E
:100960000A43DA65DA6D03390A43DA65C5E7002020
:1009700011E0FFF761FE04000C4BDB6D9B0707D510
:10098000FFF75AFE001B124B9842F5D9032002E0F4
:10099000002000E0012070BD0120FCE70120FAE703
:1009A0000120F8E70020F6E70120F4E700100240FC
:1009B000FFFFFEFFFFFFFBFFFF80FFFFFFC7FFFF03
:1009C000006CDC020C00002008000020FFFEFFFF8E
:1009D00088130000144B9B6838221A4207D1124B2F
:1009E0001A68D20A072313401048D84070470E4BAC
:1009F0009A6838231340082B10D00B4B9A68382381
:100A00001340202B0CD0084B9A6838231340182B26
:100A100001D00020EAE7FA20C001E7E70348E5E754
:100A200080200002E2E7C04600100240006CDC02B9
:100A300070B504000D00002800D1A4E0544B1A68E2
:100A4000072313408B4221D323689A0710D55B07F5
:100A500007D550498B68504A1A40B0231B011343F5
:100A60008B604C4A93684D490B40E1680B4393609F
:100A70002368DB074CD56368012B1ED0002B39D1CE
:100A8000444A126852051CD4012064E0404A1368AD
:100A900007218B432B431360FFF7CEFD06003C4B31
:100AA0001A6807231340AB42CED0FFF7C5FD801B69
:100AB0003B4A9042F3D903204DE0364A1268920334
:100AC00063D534498A680720824313438B60FFF75C
:100AD000B3FD06002F4B9B6838221A406368DB0089
:100AE0009A4215D0FFF7A8FD801B2D4B9842F1D9F3
:100AF000032030E0032B05D0264AD26D9207E0D4C4
:100B0000012028E0234A126E9207DAD4012022E065
:100B10001F4B1A6807231340AB421DD823685B079D
:100B200006D51C4A93681F490B4021690B4393600B
:100B3000FFF750FF174B9A68120A0F2313409B00D0
:100B4000194A9A581F231340D840184B1860184B65
:100B50001868FFF72DFD70BD0D4A136807218B4300
:100B60002B431360FFF768FD0600094B1A68072343
:100B70001340AB42D2D0FFF75FFD801B084B984279
:100B8000F3D90320E7E70120E5E70120E3E7C046CA
:100B90000020024000100240FF84FFFFFFF0FFFF33
:100BA00088130000FF8FFFFF4C1400080C0000208A
:100BB0000800002010B5FFF70DFF074B9A68120AD6
:100BC0000F2313409B00054A9A581F231340D84017
:100BD000034B186010BDC046001002404C140008C2
:100BE0000C00002010B5FFF7E5FF064B9A68120BCA
:100BF000072313409B00044A9A581F231340D840F0
:100C000010BDC046001002408C140008F0B5D64656
:100C10004F464646C0B500233BE0052500E00025D1
:100C2000A5402C003C43634D183292005451802261
:100C3000AC584A46D24325004E46B5434E68F603AB
:100C400002D54D462C4325005A4C8027E55184257A
:100C50006459250015404E68B60302D54D462C4315
:100C60002500544C8427E5512468250015404E6822
:100C7000F60202D54D462C4325004E4C2560646893
:100C800022404D68AD0201D54A462243494C62607C
:100C900001330C682200DA4000D186E001229A403C
:100CA00026001640B1461442F2D04C68022C01D006
:100CB000122C18D1DD080835AD002C58A4460727A2
:100CC0001F40BF000F24A2462600BE40B046664625
:100CD0004446A643B4460C69564626403400BC4000
:100CE000664634432C500468A4465D000324A246A3
:100CF0002700AF40B846FF4366464446A643B44685
:100D00004C68564626403400AC4066463443046086
:100D10004C68661E012E03D9112C01D0122C12D161
:100D200084683C40A446CC68AC406646344384604A
:100D3000446894434A681209944601226646324048
:100D40009A40224342604A68032A05D0C2683A406A
:100D50008F68AF401743C7604A68D20098D59A0899
:100D600014001834A400134D675903251D40EC00EE
:100D70000F25A540AF43A025ED05A84200D14EE7C1
:100D80000D4DA8420BD00D4DA8420AD00C4DA842E3
:100D900009D00C4DA84200D13FE7062540E70125C8
:100DA0003EE702253CE703253AE7E0BCBA46B146F8
:100DB000A846F0BD00180240000400500008005092
:100DC000000C005000140050002A01D081617047CF
:100DD0008162FCE7426913000B401B0491431943F5
:100DE00081617047012909D002290AD0002901D068
:100DF00001207047426082600800FAE742600020EC
:100E0000F7E782600020F4E7002802D001600020AC
:100E100070470120FCE7000070B506000268140C62
:100E200001252C401F2313409D4064010A4BE31809
:100E30001A68154204D01D604368002B00D0984703
:100E4000064B9C46644423681D4204D02560B36869
:100E5000002B00D0984770BD0C18024010180240BB
:100E600030B5EFF31084012282F3108801680B681B
:100E7000124D2B400B6084F31088EFF3108182F346
:100E80001088026893680E4C2340936081F31088A9
:100E9000C36E012B06D08C232022C2500023C366D0
:100EA000436730BDEFF3108183F310880268136845
:100EB0001024A343136081F31088ECE7DFFEFFFFEB
:100EC000FEFFFFEF7047000010B504008368026961
:100ED000134342691343C269134301680A686348B4
:100EE000024013430B602268536861490B40E1687C
:100EF0000B435360226AA3691A4321688B685D48DB
:100F0000034013438B602268D36A0F218B43616ACD
:100F10000B43D3622368584A93421BD0574A9342EB
:100F200029D01023E0698022120290422DD0042B98
:100F300000D194E068D8002B00D18AE0022B61D167
:100F40004F4B1B685B090721194001314D48FFF7E2
:100F5000DBF880E04A4B5A6D03231340022B0CD080
:100F600005D8002B0BD0012B0BD10333DAE7032B71
:100F700009D10533D6E70023D4E70223D2E70023C3
:100F8000D0E71023CEE71023CCE7042B37D00FD8BF
:100F9000002B2ED0022B09D1394B1B685B0907218E
:100FA000194001313748FFF7AFF824E0012047E04E
:100FB000082B1CD1636A5B00334A995AFFF7A4F8E7
:100FC000400063685B08C0186168FFF79DF8020085
:100FD000103A2E4B9A4245D882B20F239A434008CA
:100FE000083B184010432368D860002028E0012007
:100FF00026E0FFF7F7FD0028DCD1002020E0FFF716
:10100000E9FCF8E701201BE0082B18D18020000242
:10101000636A5B001C4A995AFFF776F863685B08BD
:10102000C0186168FFF770F80200103A174B9A4237
:101030001AD823680004000CD860002000E00120CA
:1010400001236A22A352023AA35200236367A367D3
:1010500010BDFFF7C7FD0028DAD10020F0E7FFF749
:10106000B9FCF8E70120EBE70120E9E7F369FFCFDE
:10107000FFCFFFFFFFF4FF110038014000440040A4
:1010800000100240006CDC0234140008EFFF000086
:10109000836A1B0706D5026853682C490B40816B95
:1010A0000B435360836ADB0706D5026853682849FF
:1010B0000B40C16A0B435360836A9B0706D50268E5
:1010C000536824490B40016B0B435360836A5B07F1
:1010D00006D50268536820490B40416B0B435360AF
:1010E000836ADB0606D5026893681C490B40C16B16
:1010F0000B439360836A9B0606D502689368184980
:101100000B40016C0B439360836A5B060BD502684E
:10111000536814490B40416C0B43536080235B03BD
:10112000426C9A420AD0836A1B0606D5026853684D
:101130000D490B40C16C0B43536070470268536804
:101140000A490B40816C0B435360ECE7FF7FFFFFC4
:10115000FFFFFDFFFFFFFEFFFFFFFBFFFFEFFFFFB6
:10116000FFDFFFFFFFFFEFFFFFFFF7FFFFFF9FFF27
:10117000F8B5CE46474680B506000D0017009946E3
:10118000089B98463368DC692C40641B63425C41D1
:10119000BC4233D143460133F4D0FFF74DFA4B46FE
:1011A000C01A40452FD84346002B2ED033681A680A
:1011B0005207E7D5802DE5D0402DE3D0DA6912073C
:1011C00010D4DA691205DDD5802212011A623000CE
:1011D000FFF746FE90232022F2500C3B0022F254EF
:1011E00003200CE008241C623000FFF739FE902336
:1011F000F4500C3B0022F254012000E00020C0BC5F
:10120000B946B046F8BD0320F9E70320F7E7000030
:1012100030B583B0040090230022C250FFF70CFACF
:10122000050022681268130710D423681B685B0747
:101230002BD420238822A3500432A3500023E3663A
:101240002367083AA354002003B030BD8021234B0C
:1012500000930300002289032000FFF789FF002884
:10126000E3D0EFF31081012383F310882268136821
:1012700080208343136081F3108888232022E2506A
:10128000043B0022E2547D38DEE78021134B0093BB
:101290002B000022C9032000FFF76AFF0028C8D0F6
:1012A000EFF31080012282F3108821680B680C4D47
:1012B0002B400B6080F31088EFF3108082F31088CE
:1012C00021688B6893438B6080F310888C231F32D6
:1012D000E250083B0022E2540320B5E7FFFFFF0184
:1012E000DFFEFFFF10B5041E30D08823C358002B4B
:1012F00022D088232422E2502268136801218B43E4
:101300001360A36A002B1DD12000FFF7DDFD01282B
:1013100011D0226853680E490B40536022689368CD
:101320002A218B4393602268136829390B43136089
:101330002000FFF76DFF10BD84330022C254FFF779
:10134000C1FDD6E72000FFF7A3FEDDE70120F2E7AD
:10135000FFB7FFFF024B802212059A607047C0461C
:1013600000ED00E00D488546FFF7F4FF002103E0A3
:101370000B4B5B58435004310A480B4B42189A42BE
:10138000F6D30A4A02E0002313600432084B9A4263
:10139000F9D300F011F8FEF777FFFEE700300020E8
:1013A000B4140008000000201000002010000020ED
:1013B000E0000020FEE7000070B500260C4D0D4C4B
:1013C000641BA410A64209D1002600F021F80A4DA2
:1013D0000A4C641BA410A64205D170BDB300EB58A3
:1013E00098470136EEE7B300EB5898470136F2E72D
:1013F000AC140008AC140008AC140008B0140008C9
:1014000003008218934200D1704719700133F9E745
:10141000F8B5C046F8BC08BC9E467047F8B5C04653
:08142000F8BC08BC9E467047B1
:1014280020000002000000500008005001000200E7
:101438000400060008000A000C001000200040000C
:101448008000000100000000000000000000000013
:101458000000000000000000000000000000000084
:10146800000000000100000002000000030000006E
:10147800040000000600000007000000080000004B
:10148800090000000000000000000000000000004B
:10149800000000000100000002000000030000003E
:0414A800040000003C
:0414AC00E90000084B
:0414B000C10000086F
:1014B400004400400100000004000000001BB700CD
:040000050800136577
:00000001FF
