:020000040800F2
:10000000003000205D400008AD4000088D08000869
:1000100000000000000000000000000000000000E0
:10002000000000000000000000000000D5320008C1
:100030000000000000000000413300088F080008A5
:10004000AD40000800000000AD400008A508000811
:10005000AD080008AD400008AD400008AF0800083A
:1000600000000000BD080008AD400008AD400008D9
:10007000AD400008AD400008AD40000800000000A1
:10008000AD4000080000000000000000AD40000886
:1000900000000000AD400008AD400008AD40000881
:1000A00000000000AD40000800000000AD40000866
:1000B000AD4000080000000000000000000000004B
:1000C00010B5064C2378002B07D1054B002B02D02E
:1000D000044800E000BF0123237010BD7C00002015
:1000E00000000000F4550008044B10B5002B03D0AD
:1000F0000349044800E000BF10BDC04600000000F6
:1001000080000020F455000803B4714649084000FF
:100110004900095E49008E4403BC70470022430831
:100120008B4274D303098B425FD3030A8B4244D3BF
:10013000030B8B4228D3030C8B420DD3FF22090201
:1001400012BA030C8B4202D31212090265D0030BC0
:100150008B4219D300E0090AC30B8B4201D3CB03B6
:10016000C01A5241830B8B4201D38B03C01A5241F8
:10017000430B8B4201D34B03C01A5241030B8B42FA
:1001800001D30B03C01A5241C30A8B4201D3CB02E5
:10019000C01A5241830A8B4201D38B02C01A5241CA
:1001A000430A8B4201D34B02C01A5241030A8B42CD
:1001B00001D30B02C01A5241CDD2C3098B4201D3E5
:1001C000CB01C01A524183098B4201D38B01C01A63
:1001D000524143098B4201D34B01C01A52410309DA
:1001E0008B4201D30B01C01A5241C3088B4201D389
:1001F000CB00C01A524183088B4201D38B00C01A36
:10020000524143088B4201D34B00C01A5241411A5C
:1002100000D20146524110467047FFE701B5002069
:1002200000F0F0F802BDC0460029F7D076E770472D
:1002300003460B437FD4002243088B4274D3030947
:100240008B425FD3030A8B4244D3030B8B4228D3E8
:10025000030C8B420DD3FF22090212BA030C8B420E
:1002600002D31212090265D0030B8B4219D300E0AE
:10027000090AC30B8B4201D3CB03C01A5241830B33
:100280008B4201D38B03C01A5241430B8B4201D3E3
:100290004B03C01A5241030B8B4201D30B03C01A0C
:1002A0005241C30A8B4201D3CB02C01A5241830A86
:1002B0008B4201D38B02C01A5241430A8B4201D3B5
:1002C0004B02C01A5241030A8B4201D30B02C01ADF
:1002D0005241CDD2C3098B4201D3CB01C01A524146
:1002E00083098B4201D38B01C01A524143098B42CF
:1002F00001D34B01C01A524103098B4201D30B01B8
:10030000C01A5241C3088B4201D3CB00C01A5241DC
:1003100083088B4201D38B00C01A524143088B42A1
:1003200001D34B00C01A5241411A00D2014652413A
:10033000104670475DE0CA0F00D04942031000D359
:100340004042534000229C4603098B422DD3030AAE
:100350008B4212D3FC22890112BA030A8B420CD3BE
:10036000890192118B4208D3890192118B4204D3E7
:1003700089013AD0921100E08909C3098B4201D367
:10038000CB01C01A524183098B4201D38B01C01AA1
:10039000524143098B4201D34B01C01A5241030918
:1003A0008B4201D30B01C01A5241C3088B4201D3C7
:1003B000CB00C01A524183088B4201D38B00C01A74
:1003C0005241D9D243088B4201D34B00C01A52414B
:1003D000411A00D20146634652415B10104601D3D8
:1003E0004042002B00D54942704763465B1000D362
:1003F000404201B5002000F005F802BD0029F8D008
:1004000016E770477047C046F0B5CE46474680B500
:10041000070099463B0C9C4613041B0C1D000E0064
:1004200061460004140C000C45434B436043614398
:10043000C0182C0C20188C46834203D980235B0201
:100440009846C444494679437243030C63442D04DF
:100450002D0CC918000440198918C0BCB946B04613
:10046000F0BDC04610B580239B01984200D010BD5E
:100470000B4A137859424B41DBB213701378002BAF
:1004800006D0A02001222021C00501F06FF8EEE780
:10049000A02000222021C00501F068F8E7E7C0464F
:1004A000AC00002072B6FEE700B58DB01C22002122
:1004B00005A803F030FE14220021684603F02BFE4D
:1004C00011490B6807229343063A13430B600592C8
:1004D00080235B02069305A800F0E8FB00280FD1FB
:1004E00007230093063B0193002302930393049395
:1004F0000121684600F066FD002803D10DB000BD63
:10050000FFF7D0FFFFF7CEFF0020024010B500F04C
:1005100045FBFFF7C9FF00F027F803F0D5F803F01B
:100520007BF903F0E9F802F08BFD00F0E1F8002020
:1005300000F02EFA0121002000F06CFA0949E123B5
:100540005B020B6000234B600B814B818B81002091
:1005500000F0C8FA002801D0FFF7A4FF02F098FDD0
:10056000FEE7C04698000020F0B589B014220021B3
:1005700003A803F0D0FD254B596B042211435963A6
:10058000596B0A400092009A596B2022114359631B
:10059000596B0A400192019A5A6B01252A435A630A
:1005A0005B6B2B400293029BC1277F01A026F605BF
:1005B00000223900300000F0D9FF80239B01039313
:1005C000134B04930024059403A9124800F0F0FE95
:1005D0000C2303930A3B049305940694079503A9FF
:1005E000300000F0E5FE039704950594069403A9F6
:1005F000300000F0DDFE00220021072000F0FEFAAE
:10060000072000F02BFB09B0F0BDC04600100240EF
:10061000000021100008005010B5FA20800002F000
:10062000E3FDFAE710B50DE003F07EFD6421FFF76E
:10063000E5FE074B1960FA20C00002F0E5F96420DE
:1006400002F0E2F9034B1B78002BEDD1F7E7C0462F
:10065000A8000020AC00002010B584B01BE0802171
:10066000A024E40501224901200000F07FFF802141
:1006700000220901200000F079FF1A4B1B681A4A7A
:100680001021684603F08EFD684600F0F3F8FA206A
:10069000400002F0B9F9154B1B78002B12D0114B1A
:1006A0001B68DB07DBD48021A024E40501220901BB
:1006B000200000F05BFF802100224901200000F0B3
:1006C00055FFDAE78021A024E4050022090120007B
:1006D00000F04CFF802100224901200000F046FF7D
:1006E000D5E7C046A80000200C560008AC0000204A
:1006F00010B50B4A00210B4802F0FEFC0A4B1860B3
:100700000A4A00210A4802F0F7FC0A4B18600A4A1C
:1007100000210A4802F0F0FC094B186010BDC046E9
:100720003456000819060008B0000020585600088A
:1007300025060008B40000207C5600085906000871
:10074000B800002010B584B00F23010099430001C8
:10075000C0B203AA0C230C001C43147008242143CC
:100760005170034393702043D070054B1978054BAB
:1007700018680A230093063B03F08AFA04B010BD00
:10078000C0000020BC00002010B584B00F23010081
:1007900099430001C0B203AA0D230C001C4314703E
:1007A000092421435170034393702043D070054BBB
:1007B0001978054B18680A230093063B03F068FA82
:1007C00004B010BDC0000020BC00002010B5224BBA
:1007D00018604900C9B2214B1970490064230322F3
:1007E00003F022FB00282ED08021A0200122490105
:1007F000C00500F0BBFE322000F0EEF90320FFF749
:10080000A1FF052000F0E8F90320FFF79BFF01207E
:1008100000F0E2F90320FFF795FF0A2000F0DCF971
:100820000220FFF78FFF2820FFF78CFF0C20FFF737
:1008300089FF0620FFF786FF0120FFF783FF0220D4
:1008400000F0CAF910BD8021A02000224901C00596
:1008500000F08CFECFE7C046BC000020C0000020A6
:1008600010B5040002E00134FFF78EFF2078002865
:10087000F9D110BD10B5040027210348FFF7A6FFEA
:100880002000FFF7EDFF10BD241D0020FEE710B58E
:1008900000F090F902F008FA012800D110BD02F032
:1008A00071FDFBE710B500F015FD10BD704710B5E8
:1008B0008020800100F062FE10BD000010B50248EB
:1008C00000F0FCFE10BDC046C81C002000B583B07F
:1008D000144B196C012211431964196C0A400092DF
:1008E000009ADA6B802149050A43DA63DB6B0B401F
:1008F0000193019B022000220321404200F07EF977
:1009000000220021032000F079F9032000F0A6F96D
:1009100000220021042000F071F9042000F09EF96B
:1009200003B000BD0010024070B588B0174B5A6B81
:10093000012422435A635A6B22400092009A5A6B58
:1009400022435A635A6B22400192019ADA6B80214A
:1009500089020A43DA63DB6B0B400293029B042398
:10096000039302250495069505940794A026F605A1
:1009700003A9300000F01CFD08230393049507949D
:1009800003A9300000F014FD08B070BD0010024053
:1009900070B588B00400012832D800281DD11A4A49
:1009A000516B012319435163526B13400193019B17
:1009B0006300164A9E5A039601230493002305936D
:1009C00003330693A300124A985803A900F0F0FCE1
:1009D000012C0CD0002008B070BD0B4A516B0423D1
:1009E00019435163526B13400293029BE0E7A4004A
:1009F000074BE0580122310000F0B8FD0020EAE783
:100A000002204042E7E7C04600100240A05600081E
:100A1000A456000810B586B004001C4A506B04238D
:100A200018435063526B13400093009B80239B013B
:100A300001930123039301330493002908D1002378
:100A4000029301A9124800F0B3FC002006B010BDCB
:100A5000104B029301A90E4800F0AAFC6000041993
:100A6000A4000D4804190D49200000F09FFE0C4A17
:100A70000021200000F088FE00220F21072000F056
:100A8000BDF8072000F0EAF8DFE7C046001002409A
:100A90000008005000002110580100200D00000641
:100AA000A70A0008704710B50020FFF7FBFF10BD34
:100AB00010B50B4B1B6803600B6843600C2343614C
:100AC0004B8903614B6883600B89C3608B898361A9
:100AD00080231B02C3610023436201F0C3F910BDF0
:100AE0000000002070B50D0000280DD1942444436F
:100AF000084824182000FFF717FF29002000FFF7FF
:100B0000D7FF002803D170BD02204042FBE704203C
:100B10004042F8E7C400002000B583B00190074BC5
:100B20001A78FA2394205043054A80189B0001222A
:100B300001A901F0AEF8019803B000BDC10000208A
:100B4000C400002010B50400114B1978002901D110
:100B5000012010BDFA208000FFF7E0FA01000D4BE4
:100B60001868FFF7DBFA00F085F800280DD1032C98
:100B700001D90120EDE7013000222100404200F0C0
:100B80003DF8054B1C600020E3E70120E1E7C0468B
:100B9000040000200C0000200800002010B50320F5
:100BA000FFF7D0FF041E02D00124200010BDFFF784
:100BB0008DFEFAE7034B1B78034A11685B1813603C
:100BC0007047C0460400002064010020014B1868F3
:100BD0007047C0466401002070B50400FFF7F6FFBF
:100BE0000500631C02D0044B1B78E418FFF7EEFFEE
:100BF000401BA042FAD370BD0400002070B500284D
:100C000011DB8308134EC0339B009D590324204001
:100C1000C000FF2214008440A54389010A4082409D
:100C20002A439A5170BD0F230340083B9B080633AB
:100C30009B00094A944663445C6803221040C0004C
:100C4000FC3215008540AC4389010A4082402243B2
:100C50005A60E7E700E100E000ED00E0002805DB76
:100C60001F2318401E3B8340014A13607047C04653
:100C700000E100E0013880235B0498420FD2094A6A
:100C800050600948036A1B021B0AC02109060B4376
:100C90000362002393600733136000207047012034
:100CA000FCE7C04610E000E000ED00E070B5041E77
:100CB00000D139E10368DB072CD5A14B9A683823B2
:100CC0001340082B22D043688022520293422ED038
:100CD000A022D202934231D0994B1A6899490A4016
:100CE0001A601A6898490A401A606368002B31D06C
:100CF000FFF76CFF0500924B1B689B030AD4FFF7BC
:100D000065FF401B6428F6D903200EE14368002BE1
:100D100000D10BE123689B0747D5894B9B6838229C
:100D20001A4261D1E368002B22D10120FDE0844A00
:100D3000116880235B020B431360D6E7804B196870
:100D40008022D2020A431A601968802252020A43A2
:100D50001A60CAE7FFF73AFF0500794B1B689B034F
:100D6000D8D5FFF733FF401B6428F6D90320DCE019
:100D7000734B5A6875490A40616909020A435A600F
:100D80001A6873490A4021690A431A601B68DB0A22
:100D900007221A406F4BD3406F4A13606F4B18689D
:100DA000FFF7D0FE002800D0C2E023681B0757D50C
:100DB000634B9A6838231340182B4ED0A369002B3D
:100DC00077D05F4A136E01210B431366FFF7FEFED7
:100DD00005005B4B1B6E9B0742D4FFF7F7FE401BE1
:100DE0000228F6D90320A0E0E368002B22D0544A61
:100DF000136857490B4021690B4313601168802326
:100E00005B000B431360FFF7E1FE05004C4B1B68D2
:100E10005B0506D4FFF7DAFE401B0228F6D9032053
:100E200083E047494B68494A134062691202134301
:100E30004B60BAE7424A136849490B401360FFF719
:100E4000C5FE05003E4B1B685B05AED5FFF7BEFE39
:100E5000401B0228F6D9032067E0A369002B69D064
:100E600023685B0768D5364B9A6838231340202BDC
:100E700032D0A368012B34D0052B38D0304BDA6D3B
:100E800001218A43DA65DA6D03318A43DA65A368A2
:100E9000002B38D0FFF79AFE0400294BDB6D9B072F
:100EA0002FD4FFF793FE001B2E4B9842F5D9032059
:100EB0003BE0234A136E01218B431366FFF786FE46
:100EC00005001F4B1B6E9B07CAD5FFF77FFE401B1B
:100ED0000228F6D9032028E0A368002B2ED000209A
:100EE00023E0174AD36D01210B43D365CFE7144BA1
:100EF000DA6D04210A43DA65DA6D03390A43DA65EB
:100F0000C5E7002011E0FFF761FE04000C4BDB6D2C
:100F10009B0707D5FFF75AFE001B124B9842F5D9E5
:100F2000032002E0002000E0012070BD0120FCE76A
:100F30000120FAE70120F8E70020F6E70120F4E7B6
:100F400000100240FFFFFEFFFFFFFBFFFF80FFFFDF
:100F5000FFC7FFFF006CDC020C000020080000202F
:100F6000FFFEFFFF88130000144B9B6838221A42D3
:100F700007D1124B1A68D20A072313401048D840F1
:100F800070470E4B9A6838231340082B10D00B4B38
:100F90009A6838231340202B0CD0084B9A683823CA
:100FA0001340182B01D00020EAE7FA20C001E7E740
:100FB0000348E5E780200002E2E7C0460010024057
:100FC000006CDC0270B504000D00002800D1A4E024
:100FD000544B1A68072313408B4221D323689A0786
:100FE00010D55B0707D550498B68504A1A40B0238B
:100FF0001B0113438B604C4A93684D490B40E168D9
:101000000B4393602368DB074CD56368012B1ED02C
:10101000002B39D1444A126852051CD4012064E0E7
:10102000404A136807218B432B431360FFF7CEFD23
:1010300006003C4B1A6807231340AB42CED0FFF7A3
:10104000C5FD801B3B4A9042F3D903204DE0364A50
:101050001268920363D534498A6807208243134398
:101060008B60FFF7B3FD06002F4B9B6838221A40B8
:101070006368DB009A4215D0FFF7A8FD801B2D4B5B
:101080009842F1D9032030E0032B05D0264AD26DD7
:101090009207E0D4012028E0234A126E9207DAD4A6
:1010A000012022E01F4B1A6807231340AB421DD8D2
:1010B00023685B0706D51C4A93681F490B402169CA
:1010C0000B439360FFF750FF174B9A68120A0F23E8
:1010D00013409B00194A9A581F231340D840184BBD
:1010E0001860184B1868FFF72DFD70BD0D4A136886
:1010F00007218B432B431360FFF768FD0600094B64
:101100001A6807231340AB42D2D0FFF75FFD801B64
:10111000084B9842F3D90320E7E70120E5E70120D7
:10112000E3E7C0460020024000100240FF84FFFFBA
:10113000FFF0FFFF88130000FF8FFFFFD456000869
:101140000C0000200800002010B5FFF70DFF074B32
:101150009A68120A0F2313409B00054A9A581F23CE
:101160001340D840034B186010BDC0460010024029
:10117000D45600080C00002010B5FFF7E5FF064B21
:101180009A68120B072313409B00044A9A581F23A6
:101190001340D84010BDC04600100240145700084C
:1011A00070B582B0040003685B064ED5414BDB6B23
:1011B000DB0035D43F4AD16B802040050143D16329
:1011C000D36B03400193019B01253A4BD96DC0229B
:1011D00092000B001340114210D0A2699A420DD028
:1011E000344AD36D34490B40D06D8021490201430C
:1011F000D165D16D31480140D165D365DB0711D48C
:101200002C4AD36D2C490B40A1690B43D3650020B8
:10121000012D1BD1274AD36B29490B40D36315E01D
:101220000025D2E7FFF7D2FC0600224BDB6D9B07BF
:1012300007D4FFF7CBFC801B224B9842F5D9032043
:1012400000E000200028E3D1DAE700202368DB0774
:1012500006D5184A536D03218B43A1680B43536590
:1012600023689B0706D5134A536D17490B40E16865
:101270000B43536523689B0606D50E4A536D9B00AE
:101280009B0861690B43536523685B0706D5094AD0
:10129000536D0E490B4021690B43536523681B06B0
:1012A00006D5044A1368E0218B4361680B43136041
:1012B00002B070BD00100240FFFCFFFFFFFFFEFF09
:1012C000FFFFFFEF88130000FFCFFFFFFF3FFFFF8F
:1012D0007047704710B52A4A11692A4B0B40516973
:1012E0002948806881435161284A104221D0264A0A
:1012F000D468002B26D1224B1B69DB070CD5204B71
:1013000001221A61204B9B68022B27D01E4B002222
:101310009A602000FFF7DCFF1B4B9B68002B07D176
:10132000174A53691A490B405361174B00221A7030
:1013300010BD0622024202D0134A1469D9E70124E3
:101340006442D6E7104A5168194351600C490B6159
:10135000002393602000FFF7BCFFCCE70A4A5369E3
:10136000013B5361002B03D1074B00229A60D0E769
:1013700013001269501C186100F00CF8C9E7C04650
:1013800000200240FAC300006801002001000400B0
:10139000FFFFFFFC044A536978218B43C0001843C8
:1013A000024B1843506170470020024002000100C8
:1013B000F0B5D6464F464646C0B500233BE005256E
:1013C00000E00025A5402C003C43634D18329200FC
:1013D00054518022AC584A46D24325004E46B5436C
:1013E0004E68F60302D54D462C4325005A4C802703
:1013F000E55184256459250015404E68B60302D591
:101400004D462C432500544C8427E5512468250083
:1014100015404E68F60202D54D462C4325004E4C31
:101420002560646822404D68AD0201D54A462243DA
:10143000494C626001330C682200DA4000D186E03A
:1014400001229A4026001640B1461442F2D04C6860
:10145000022C01D0122C18D1DD080835AD002C5813
:10146000A44607271F40BF000F24A2462600BE4007
:10147000B04666464446A643B4460C6956462640E6
:101480003400BC40664634432C500468A4465D00DA
:101490000324A2462700AF40B846FF4366464446B1
:1014A000A643B4464C68564626403400AC406646D7
:1014B000344304604C68661E012E03D9112C01D000
:1014C000122C12D184683C40A446CC68AC406646DD
:1014D00034438460446894434A6812099446012264
:1014E000664632409A40224342604A68032A05D049
:1014F000C2683A408F68AF401743C7604A68D2005D
:1015000098D59A0814001834A400134D6759032580
:101510001D40EC000F25A540AF43A025ED05A842D6
:1015200000D14EE70D4DA8420BD00D4DA8420AD078
:101530000C4DA84209D00C4DA84200D13FE706252A
:1015400040E701253EE702253CE703253AE7E0BCFA
:10155000BA46B146A846F0BD00180240000400504B
:1015600000080050000C005000140050002A01D068
:10157000816170478162FCE77047000010B504008C
:10158000094BDB68184204D1074B1B69234205D184
:1015900010BD054BD860FFF7EFFFF5E7024B1C616C
:1015A0002000FEF75FFFF3E70018024010B50400CB
:1015B000FF202368184008381421FEF7AFFD236C84
:1015C0009B08064A944663449B006364044BA364EF
:1015D0001C2318401B3B8340E36410BD00820010B5
:1015E00080080240FF2342681340064A9A1892007E
:1015F0000265054A4265013B03221A4001239340DC
:10160000836570473F8200104009024070B5041E98
:101610004DD00568274BE8181421FEF77FFD8000A8
:10162000206425230222E2542B68234A13402B60B6
:1016300021680A68A368E06803432069034360697E
:101640000343A0690343E0690343206A0343134350
:101650000B602000FFF7AAFF8023DB01A2689A42FB
:1016600018D0626CFF2361680B401360A36CE26CBE
:101670005A606368013B032B0FD900232365636520
:10168000A3650023E36325220121A154013AA35459
:10169000002070BD00236360E3E72000FFF7A2FF96
:1016A000236D00221A60636DA26D5A60E9E7012084
:1016B000EFE7C046F8FFFDBF0F80FFFF70B5314B6D
:1016C0001968046825681C23026C134004229A40A0
:1016D000114216D06A0714D523689B0603D42368E9
:1016E000042293432360274C63681C21026C114041
:1016F00004228A4013436360036B002B00D0984799
:1017000070BD02229A4011421CD0AA071AD5236844
:101710009B0606D423680A22934323602523093AB3
:10172000C254184C63681C21026C114002228A408A
:101730001343636024230022C254C36A002BDFD00A
:101740009847DDE708229A401142D9D02B07D7D518
:1017500023680E22934323600A4C62681C21036CA9
:10176000194001231D008D402A436260C363252276
:10177000835423330022C254436B002BC0D09847BC
:10178000BEE7C04600000240012909D002290AD064
:10179000002901D001207047426082600800FAE70A
:1017A00042600020F7E782600020F4E7002802D0C2
:1017B0000160002070470120FCE70000F8B504003C
:1017C000436E002B05D101336A228352023A8352C1
:1017D000F8BD026895686D0E07231D409268520F90
:1017E0001340084FF85CC000074EF15CFEF720FD87
:1017F0006A23E052785DC000715DFEF719FD682331
:10180000E052E5E7B4560008AC56000870B58423F2
:10181000C35C012B15D0842401260655882524237A
:101820004351026813681168B1431160064A1340BE
:101830000022426601680B602023435102550020BC
:1018400070BD0220FCE7C046FFFFFFDFF8B50400D3
:101850000A008423C35C012B1BD084250120605522
:1018600088262423A35123681F68196881431960BF
:1018700020688368DB00D908114381602000FFF7EE
:101880009DFF23681F602023A35100236355002080
:10189000F8BD0220FCE70000F8B504000B0084222C
:1018A000825C012A1BD084250120605588262422D1
:1018B000A2512268176811688143116022689168FB
:1018C00008480140194391602000FFF777FF236823
:1018D0001F602023A351002363550020F8BD022080
:1018E000FCE7C046FFFFFFF130B5EFF310840122A3
:1018F00082F3108801680B68124D2B400B6084F353
:101900001088EFF3108182F31088026893680E4C00
:101910002340936081F31088C36E012B06D08C2383
:101920002022C2500023C366436730BDEFF310810D
:1019300083F31088026813681024A343136081F3B3
:101940001088ECE7DFFEFFFFFEFFFFEF10B504009D
:1019500083680269134342691343C26913430168F0
:101960000A686348024013430B6022685368614968
:101970000B40E1680B435360226AA3691A43216854
:101980008B685D48034013438B602268D36A0F2144
:101990008B43616A0B43D3622368584A93421BD03E
:1019A000574A934229D01023E069802212029042C4
:1019B0002DD0042B00D194E068D8002B00D18AE010
:1019C000022B61D14F4B1B685B0907211940013184
:1019D0004D48FEF7A3FB80E04A4B5A6D03231340AA
:1019E000022B0CD005D8002B0BD0012B0BD10333CD
:1019F000DAE7032B09D10533D6E70023D4E7022326
:101A0000D2E70023D0E71023CEE71023CCE7042B46
:101A100037D00FD8002B2ED0022B09D1394B1B68A1
:101A20005B090721194001313748FEF777FB24E0B5
:101A3000012047E0082B1CD1636A5B00334A995AA6
:101A4000FEF76CFB400063685B08C0186168FEF736
:101A500065FB0200103A2E4B9A4245D882B20F2302
:101A60009A434008083B184010432368D860002080
:101A700028E0012026E0FFF77FFB0028DCD10020D2
:101A800020E0FFF771FAF8E701201BE0082B18D1DE
:101A900080200002636A5B001C4A995AFEF73EFBF5
:101AA00063685B08C0186168FEF738FB0200103AF3
:101AB000174B9A421AD823680004000CD860002003
:101AC00000E0012001236A22A352023AA35200231C
:101AD0006367A36710BDFFF74FFB0028DAD1002032
:101AE000F0E7FFF741FAF8E70120EBE70120E9E72B
:101AF000F369FFCFFFCFFFFFFFF4FF110038014074
:101B00000044004000100240006CDC02BC5600089B
:101B1000EFFF0000836A1B0706D5026853682C4953
:101B20000B40816B0B435360836ADB0706D5026869
:101B3000536828490B40C16A0B435360836A9B0773
:101B400006D50268536824490B40016B0B43536070
:101B5000836A5B0706D50268536820490B40416BD6
:101B60000B435360836ADB0606D5026893681C4901
:101B70000B40C16B0B439360836A9B0606D50268DA
:101B8000936818490B40016C0B439360836A5B06B2
:101B90000BD50268536814490B40416C0B435360EA
:101BA00080235B03426C9A420AD0836A1B0606D5E7
:101BB000026853680D490B40C16C0B43536070477A
:101BC000026853680A490B40816C0B435360ECE791
:101BD000FF7FFFFFFFFFFDFFFFFFFEFFFFFFFBFF9C
:101BE000FFEFFFFFFFDFFFFFFFFFEFFFFFFFF7FF4D
:101BF000FFFF9FFFF8B5CE46474680B506000D00B3
:101C000017009946089B98463368DC692C40641B92
:101C100063425C41BC4233D143460133F4D0FEF70A
:101C2000D5FF4B46C01A40452FD84346002B2ED037
:101C300033681A685207E7D5802DE5D0402DE3D0F0
:101C4000DA69120710D4DA691205DDD58022120193
:101C50001A623000FFF748FE90232022F2500C3B1E
:101C60000022F25403200CE008241C623000FFF72D
:101C70003BFE9023F4500C3B0022F254012000E084
:101C80000020C0BCB946B046F8BD0320F9E70320E8
:101C9000F7E7F0B5C64600B582B004000D009046E7
:101CA0001E008823C358202B66D1002969D0002A42
:101CB00069D080235B0182689A4204D10369002BBA
:101CC00001D1CB0761D490230022E250083B21329E
:101CD000E250FEF77BFF070054234246E2520233F4
:101CE000E25280235B01A2689A4202D00023984608
:101CF00018E02369002B2AD00023984612E088239D
:101D00002022E250032038E043461B882268DB058E
:101D1000DB0D936202239C46E0445623E25A013ACB
:101D200092B2E2525623E35A9BB2002B12D0009695
:101D30003B00002280212000FFF75CFF0028DED15D
:101D4000002DE1D02A7823689A620135E5E7A8469C
:101D50000025E7E700963B00002240212000FFF726
:101D600049FF002803D188232022E25005E0882380
:101D70002022E250032000E0022002B080BCB846DE
:101D8000F0BD0120F9E70120F7E70120F5E70000A9
:101D900030B583B0040090230022C250FEF716FF36
:101DA000050022681268130710D423681B685B07BC
:101DB0002BD420238822A3500432A3500023E366AF
:101DC0002367083AA354002003B030BD8021234B81
:101DD00000930300002289032000FFF70BFF002877
:101DE000E3D0EFF31081012383F310882268136896
:101DF00080208343136081F3108888232022E250DF
:101E0000043B0022E2547D38DEE78021134B00932F
:101E10002B000022C9032000FFF7ECFE0028C8D0E9
:101E2000EFF31080012282F3108821680B680C4DBB
:101E30002B400B6080F31088EFF3108082F3108842
:101E400021688B6893438B6080F310888C231F324A
:101E5000E250083B0022E2540320B5E7FFFFFF01F8
:101E6000DFFEFFFF10B5041E30D08823C358002BBF
:101E700022D088232422E2502268136801218B4358
:101E80001360A36A002B1DD12000FFF75FFD01281E
:101E900011D0226853680E490B4053602268936842
:101EA0002A218B4393602268136829390B431360FE
:101EB0002000FFF76DFF10BD84330022C25401F0F3
:101EC000E3FCD6E72000FFF725FEDDE70120F2E77F
:101ED000FFB7FFFF024B802212059A607047C04691
:101EE00000ED00E0030008334360012252428260AB
:101EF000C3600361002303607047002303617047E0
:101F000030B50C68631C10D0030008331A005B68FE
:101F10001D68A542FAD953684B6099608A60516088
:101F2000086103680133036030BD0269F3E70369A8
:101F3000416882688A60416851605A68824206D06E
:101F4000002202611A68013A1A60186870478268B4
:101F50005A60F5E710B5040001F0CAF9A36B002B35
:101F600004D1012401F0D0F9200010BD0024F9E7CC
:101F700010B5030008001A6C002A0AD0D968891825
:101F8000D9609C68A14201D31968D960D96802F070
:101F9000B9F810BD70B5050001F0AAF94523EC5C55
:101FA00064B201E0013C64B2002C0BDD6B6A002BD3
:101FB00008D02800243000F0BBFD0028F2D000F04B
:101FC0006DFEEFE74523FF22EA5401F09DF901F091
:101FD0008FF94423EC5C64B201E0013C64B2002C54
:101FE0000BDD2B69002B08D02800103000F0A0FD7D
:101FF0000028F2D000F052FEEFE74423FF22EA541B
:1020000001F082F970BDF8B504000D0000280FD072
:10201000C36B002B0AD0026C0026170C190C002F82
:102020000AD188B2002805D1002E16D072B6FEE77C
:1020300072B6FEE7101C04E089B200290BD1391CEE
:10204000181C92B29BB2534380B289B241431B0C1D
:10205000CB181B0CE8D00126E6E701F049F922680D
:10206000E36B206C010059435118A1600021A1636A
:102070006260013B4343D318E360FF234422A3542F
:102080000132A354002D0FD12369002B03D101F09D
:102090003BF90120F8BD2000103000F049FD002878
:1020A000F5D001F019F9F2E720001030FFF71AFF20
:1020B00020002430FFF716FFE9E770B51D00049CEF
:1020C000002909D12460E063216401212000FFF789
:1020D0009AFF4C23E55470BD2260F4E770B584B0DC
:1020E0001C0008AB1B78002C0ED0002810D0002A52
:1020F00001D000290CD0002A08D050250395039D5B
:10210000502D07D072B6FEE772B6FEE70029F4D074
:1021100072B6FEE7039D4625012666550094FFF73B
:10212000CCFF200004B070BDF0B585B004000F00F6
:10213000019200280AD000290AD000F0B5FD061E41
:102140000BD1019B002B42D072B6FEE772B6FEE7C0
:10215000036C002BF1D072B6FEE7002637E03900A1
:102160002000FFF705FF013DA5632369002B04D183
:1021700001F0CAF8012005B0F0BD2000103000F0D9
:10218000D7FC0028F4D001F0A7F8F1E701F0BCF883
:102190000020F0E702A800F03FFD013621E04423D3
:1021A0000022E25428E045230022E25429E02000E6
:1021B000FFF7F0FE00F088FB09E02000FFF7EAFEE1
:1021C00000F082FB2000FFF7C5FE002835D101F0AA
:1021D0008FF8A56B002DC2D1019B002BD6D0002E0D
:1021E000D8D001F091F800F0AFFA01F081F8442363
:1021F000E35C5BB20133D2D04523E35C5BB20133D5
:10220000D1D001F081F801A902A800F011FD002849
:10221000D3D12000FFF79EFE0028C8D02000243034
:10222000019900F04FFC2000FFF7B4FE00F04CFBDA
:102230000028CCD101F050F8C9E700209BE700004E
:1022400030B5002804D000290AD00025002309E079
:1022500072B6FEE70C4D2D19002D01D02960686083
:1022600030BD0133072BF7D8DC00074A121952683A
:102270008242EFD0002DF4D1DA00034C1259002A2B
:10228000EFD1DA00A518ECE78001002070B504005A
:102290000D00160001F02CF84423E35C5BB201331F
:1022A0000DD04523E35C5BB201330CD001F02CF878
:1022B000A36B002B0BD02000FFF76CFE70BD4423F6
:1022C0000022E254EDE745230022E254EEE720002D
:1022D00024303200290000F007FCECE7084B1B68B3
:1022E0001B68002B04D1074B012252421A60704731
:1022F000034B1B68DB681A68024B1A60F7E7C0469D
:10230000C40100206C060020F0B583B001900E00DF
:1023100014001D000A9F9200A521386B01F0FBFEFE
:102320001D4BE3189B003A6B94466344072293438A
:102330001C00002E0ED000220F2A08D8B15CBB185A
:1023400034331970B35C002B01D00132F4E743231E
:102350000022FA54089B372B01D972B6FEE7089B7E
:10236000FB62FB64381DFFF7C8FD38001830FFF72B
:10237000C4FD3F613823089A9B1ABB617F622A0023
:102380000199200000F096FF3860099B002B00D0D7
:102390001F6003B0F0BDC046FFFFFF3F70B50024D3
:1023A00007E0A3001B1998000E4BC018FFF79AFD19
:1023B0000134372CF5D90C4D2800FFF793FD0B4C59
:1023C0002000FFF78FFD0A48FFF78CFD0948FFF753
:1023D00089FD0948FFF786FD084B1D60084B1C600E
:1023E00070BDC046CC0100204006002054060020ED
:1023F00078060020A406002090060020C4010020DA
:10240000C801002010B5040000F072FF284A1368CC
:1024100001331360274B1B68002B0CD0264B1B6825
:10242000002B0DD1234B1B68DB6AE26A934207D86D
:10243000204B1C6004E01F4B1C601368012B31D043
:102440001E4A1368013313606364E26A1C4B1B6805
:102450009A4201D91A4B1A601A4993009B189B00A3
:10246000CB185B68A3609868E060221D42609A60A8
:10247000E06A83001A189200521862611A189200DA
:10248000525801321B189B005A5000F03DFF0A4B76
:102490001B68002B05D0074B1B68DA6AE36A9A4277
:1024A00003D310BDFFF77AFFCAE700F015FFF8E786
:1024B0002C060020C00100208C06002038060020D9
:1024C0003C060020CC01002010B504005923C35C59
:1024D000002B05D0012B0AD0022B07D072B6FEE7E5
:1024E000006B01F0C1F8200001F0BEF810BD01F052
:1024F000BBF8FBE710B514E000F0FAFE0B4BDB680D
:10250000DC68201DFFF713FD094A1368013B1360C7
:10251000084A1368013B136000F0F6FE2000FFF745
:10252000D3FF044B1B68002BE6D110BDA40600208E
:102530002C0600203006002010B5FFF7DBFF034B10
:102540001B68012BF9D900F0C7FEF6E7CC0100208B
:1025500070B504000D001D4B1E681D4B186804303B
:10256000FFF7E5FC631C0DD03419194B1B685C6048
:10257000A6421DD9174B1868154B19680431FFF78F
:10258000BFFC70BD002DEFD0134A5168104B186886
:10259000816018688C68C4601868043060601868CE
:1025A000043088601B685A61136801331360E8E7E0
:1025B0000A4B1868064B19680431FFF7A1FC084B59
:1025C0001B68A342DDD9064B1C60DAE7B806002081
:1025D000C0010020C801002090060020C401002096
:1025E0006C060020F0B587B004000D0016001F0037
:1025F0000D9B002B09D00E9B002B08D05C2304936D
:10260000049B5C2B05D072B6FEE772B6FEE772B68D
:10261000FEE7049B5C2200210E9801F07CFD0E9BDE
:102620000D9A1A63592302220E99CA540023039368
:10263000029105AB01930C9B00933B0032002900F3
:102640002000FFF761FE0E98FFF7DCFE059807B04B
:10265000F0BDF0B587B00490059116001F00900002
:1026600000F08CFF041E23D05C2000F087FF051EC5
:102670001AD05C22002101F04EFD2C63002D1BD0EE
:1026800000235922AB54039302950D9B01930C9B9D
:1026900000933B00320005990498FFF735FE2800AF
:1026A000FFF7B0FE012005E0200000F0DDFFE5E7C8
:1026B0000120404207B0F0BD01204042FAE700008F
:1026C00010B588B000240594069407AA06A905A8A9
:1026D00000F0AAFD059B0293069B01930094002342
:1026E000079A12491248FFF77DFF124B1860002825
:1026F00009D000F077FC012807D0431C13D00E4B03
:102700001B6808B010BD0020F5E772B60B4B012224
:1027100052421A600A4B02321A600A4B00221A60B7
:1027200000F05CFEEBE772B6FEE7C04634570008E7
:102730003925000868060020100000206C060020E3
:102740008C060020B8060020024A1368013313608B
:102750007047C04634060020014B18687047C046D9
:10276000B8060020F8B54D4B1B68002B00D08FE059
:102770004B4B1E6801361E60002E12D1494B1B6860
:102780001B68002B01D072B6FEE7464A1168464B23
:10279000186810601960454A136801331360FFF729
:1027A0009DFD434B1B68B34211D90020414B1B6870
:1027B000DA6A93009B189A003F4BD358012B00D93B
:1027C00001203E4B1B68002B67D0012065E00020F4
:1027D00033E0374B012252421A60E7E7344B1A606C
:1027E000E4E7D96851603EE000219962116801393F
:1027F0001160DA6A324909688A4201D930490A60AF
:102800002D499400A418A2008A1852689A6094680E
:10281000DC6065609560DC6AA2001719BD006D1868
:102820005D61BD006D580135BC006550DA6A214B11
:102830001B68DB6A9A4200D901201A4B1B681B688F
:10284000002BC6D0174B1B68DB68DB685A689642C2
:10285000C4D35A699C68D968A1609C684C601D1DEE
:102860005168A942BDD00021596111680139116038
:102870009A6A002ABDD0DC69196AA160DC694C60E3
:102880001900183154688C42AED1196A5160ABE717
:102890000C4A1368013313600020F8BD3406002091
:1028A000B8060020C4010020C801002070060020E6
:1028B0006C060020C0010020CC010020BC060020D6
:1028C0003C0600207406002010B5474B1B68002B07
:1028D00001D172B6FEE700F00BFD434B1A68013AD6
:1028E0001A601B68002B7AD1404B1B68002B07D164
:1028F000002475E0196A516015E0D968516021E043
:1029000000233B4A1268002A4AD0394BDB68DB6857
:102910009A6AD869196A8160D869486019001831C3
:1029200050688842E6D0002199621168013911602F
:102930005A699868D9688160986848601C1D516818
:10294000A142DAD000215961116801391160D96AB8
:10295000284A1268914201D9264A116026488A0005
:1029600052189200821852689A609168D9604C603F
:102970009460DC6AA20011198900091859611119C3
:102980008900095801311219920011501B4A12682E
:10299000D26AD96A9142B4D9194A01211160B0E7CB
:1029A000002B01D0FFF79AFC164B1C68002C0AD1B3
:1029B000134B1C68002C13D000F08EFC01240FE098
:1029C000013C002C07D0FFF7CDFE0028F8D00C4BBF
:1029D00001221A60F4E70B4B00221A60E8E700249A
:1029E00000F092FC200010BD340600202C060020D0
:1029F000780600203C060020CC010020C001002009
:102A0000BC0600207406002010B5041E0FD0094B30
:102A10001B68002B01D072B6FEE7FFF795FE002180
:102A20002000FFF795FDFFF74FFF002801D100F0D0
:102A300053FC10BD3406002030B51D4B1B68002B25
:102A400003D01C4B01221A6030BD1A4B00221A60C1
:102A5000194B1B689A00D2189100184A8A58002A0C
:102A600005D1002B01D0013BF4E772B6FEE7134D10
:102A70009900CA1890002818426854684460C91820
:102A80008A000832521994420BD09A00D218910051
:102A90000A4A52185268D168094A1160064A1360FE
:102AA000D2E79900C91888002A18D1685160ECE76C
:102AB00034060020BC0600203C060020CC0100208B
:102AC000C001002010B50C00002809D0054B196882
:102AD0001831FFF715FA01212000FFF739FD10BD6D
:102AE00072B6FEE7C001002070B5030008001100B7
:102AF000002B18D05C680D4A1568EC611568A66853
:102B00002E6215681835756015681835A56012684D
:102B100093621A6801321A60002901D001204042F4
:102B2000FFF716FD70BD72B6FEE7C046C00100207B
:102B300010B5C368DB68002B4CD09A6AD869196A53
:102B40008160D8694860180018305168814243D0CC
:102B500000219962116801391160294A1268002A1E
:102B600040D15A699868D9688160986848601C1D8E
:102B70005168A14233D000215961116801391160B7
:102B8000D96A204A1268914201D91E4A11601E4832
:102B90008A0052189200821852689A609168D9602F
:102BA0004C609460DC6AA20011198900091859610F
:102BB0001119890009580131121992001150DA6A6D
:102BC000124B1B68DB6A9A4218D9114B01221A601A
:102BD000012010BD72B6FEE7196A5160B8E7D968E6
:102BE0005160C8E70B4A5168D9618C681C6260600B
:102BF00088609A62116801311160E0E70020E8E71F
:102C0000340600203C060020CC010020C00100203A
:102C1000BC06002078060020034B1B680360034BB2
:102C20001B6843607047C04670060020B80600204D
:102C3000F8B504000D00002815D0002915D000F0CB
:102C400057FB144B19686368C81A2A68561C1CD0B5
:102C5000114E36682768B74209D08B4207D8002347
:102C60002B60012412E072B6FEE772B6FEE78242E4
:102C700003D800232B60012408E05B1A9B182B600B
:102C80002000FFF7C9FF002400E0002400F03CFB17
:102C90002000F8BDB806002070060020014B01227C
:102CA0001A607047BC060020064B1B68002B07D03B
:102CB000054B1B68002B01D0002002E0022000E041
:102CC000012070478C06002034060020074B1A684C
:102CD0001368002B06D101330360002B04D1D368A5
:102CE000186870470023F7E70020FAE7C0060020C5
:102CF00010B54160006191420CD8D21A83699A42A2
:102D000001D3012010BD011D094B1868FFF7F8F829
:102D10000020F7E79A4201D2994206D2011D054BE5
:102D20001868FFF7EDF80020ECE70120EAE7C0465D
:102D3000C4060020C006002070B504000D00160077
:102D400005E0A3699C4665442000236A9847A3696F
:102D500059192B0032002000FFF7CAFF0028F0D1DC
:102D600070BD000070B505000E000C4B1B68DB68E1
:102D7000DC68201DFFF7DBF82823E35C5A0707D443
:102D8000012293432732A354236A2000984770BD41
:102D9000320029002000FFF7CFFFF5E7C006002032
:102DA00010B505E0DB68186801214942FFF7DAFF3A
:102DB000054B1B681A68002AF4D1044A02491068BE
:102DC0000860136010BDC046C0060020C406002085
:102DD00070B50500FFF7C0FC0400074B1B68834279
:102DE00005D800232B60044B1C60200070BDFFF74A
:102DF000D7FF01232B60F6E79007002070B582B063
:102E000004000D00FFF7A0FC01A8FFF7E1FF06009A
:102E1000019B002B23D1002D01D1A04213D2002D04
:102E200005D0104A12681268002A13D10125A11B8F
:102E30000D4B18682A00FFF729FAFFF745FD002817
:102E40000AD002B070BDFFF73FFD31002000FFF750
:102E500089FFF6E71D00EAE700F03EFAF1E7FFF729
:102E600033FDEEE7C4060020E407002030B587B04C
:102E700002E0029B002B0FDA364B1868002202A9F1
:102E8000FFF752F9002863D0029B002BF1DA039B75
:102E9000059904989847ECE7049C6369002B02D0DD
:102EA000201DFFF744F801A8FFF792FF0500029BE1
:102EB000092BE1D89B00284AD3589F462822A35CBF
:102EC00001210B43A3540399A3699C466144039BCE
:102ED00002002000FFF70CFF0028CDD02823E35C80
:102EE0005A0707D4012293432732A354236A2000B0
:102EF0009847C1E70399A3699C4661442A002000D2
:102F0000FFF71AFFF2E72822A35C01218B43A354A9
:102F1000B2E72822A35C01210B43A3540399A161CA
:102F2000002906D00918030002002000FFF7E0FE88
:102F3000A2E772B6FEE72823E35C9A0704D50122D4
:102F400093432732A35497E7200000F08DFB93E7CB
:102F500007B030BDE40700203C57000800B583B03F
:102F600001A8FFF7B3FE0199FFF748FFFFF77EFFC7
:102F7000F6E7000030B583B000F0BAF9114B1B68DA
:102F8000002B03D000F0C0F903B030BD0E4D280077
:102F9000FEF7A8FF0D4C2000FEF7A4FF0C4B1D60B0
:102FA0000C4B1C60002300930B4B0C4A10210A2091
:102FB000FFF794F8034B18600028E3D00849FFF7A7
:102FC0003FF9DFE7E4070020680700207C070020C6
:102FD000C0060020C406002094070020C806002078
:102FE0006457000800B589B0FFF7C4FF104B1B6899
:102FF000002B1AD000230593069307AA06A905A85B
:1030000000F01EF9059B0293069B01930223009397
:103010000023079A07490848FFF7E4FA074B1860AE
:10302000002802D0012009B000BD72B6FEE7C046FC
:10303000E40700206C5700085D2F0008E807002017
:1030400010B5EFF30584002C0DD00124002C14D111
:10305000FFF72AFE012813D10C4B1868002812D163
:1030600001221A6010BDFFF71FFE0128EED0EFF31A
:103070001084002CEAD00124E8E706204042F1E762
:1030800001204042EEE701204042EBE7480A0020E1
:1030900010B5EFF30584002C16D00124002C1DD1AF
:1030A000FFF702FE01281CD1114B1B68012B1BD11D
:1030B000104AD3691B021B0AD3610D4B02221A600E
:1030C000FFF7FEFA002010BDFFF7EEFD0128E5D066
:1030D000EFF31084002CE1D00124DFE7062040420A
:1030E000F1E701204042EEE701204042EBE7C04615
:1030F000480A002000ED00E0F0B587B006000F00A0
:10310000140000230593EFF30585002D26D001253B
:10311000002D41D1002E3FD0002C34D02168A3696E
:10312000002B00D118335A1E372A59D86268D207AB
:1031300058D46569002D1BD0AA089446A0680028C1
:1031400007D0E2685B2A04D92269002A01D0002D49
:1031500025D100280FD00120404219E0FFF7A4FD3F
:103160000128D5D0EFF31085002DD1D00125CFE770
:1031700080229446E2E7E268002A12D12269002AFE
:1031800012D0013804E02100002018238022944648
:1031900001280BD0002815D0059807B0F0BD0120FC
:1031A000F6E701204042F3E70020F1E72069A2683A
:1031B0000292019000933B0062463000FFF712FA42
:1031C0000590E9E7624692B205A8019000933B00A2
:1031D0003000FFF73EFA0128DED000230593DBE73D
:1031E0000020DAE70020D8E770B50400EFF305858A
:1031F000002D06D00125002D12D1002C0BD100206E
:1032000070BDFFF751FD0128F5D0EFF31085002DBB
:10321000F1D00125EFE72000FFF7F6FB0020EFE7F4
:1032200006204042ECE70000034B0360034B0B60B9
:10323000802313607047C046EC090020EC07002093
:10324000034B0360034B0B60802313607047C04641
:103250004C0C00204C0A002082B000230193064B46
:103260001B68013301D072B6FEE772B6019B002BDA
:10327000FCD002B07047C0461400002000000000DF
:103280000B4A13681868203080F30988022080F305
:103290001488BFF36F8F3FBCAE4608BC04BC62B657
:1032A0001847C046C046C046C046C046C046C04695
:1032B000C001002010B5031F802464041C60043B7F
:1032C0001960043B02491960143B1A60403810BD74
:1032D0005932000870470000044B802252051A60E2
:1032E000BFF34F8FBFF36F8F7047C04604ED00E010
:1032F00072B6044A136801331360BFF34F8FBFF3F4
:103300006F8F704714000020064B1B68002B01D103
:1033100072B6FEE7013B034A1360002B00D162B690
:103320007047C04614000020EFF3108072B670475B
:1033300080F31088704700000000000000000000CB
:10334000EFF309800E4B1A6820381060F0C0444635
:103350004D4656465F46F0C008B572B6FFF76CFBA7
:1033600062B60CBC116808681030F0C8A046A946C7
:10337000B246BB4680F309882038F0C81847C046DB
:10338000C001002010B5FFF7CFFF0400FFF7EAF9F6
:10339000002803D0034B802252051A602000FFF75B
:1033A000C7FF10BD04ED00E010B5084C00232360FA
:1033B000074A1360074B1868FA218900FCF7AEFE34
:1033C0000138054B18600723236010BD10E000E0B2
:1033D00018E000E00C00002014E000E010B50C4BF9
:1033E0001968FF2212040A431A601968FF221206A4
:1033F0000A431A60FFF7D8FF064B00221A60FFF756
:103400003FFFFFF719FBFFF727FF002010BDC04665
:1034100020ED00E01400002010B503000C4A0D4917
:10342000521A0D490968002907D00B490868C318CA
:10343000934206D8084A136010BD07490748086040
:10344000F3E700F035FE0C23036001204042F3E770
:103450000030002000040000A80C0020201E0020E6
:103460000120704710B500F023FE162303600120F1
:10347000404210BD10B501214942FFF7F3FFFEE7BE
:1034800070B50C001600002504E000E000BF2070BD
:1034900001350134B542F8DB300070BD70B516005F
:1034A000002405E04D1C0878FDF736FB01342900A7
:1034B000B442F7DB300070BD0120404270478023EA
:1034C0009B014B600020704701207047002070472F
:1034D000104A53071BD0D11D0723994380235B015A
:1034E0005B1A9B180A000C48026000214160D31847
:1034F000083B072083430948036059601960991A03
:1035000051601360064B1960064B196070478023A9
:103510005B01E8E7B00C0020C01C0020AC0C0020D0
:10352000B41C0020B01C002010B5124B1A001B6800
:103530008342FBD351685418844208D04168441830
:10354000A34209D00360904200D0106010BD4068D3
:10355000091851601000F1E7074C2468A34206D017
:103560005B68C918416013681B680360EBE704607F
:10357000E9E7C046C01C0020AC0C002070B5050077
:10358000FFF7E2F8334B1B68002B11D0002D13D04E
:103590002B0009330FD8083507231A002A402B4285
:1035A0000AD001339B1ADA43AA420FD3ED1803E085
:1035B000FFF78EFFEAE70025002D3CDB3DD0264BD0
:1035C0001B68AB4240D3254A146803E00025F3E7AB
:1035D00022001C006368AB4202D22368002BF7D1A3
:1035E0001C4B1B68A34231D0166808362368136051
:1035F00063685B1B102B08D96019420701D072B6B3
:10360000FEE743606560FFF78FFF626812490B6851
:103610009B1A0B60124909688B4201D210490B605A
:1036200080231B0613436360002323600D4A136845
:103630000133136002E0002600E00026FFF744F9A2
:10364000730705D072B6FEE70026F7E70026F5E718
:10365000300070BDAC0C0020B01C0020C01C00204D
:10366000B41C0020B81C002070B500280FD0050045
:10367000083D6B68002B01DB72B6FEE70200083ADA
:103680001268002A01D072B6FEE7002B00DB70BD85
:10369000083804005B005B084360FFF755F8636877
:1036A000074A11688C46634413602800FFF73CFF0B
:1036B000044A136801331360FFF706F9E7E7C046D1
:1036C000B01C0020BC1C002000B583B0094A916BDF
:1036D000012319439163926B13400193019B0022D4
:1036E00000210920FDF78AFA0920FDF7B7FA03B097
:1036F00000BDC0460010024010B51448144B0360D2
:10370000144B4360002383600122C2600361436164
:103710008361C361036200F04DFA00280CD10021DF
:103720000A4800F045FC002809D10021074800F0B4
:103730006BFC002806D110BDFCF7B4FEEFE7FCF7E8
:10374000B1FEF2E7FCF7AEFEF5E7C046241D00200F
:10375000005400405D3E302030B58FB0040014228C
:10376000002109A800F0D7FC1C22002102A800F0CB
:10377000D2FC254B22689A4201D00FB030BD022303
:10378000029302A8FDF70CFD002837D11F4D6A6B8C
:1037900001231A436A636A6B1A400092009AC0229E
:1037A000D200099212220A920B9302330C93033334
:1037B0000D93A02009A9C005FDF7FAFDEA6B802151
:1037C00089030A43EA63EB6B0B400193019B1048AA
:1037D000104B03600B234360053383600023C360F9
:1037E0008022026143618361C3610362FDF70EFFC2
:1037F000002806D1064BA3639C62BEE7FCF752FE8D
:10380000C4E7FCF74FFEF5E700540040001002400B
:10381000C81C00200800024010B51948194B03606D
:10382000E1235B02436000238360C36003610C22D9
:1038300042618361C361036243628362FEF712FBEC
:10384000002811D100210E48FEF700F800280ED103
:1038500000210B48FEF720F800280BD10848FDF79F
:10386000D5FF002809D110BDFCF71CFEEAE7FCF7E4
:1038700019FEEDE7FCF716FEF0E7FCF713FEF2E7A2
:10388000781D00200038014010B58EB004001422CD
:10389000002109A800F03FFC1C22002102A800F032
:1038A0003AFC2268174B9A4201D00EB010BD01239A
:1038B000029302A8FDF774FC002820D1124B196C6A
:1038C0008020C001014319641A6C02400092009AE2
:1038D000596B0122114359635B6B1A400192019BA2
:1038E00003230993013B0A9300230B930C930433A6
:1038F0000D93A02009A9C005FDF75AFDD5E7FCF7F7
:10390000D1FDDBE7003801400010024003689A69EE
:10391000920701D500229A6203689A69D20703D4FC
:103920009A6901210A439A617047000010B5890520
:10393000890D120411431943029B19434900490898
:10394000046862685B0D8020C000034002480343A6
:103950009A431143616010BDFF63FF03F0B5C64693
:1039600000B504000D00170001688B6910221600D5
:103970001E401A4200D175E01023CB610023984607
:10398000002623689869820631D4002E2FD16B1C43
:10399000F7D0FDF71BF9C01BA84201D8002DF0D1CC
:1039A00021684B688022D20113404222A25CD2B22D
:1039B0008869000403D5002B01D1202A0ED1236889
:1039C0009B699B06DDD4FDF701F9C01B1928F6D9C8
:1039D000202342461A4390460126D2E74A688023B4
:1039E000DB0113434B60FDF7F1F80700E7E7002E1A
:1039F00001D12022DA610426434633431E0001250B
:103A000022689369D90504D501210E43FF31D161A4
:103A100001255A0506D50822164322688021C900CF
:103A2000D16101259B051FD502231E4323688022F7
:103A30009200DA6101252000FFF768FF22685368D1
:103A40000B490B405360636C1E4366644123202284
:103A5000E25400232232A354023AA354280080BC2B
:103A6000B846F0BD0025CBE7002DF7D0E3E7C04610
:103A700000E800FE70B504000D00160023689B6985
:103A80009B0720D4320029002000FFF767FF0028A1
:103A90001BD16B1CF2D0FDF799F8801BA84201D80E
:103AA000002DEBD123689B699B07E7D4636C202230
:103AB000134363644123E25400232232A354023AA5
:103AC000A354012000E0002070BD0120FCE7F0B508
:103AD000D6464F4680B583B007000D0016009946C4
:103AE0000A9B9A463B689C692C40641B63425C417C
:103AF0000196B44228D1524649463800FFF72EFFBE
:103B0000002827D14B460133ECD0FDF75FF8534630
:103B1000C01A484502D84B46002BE3D13B689B694D
:103B20002B405B1B5A425341019A9342DAD17B6C82
:103B3000202213437B644123FA5400232232BB54D6
:103B4000023ABB54012000E0002003B0C0BCBA46DA
:103B5000B146F0BD0120F8E770B504000D00160075
:103B600003E023689B699B0612D523689B699B062B
:103B70001BD4320029002000FFF7F0FE002816D1E8
:103B8000FDF724F8801BA842EBD8002DEDD1E8E723
:103B9000636C2022134363644123E25400232232E6
:103BA000A354023AA354012000E0002070BD01207C
:103BB000FCE7000010B5041E60D04123C35C002B5D
:103BC00048D041232422E2542268136801218B4308
:103BD000136022682A4B61680B4013612268936866
:103BE00028490B409360E368012B39D02268842375
:103BF0001B02A1680B439360E368022B37D0226855
:103C0000536821490B405360226851681F4B0B4396
:103C100053602268D3681B490B40D36023696269F3
:103C20001343A269120221681343CB602268E3693F
:103C3000216A0B4313602268136801210B43136050
:103C40000023636441221F31A15423630132A35432
:103C5000002010BD40330022C254FFF77DFDB0E7C5
:103C6000226880231B02A1680B439360C4E722688B
:103C7000516880231B010B435360C5E70120E8E72F
:103C8000FFFFFFF0FF7FFFFFFFF7FFFF0080000255
:103C9000F0B585B004000E00029203930A9D412303
:103CA000C35C202B00D0AEE02033C35C012B00D1DD
:103CB000ACE040230122C254FCF788FF07008021BA
:103CC00000901923012209022000FFF700FF0028BD
:103CD00000D09DE041232122E2540133113AE25405
:103CE00000236364029A6262039A62856363638D50
:103CF0009BB2FF2B1ED9FF23238580235B04228DDB
:103D0000002A1CD02268029909789162626A013205
:103D10006262628D013A92B26285228D013A92B25C
:103D200022850132D2B23E49009131002000FFF7D6
:103D3000FDFD18E0638D238580239B04DFE7D2B26D
:103D40003749009131002000FFF7F0FD0BE0628D54
:103D500092B222858023D2B2002100919B043100CF
:103D60002000FFF7E3FD638D9BB2002B34D03A00B7
:103D700029002000FFF77EFE00284BD12368626AED
:103D800012789A62636A01336362638D013B9BB26E
:103D90006385238D013B9BB22385628D92B2002AFD
:103DA000E1D0002BDFD100972B00002280212000E2
:103DB000FFF78DFE00282FD1638D9BB2FF2BC6D954
:103DC000FF2323857F3B002200925B04FF323100FA
:103DD0002000FFF7ABFDC6E73A0029002000FFF7FF
:103DE000BBFE00281AD123682022DA6121684B68C3
:103DF0000C4D2B404B604123E25400232232A3544C
:103E0000023AA35400E0022005B0F0BD0220FBE717
:103E10000120F9E70120F7E70120F5E70120F3E7AA
:103E20000020008000E800FEF0B5D6464F4646462A
:103E3000C0B584B00600894690461D000023039358
:103E40004133C35C202B00D0A8E003689B691B04AE
:103E500000D5A5E04023C35C012B00D1A2E04023A4
:103E60000122C25401332332C254002343649A46D0
:103E7000F368012B17D04B469A05920D4A4B13431A
:103E800032685360FCF7A2FE070033689A69202469
:103E90001440621E9441E2B29C6910232340591ED3
:103EA0008B41DCB212E04B469A05920D3F4B134317
:103EB000E6E733689A6920241440621E9441E2B216
:103EC0009B6910241C40631E9C41E4B2144318D12A
:103ED0006B1CEED0FCF77AFEC01BA84201D8002D67
:103EE000E7D120224123F254736C134373644023BF
:103EF0000022F254012004B0E0BCBA46B146A84604
:103F0000F0BD33689A69D20633D400972B000022A3
:103F100020213000FFF7DBFD002821D0736C042B3B
:103F200018D001239A46039B01330393039B434517
:103F300002D25346012B2ED0039B434598D3202217
:103F40004123F254736C1343736440230022F254F0
:103F50000120D0E733682022DA6100237364E2E7AE
:103F600032682023D3614122B35420330022F2541B
:103F7000C1E71022DA6100972B00002220213000D7
:103F8000FFF7A5FD002803D133682022DA61CAE7D4
:103F900001239A46C7E700239A46CDE70220AAE705
:103FA0000220A8E70220A6E7002800020020000265
:103FB000F0B54123C35C202B20D12033C35C012BFF
:103FC0001ED0402401220255412524234355066872
:103FD000336893433360066833680A4F3B4033606D
:103FE000066833681943316001680B6813430B603E
:103FF00020234355002303550020F0BD0220FCE799
:104000000220FAE7FFEFFFFFF0B54123C35C202B4E
:104010001ED12033C35C012B1CD040240122025549
:10402000412524234355066833689343336006686B
:104030003368094F3B4009021943316001680B683E
:1040400013430B6020234355002303550020F0BD8C
:104050000220FCE70220FAE7FFF0FFFF0D4885464B
:10406000FDF738FF002103E00B4B5B584350043150
:104070000A480B4B42189A42F6D30A4A02E0002340
:1040800013600432084B9A42F9D300F017F8FCF79A
:104090003DFAFEE700300020E45800080000002050
:1040A0007C0000207C0000201C1E0020FEE7000099
:1040B000014B18687047C0461800002070B50026F4
:1040C0000C4D0D4C641BA410A64209D1002601F032
:1040D00091FA0A4D0A4C641BA410A64205D170BD8A
:1040E000B300EB5898470136EEE7B300EB5898471A
:1040F0000136F2E7DC580008DC580008DC580008FC
:10410000E0580008002310B59A4200D110BDCC5CE5
:10411000C4540133F8E703008218934200D170477A
:1041200019700133F9E70000164B10B51C68A36B3A
:10413000002B16D1182000F097F8021EA06304D1BE
:104140004E21114B114800F061F8114B0021036022
:10415000104B4360104B83600B238381012010615F
:104160005161A46B0D4A206961690D4BFCF74CF954
:1041700001220023801859412061616148004008F4
:1041800010BDC04618000020785700088F5700085F
:104190000E33CDAB34126DE6ECDE05002D7F954C71
:1041A0002DF451580CB430B5174B0C001D689DB060
:1041B000002908DA8B2301202B6040421DB030BC5F
:1041C00008BC02B0184782236A469B0093820023F2
:1041D00002900690994200D04B1E0493079301234E
:1041E0006A465B42D382280021AB209A02A9019340
:1041F00000F088F9431C01DA8B232B60002CDDD002
:104200000023029A1370D9E71800002030B514007B
:104210001A00094B05001B6885B0D868074B002CB5
:1042200001D1074B1C00019300912B00054902941A
:1042300000F00AF800F02AFE180000200D580008CF
:10424000485800081A5800080EB403B5010003AB23
:10425000044804CB0068019300F07CFA02B008BC6B
:1042600003B018471800002010B5034B0100186870
:1042700000F070F810BDC0461800002070B50500B1
:10428000002910D00C1F2368002B00DAE418280046
:1042900001F060F81D4A1368002B05D163601460BB
:1042A000280001F05FF870BDA34208D921686018AA
:1042B0008342F3D118685B6841182160EEE71A0069
:1042C0005B68002B01D0A342F9D911685018A042B5
:1042D0000BD120680918501811608342E0D118688A
:1042E0005B68411811605360DAE7A04202D90C23E1
:1042F0002B60D5E721686018834203D118685B689A
:104300004118216063605460CAE7C0460C1E00205B
:1043100070B50F4E0D0031680400002902D100F085
:10432000D5FC30602900200000F0D0FC431C0AD0EE
:104330000323C51C9D43A84207D0291A200000F082
:10434000C5FC431C01D101256D42280070BDC0464B
:10435000101E0020F7B50322CB1C93430833060040
:104360001F000C2B32D20C27B94231D8300000F09C
:10437000F1FF324D2B681C00002C2ED1390030008B
:10438000FFF7C6FF0400431C1ED12C682500002D3A
:104390004AD123682900E3183000019300F096FC0D
:1043A000019B834243D123680337FF1A03239F43B2
:1043B00008370C2F00D20C2739003000FFF7A8FF78
:1043C000431C34D02368DF19276013E0002BCBDABD
:1043D0000C23002533602800FEBD2268D11B20D4A9
:1043E0000B2917D9E2192760A34211D12A6063680B
:1043F000116053603000250000F0B4FF07220B3538
:10440000231D9543EA1A9D42E5D05B1BA350E2E7CA
:104410005A60ECE76268A34201D12A60EAE75A6079
:10442000E8E723006468A7E72C006D68AFE70C237A
:104430003000336000F096FFCDE7C0460C1E002030
:10444000F0B58E6885B007000C00039201939E4280
:104450003CD890238A89DB001A4234D0096923684A
:1044600060695B1A029303234343DD0FED18019B40
:10447000029801331B186D10AB4200D91D00530583
:1044800032D529003800FFF765FF061E09D10C233D
:104490003B6040230120A28940421343A38105B021
:1044A000F0BD029A2169FFF72DFEA389144A1A4034
:1044B00080231343A381029B2661F6182660656161
:1044C000019EED1AA560019B9E4200D9019E32001B
:1044D0000399206800F02BFFA36800209B1BA360BA
:1044E00023689E192660DAE72A00380000F042FFB0
:1044F000061EE0D138002169FFF7C0FEC7E7C046BD
:104500007FFBFFFFF0B5A1B003901D008B890F006A
:1045100016001B0611D50B69002B0ED14021FFF7A9
:1045200019FF38603861002805D10C23039A01383F
:10453000136021B0F0BD40237B61002308AC6361B0
:10454000203363761033A376079535002B78002B44
:1045500001D0252B47D1AB1B0593B5420CD03200BF
:1045600039000398FFF76CFF431C00D1AEE062698D
:10457000059B9446634463612B78002B00D1A5E032
:10458000012200235242626004A9543252186E1C68
:104590002360E360A3601370A3650522317854485B
:1045A00000F0BAFE751C00281FD12268D30604D57E
:1045B000532304A95B1820211970130704D5532332
:1045C00004A95B182B21197033782A2B16D03500DB
:1045D00000210A20E3682A786E1C303A092A4ED955
:1045E000002911D117E00135B0E7414B2268C01A0C
:1045F0000123834013432E002360CEE7079B191D40
:104600001B680791002B01DB0B9304E05B42E36026
:104610000223134323602B782E2B0AD16B782A2B8D
:1046200035D1079B02351A1D1B680792002B2BDB27
:104630000993304E03223000297800F06DFE0028E7
:1046400006D04023801B834022680135134323603A
:104650002978062228486E1C217600F05DFE00288D
:104660003CD0264B002B25D10722079B07339343D1
:10467000083307936369049A9B18636165E74343B2
:10468000350001219B18A6E701235B42D0E70023F8
:104690000A201A000135636029786E1C3039092917
:1046A00003D9002BC5D00992C3E74243350001234B
:1046B0005218F1E707AB00933A002100104B039822
:1046C00000E000BF0490049B0133D3D1BB890D9857
:1046D0005B0600D42DE7012040422AE707AB009398
:1046E0003A002100064B039800F0DEF9EAE7C046E5
:1046F000495800084F5800085358000800000000AF
:1047000041440008936810B5013B9360002B04DA24
:104710009469A34207DB0A2905D01368581C10606E
:104720001970080010BD00F0E3FA0100F9E7F8B5D0
:1047300006000F001400D518AC4201D1002007E09C
:1047400021783A003000FFF7DDFF0134431CF3D13C
:10475000F8BD0000F0B5A1B006000C001F000392E8
:10476000002804D08369002B01D100F0C5FC8E4BDA
:104770009C421CD17468636EDB0705D4A3899B053A
:1047800002D4A06D00F059FDA3891B0702D523694F
:10479000002B1DD12100300000F000FB002817D0B5
:1047A000636EDB070DD50120404221B0F0BD7F4B89
:1047B0009C4201D1B468DEE77D4B9C42DBD1F468BA
:1047C000D9E7A3899B05EED4A06D00F037FDEAE799
:1047D000002308AD6B6120336B761033AB760797FF
:1047E000039F3B78002B01D0252B4ED1039BFB1A56
:1047F0000593039B9F420DD0059B21003000039A37
:10480000FFF795FF431C00D1B5E06A69059B94460C
:1048100063446B613B78002B00D1ACE001227B1C30
:104820000393002352426A6004A9543252182B6049
:10483000EB60AB601370AB65039B052219785D4894
:1048400000F06AFD039B5F1C002820D12A68D30674
:1048500004D5532304A95B1820211970130704D52C
:10486000532304A95B182B211970039B1B782A2B57
:1048700016D00021EB68039F3A78781C303A8446C2
:10488000092A4FD9002911D117E00137A9E7494B6F
:104890002A68C01A0123834013432B600397CBE798
:1048A000079B191D1B680791002B01DB0B9304E08C
:1048B0005B42EB60022313432B603B782E2B0AD123
:1048C0007B782A2B37D1079B02371A1D1B6807926A
:1048D000002B2DDB099303223978374800F01CFDAB
:1048E000002807D0344B2A68C01A40238340134362
:1048F00001372B6039787B1C0622304803932976D8
:1049000000F00AFD002845D02D4B002B27D10722AF
:10491000079B07339343083307936B69049A9B18EB
:104920006B615DE70A214B4367469B180939A3E792
:1049300001235B42CEE700231A0001376B60397810
:10494000781C30398446092903D9002BC3D0099239
:10495000C1E70A235A4367465218093BEFE707AB02
:104960000093220029003000164B00E000BF0490A5
:10497000049B0133D1D1636EDB0705D4A3899B056A
:1049800002D4A06D00F05AFCA3895B0600D50AE7AB
:104990000D980AE707AB0093220029003000094B6D
:1049A00000F082F8E3E7C0469C580008BC580008B5
:1049B0007C580008495800084F5800085358000810
:1049C000000000002F470008F7B5150001938A6822
:1049D0000B690C000090934200DA130022002B6058
:1049E00043321278002A01D001332B6023689B06E2
:1049F00002D52B6802332B602268062317001F4064
:104A00001A4227D0230043331B785A1E9341226851
:104A1000920630D4220001990098089E4332B04794
:104A2000431C25D0062320682A68E168002503403E
:104A3000042B03D18D1AEB43DB171D40A3682269B9
:104A4000934201DD9B1AED180027BD4220D10020C2
:104A500010E00137E3682A689B1ABB42D2DD2200CE
:104A6000012301990098089E1932B047431CF0D1E8
:104A700001204042FEBD3020E11843310870210082
:104A80005A1C45310978A218433202331170C1E72C
:104A90002200012301990098089E1A32B047431C56
:104AA000E6D00137D1E70000F0B58BB006920A00DE
:104AB00043320793059004920A7E0C00109B782ADB
:104AC00007D8622A09D8002A00D1C1E0582A00D1AB
:104AD0008CE026004236327022E010006338152840
:104AE000F7D8FBF711FB16001F00F6FFF6FFF6FFE5
:104AF000F6FF1F00F6FFF6FFF6FFF6FFA8003600F0
:104B00009A00F6FFF6FFB900F6FF3600F6FFF6FF53
:104B10009E0026001A684236111D19601368337012
:104B20000123A7E0086819680A1D05060BD50D6862
:104B30001A60002D03DA2D23049A6D421370614B25
:104B40000A2703931BE00D681A604106F1D52DB2C8
:104B5000EFE70D681968081D18602E0601D50D686D
:104B600003E06D06FBD50D68ADB2564B08270393E5
:104B70006F2A00D002372300002243331A70636883
:104B8000A360002B03DB0422216891432160002DE8
:104B900002D1049E002B0CD0049E28003900FBF7A4
:104BA00043FB039B013E5B5C33702B0005009F427F
:104BB000F3D9082F09D12368DB0706D5636822697A
:104BC000934202DC3023013E3370049B9B1B236124
:104BD000079B210000930598069B09AAFFF7F4FEA6
:104BE000431C4CD1012040420BB0F0BD45310A704E
:104BF000344A03921A68216820CA1A60080616D53A
:104C0000CB0702D52023194321601027002DB2D1F4
:104C1000202322689A432260ADE7202209680A43D4
:104C200022602200782145321170274AE1E74806C8
:104C3000E6D5ADB2E4E71A680D68101D4969186041
:104C400013682E0601D5196002E06D06FBD51980A8
:104C50000023049E2361BBE71A68111D19601668C2
:104C600000213000626800F057FB002801D0801B53
:104C70006060636823610023049A1370A8E72369C6
:104C8000320006990598079DA847431CAAD02368BF
:104C90009B0715D4099BE0689842A5DA1800A3E7A2
:104CA0002200012306990598079E1932B047431C3C
:104CB00098D00135E368099A9B1AAB42F0DCE9E72A
:104CC0000025F7E75A5800086B580008002370B514
:104CD000064D040008002B60FEF79EFB431C03D129
:104CE0002B68002B00D0236070BDC046181E00202A
:104CF000F8B505000E001400002804D08369002BCD
:104D000001D100F0F9F9224B9C422ED16C68A369C5
:104D1000A360A3891B0732D52369002B2FD02368FA
:104D20002269F7B2981A6369F6B2834205DC210062
:104D3000280000F03FF9002827D1A3680130013B8B
:104D4000A36023685A1C22601F706369834204D0E9
:104D5000A389DB0707D50A2E05D12100280000F022
:104D600029F9002811D13000F8BD0A4B9C4201D12D
:104D7000AC68CCE7084B9C42C9D1EC68C7E721007E
:104D8000280000F00BF80028C9D001267642EAE797
:104D90009C580008BC5800087C580008374B70B578
:104DA0001D6806000C00002D05D0AB69002B02D158
:104DB000280000F0A1F9324B9C420FD16C680C2303
:104DC000E25E93B211072DD4D90611D40923012034
:104DD000336037331343A381404270BD294B9C425B
:104DE00001D1AC68EBE7284B9C42E8D1EC68E6E7E0
:104DF0005B0713D5616B002908D023004433994227
:104E000002D03000FFF73AFA002363632422A3891B
:104E10009343A38100236360236923600823A2894D
:104E20001343A3812369002B0BD1A0218022A389E6
:104E3000890092000B40934203D02100300000F023
:104E400027FA0C22A35E01201A0099B20240034205
:104E50000FD00022A26062695242A2610020226942
:104E60008242BAD10A06B8D540221343A381013841
:104E7000B3E7880700D46269A260EFE7180000205A
:104E80009C580008BC5800087C580008062010B543
:104E900000F0CAFA0120FEF7EDFA0000F7B58B89A1
:104EA00005000C001A075FD44A68002A04DC0A6C6B
:104EB000002A01DC0020FEBDE76A002FFAD00022A4
:104EC00080212E682A601A0049010A400B4234D022
:104ED000606DA3895B0706D56368C01A636B002BFE
:104EE00001D0236CC01A0200216A00232800E76A5F
:104EF000B847A189431C06D12B681D2B31D82C4AF9
:104F0000DA40D3072DD50023636023692360CB04E7
:104F100005D5431C02D12B68002B00D16065616B65
:104F20002E600029C6D023004433994202D02800C5
:104F3000FFF7A4F900206063BDE701232800216A80
:104F4000B847431CC5D12B68002BC2D01D2B01D004
:104F5000162B01D12E60ADE74023A2891343A38114
:104F6000A9E740230B43FAE70F69002FA2D00A6894
:104F70000F60D21B019200229B0700D14A69A260F8
:104F8000019B002B00DC95E73A002800019B216A79
:104F9000A66AB047002806DC40230120A2894042CF
:104FA0001343A38187E7019B3F181B1A0193E7E78F
:104FB000010040200B6970B505000C00002B02D1E8
:104FC0000025280070BD002804D08369002B01D182
:104FD00000F092F8144B9C421BD16C680C22A35E2B
:104FE000002BEDD0626ED20704D49B0502D4A06DD5
:104FF00000F023F928002100FFF750FF636E050041
:10500000DB07DED4A3899B05DBD4A06D00F016F985
:10501000D7E7064B9C4201D1AC68DFE7044B9C42CA
:10502000DCD1EC68DAE7C0469C580008BC580008A0
:105030007C580008002310B50400036043608360BF
:10504000818143661900C281036143618361082243
:105050005C30FFF760F8054B24626362044BA36287
:10506000044BE362044B236310BDC046695400083F
:1050700091540008C9540008F554000810B50249BD
:1050800000F0BAF810BDC046B54F000870B56825ED
:105090004A1E55430E0029007431FFF75BF9041EC8
:1050A00008D000212A00016046600C30A060683200
:1050B000FFF731F8200070BD10B5024800F0BDF8D0
:1050C00010BDC046151E002010B5024800F0B6F80D
:1050D00010BDC046151E002010B5024800F0ADF806
:1050E00010BDC046161E002010B5024800F0A6F8FC
:1050F00010BDC046161E002013B50400FFF7ECFFDC
:10510000A369002B02D0FFF7EFFF13BDA364E36494
:105110002365134B134A1B68A2620193A34201D17A
:105120000123A361200000F01FF86060200000F060
:105130001BF8A060200000F017F800220421E060B6
:105140006068FFF777FF01220921A068FFF772FF6F
:1051500002221221E068FFF76DFF0123A361D2E76D
:10516000745700087D500008F8B50700FFF7A4FF4A
:105170001F4B1E68B369002B02D13000FFF7BCFF44
:105180004836B4687368013B04D53368002B22D0DD
:105190003668F6E70C22A55E002D1AD12000154BCB
:1051A0005830E360656600F047F8FFF78DFF200098
:1051B000082229002560A560656025616561A561FB
:1051C0005C30FEF7A8FF6563A563A564E564200075
:1051D000F8BD6834D7E704213800FFF757FF041EF5
:1051E0003060D5D1FFF770FF0C233B60EFE7C0467E
:1051F000745700080100FFFFF7B504000600002700
:10520000019148346368A5680093009B013B0093BB
:1052100004D52468002CF5D13800FEBDAB89012BE4
:1052200008D90E22AB5E013304D029003000019B67
:10523000984707436835E8E77047704770470000B4
:1052400070B50E001D000E23C95E140096B0002933
:1052500008DA0C22B35E00222A601B0611D48023D8
:10526000DB000FE06A4600F071F90028F1DBF02363
:1052700001991B021940054BC9184B42594129603D
:10528000EDE740230020236016B070BD00E0FFFF73
:10529000F7B502268B8905000C00334206D02300A7
:1052A00047332360236101236361F7BD6A4601AB85
:1052B000FFF7C6FF009907002800FFF74BF800280A
:1052C00008D10C22A35E9A05EFD4032293431E4318
:1052D000A681E4E70F4BAB628023A28920601343D1
:1052E000A381009B20616361019B002B0DD02800EE
:1052F0000E23E15E00F03CF9002806D00322A389CA
:1053000093431A0001231343A381A0890743A78174
:10531000CBE7C0467D500008C9B28218904201D147
:105320000020704703788B42FBD00130F6E710B5C0
:10533000884202D98B18984203D3002307E08B5C84
:105340008354013AFBD210BDCC5CC45401339A4261
:10535000FAD1F8E710B50248FFF76FFF10BDC0465D
:10536000141E002010B50248FFF768FF10BDC046AC
:10537000141E0020F7B507000E001400002905D107
:105380001100FEF7E7FF05002800FEBD002A03D14B
:10539000FEF774FF2500F7E700F010F90190844252
:1053A00003D835004308A342EED321003800FEF7AE
:1053B000D1FF051EE8D0019B22009C4200D91A00B3
:1053C00031002800FEF79EFE31003800FEF756FF40
:1053D000DAE770B504000D001F2904D91623036015
:1053E0000120404270BD436C002B04D08A009B1802
:1053F0001A68002A08D1200000F032F82A000100C3
:10540000200000F01BF8EDE70020012AEAD0511C33
:1054100003D1162301302360E4E7002428001C6038
:1054200090472000DEE7000010B5034B010018682C
:10543000FFF7CFFF10BDC04618000020002370B555
:10544000064D0400080011002B60FEF70BF8431C0A
:1054500003D12B68002B00D0236070BD181E0020E4
:1054600010B5FDF7FDFF10BD70B50C000E25495FAE
:1054700000F0ACF8002803DB636D1B18636570BD9A
:10548000A389024A1340A381F9E7C046FFEFFFFF5B
:10549000F8B51F008B8905000C001600DB0505D54B
:1054A0000E23C95E0022022300F074F8A389054A86
:1054B00028001340A38132000E23E15E3B0000F080
:1054C0001FF8F8BDFFEFFFFF70B50C000E25495F18
:1054D00000F060F8A389421C03D1054A1340A38160
:1054E00070BD802252011343A3816065F8E7C04676
:1054F000FFEFFFFF10B50E23C95E00F015F810BDD9
:1055000070B50400080011001A000023054D2B603F
:10551000FDF7C4FF431C03D12B68002B00D0236090
:1055200070BDC046181E0020002370B5064D040053
:1055300008002B60FDF7C0FF431C03D12B68002B34
:1055400000D0236070BDC046181E0020002370B537
:10555000064D0400080011002B60FDF7B0FF431C4E
:1055600003D12B68002B00D0236070BD181E0020D3
:10557000002370B5064D040008002B60FDF7A4FF62
:10558000431C03D12B68002B00D0236070BDC046A4
:10559000181E002070B50400080011001A00002336
:1055A000054D2B60FDF792FF431C03D12B68002BA8
:1055B00000D0236070BDC046181E00200B1F1B6862
:1055C000181F002B01DA0B58C018704770B5040083
:1055D000080011001A000023054D2B60FDF750FF55
:1055E000431C03D12B68002B00D0236070BDC04644
:1055F000181E0020F8B5C046F8BC08BC9E4670478F
:0C560000F8B5C046F8BC08BC9E467047D8
:10560C00256C75006D795461736B303300000000AC
:10561C006D795461736B3032000000006465666113
:10562C00756C745461736B00285600080000000000
:10563C00000000000000000000000000000200005C
:10564C001800000000000000000000001C560008BC
:10565C00000000000000000000000000000000003E
:10566C000002000008000000000000000000000024
:10567C0010560008000000000000000000000000B0
:10568C000000000000020000080000000000000004
:10569C000000000020000002000000500008005034
:1056AC0008040204080101010101010307010000C3
:1056BC00010002000400060008000A000C001000A3
:1056CC0020004000800000010000000000000000ED
:1056DC0000000000000000000000000000000000BE
:1056EC0000000000000000000100000002000000AB
:1056FC00030000000400000006000000070000008A
:10570C00080000000900000000000000000000007C
:10571C00000000000000000001000000020000007A
:10572C00030000000400000049444C450000000048
:10573C00782E0008BC2E0008BC2E0008062F00088E
:10574C00122F0008362F0008BC2E0008BC2E0008B3
:10575C00062F0008122F0008546D72510000000033
:10576C00546D7220537663001C0000205245454E48
:10577C0054206D616C6C6F63207375636365656435
:10578C006564002F6D6E742F776F726B737061632D
:10579C00652F776F726B73706163652F4743432D71
:1057AC0031302D706970656C696E652F6A656E6B32
:1057BC00696E732D4743432D31302D706970656CC4
:1057CC00696E652D3333385F3230323131303138D8
:1057DC005F313633343531363230332F7372632FB9
:1057EC006E65776C69622F6E65776C69622F6C6978
:1057FC0062632F7374646C69622F72616E642E63C2
:10580C00002C2066756E6374696F6E3A20006173AC
:10581C0073657274696F6E2022257322206661692C
:10582C006C65643A2066696C6520222573222C20F5
:10583C006C696E65202564257325730A00232D3051
:10584C002B2000686C4C006566674546470030317C
:10585C0032333435363738394142434445460030CB
:10586C0031323334353637383961626364656600FA
:10587C00000000000000000000000000000000001C
:10588C00000000000000000000000000000000000C
:10589C0000000000000000000000000000000000FC
:1058AC0000000000000000000000000000000000EC
:1058BC0000000000000000000000000000000000DC
:1058CC0000000000000000000000000000000000CC
:0458DC00E9000008D7
:0458E000C1000008FB
:1058E400004400400100000004000000001BB70059
:1058F40037000000AAAAAAAA1C0000200000000089
:105904009C580008BC5800087C580008000000009F
:105914000000000000000000000000000000000083
:105924000000000000000000000000000000000073
:105934000000000000000000000000000000000063
:105944000000000000000000000000000000000053
:0C59540000000000000000000000000047
:040000050800405D52
:00000001FF
