:020000040800F2
:1000000000300020F12B0008412C0008FD030008FF
:1000100000000000000000000000000000000000E0
:10002000000000000000000000000000B5280008EB
:10003000000000000000000021290008FF03000864
:10004000412C000800000000412C000815040008A5
:100050001D040008412C0008412C00081F04000862
:1000600000000000412C0008412C0008412C000831
:10007000412C0008412C0008412C00080000000021
:10008000412C00080000000000000000412C000886
:1000900000000000412C0008412C0008412C000801
:1000A00000000000412C000800000000412C000866
:1000B000412C0008000000000000000000000000CB
:1000C00010B5064C2378002B07D1054B002B02D02E
:1000D000044800E000BF0123237010BD1800002079
:1000E00000000000B02C0008044B10B5002B03D01A
:1000F0000349044800E000BF10BDC04600000000F6
:100100001C000020B02C0008002243088B4274D34E
:1001100003098B425FD3030A8B4244D3030B8B4208
:1001200028D3030C8B420DD3FF22090212BA030C11
:100130008B4202D31212090265D0030B8B4219D3F2
:1001400000E0090AC30B8B4201D3CB03C01A524112
:10015000830B8B4201D38B03C01A5241430B8B425A
:1001600001D34B03C01A5241030B8B4201D30B0343
:10017000C01A5241C30A8B4201D3CB02C01A52416A
:10018000830A8B4201D38B02C01A5241430A8B422D
:1001900001D34B02C01A5241030A8B4201D30B0216
:1001A000C01A5241CDD2C3098B4201D3CB01C01A30
:1001B000524183098B4201D38B01C01A524143093A
:1001C0008B4201D34B01C01A524103098B4201D328
:1001D0000B01C01A5241C3088B4201D3CB00C01A95
:1001E000524183088B4201D38B00C01A524143080D
:1001F0008B4201D34B00C01A5241411A00D2014632
:10020000524110467047FFE701B5002000F006F8A4
:1002100002BDC0460029F7D076E770477047C04658
:1002200072B6FEE700B58DB01C22002105A802F0D1
:1002300036FD14220021684602F031FD11490B6899
:1002400007229343063A13430B60059280235B0217
:10025000069305A800F0B2FA00280FD107230093F7
:10026000063B019300230293039304930121684604
:1002700000F030FC002803D10DB000BDFFF7D0FF27
:10028000FFF7CEFF0020024010B500F021FAFFF783
:10029000C9FF00F021F802F0C3F900F085F8002052
:1002A00000F026F90121002000F064F90949E1235A
:1002B0005B020B6000234B600B814B818B81002024
:1002C00000F0C0F9002801D0FFF7AAFF02F0D0F932
:1002D000FEE7C04634000020F0B589B014220021AA
:1002E00003A802F0DCFC244B596B04221143596330
:1002F000596B0A400092009A5A6B20273A435A637E
:100300005A6B3A400192019A5A6B01252A435A636B
:100310005B6B2B400293029BA026F6050022202156
:10032000300000F013FE80239B010393134B0493D2
:100330000024059403A9124800F02AFD0C2303931E
:100340000A3B049305940694079503A9300000F036
:100350001FFD039704950594069403A9300000F04F
:1003600017FD00220021072000F0D0F9072000F03F
:10037000FDF909B0F0BDC0460010024000001110A8
:100380000008005010B5FA20800002F01DFAFAE7CC
:1003900010B5FA20800002F017FAFAE710B5FA203B
:1003A000800002F011FAFAE710B50B4A00210B4861
:1003B00002F092F90A4B18600A4A00210A4802F03A
:1003C0008BF90A4B18600A4A00210A4802F084F9A6
:1003D000094B186010BDC046EC2C000885030008CE
:1003E00044000020102D0008910300084800002060
:1003F000342D00089D0300084C000020FEE710B5D6
:1004000000F072F901F040FF012800D110BD02F0A8
:10041000A9FAFBE710B500F04DFC10BD704710B510
:100420008020800100F09AFD10BD000000B583B06F
:10043000144B196C012211431964196C0A40009283
:10044000009ADA6B802149050A43DA63DB6B0B40C3
:100450000193019B022000220321404200F056F943
:1004600000220021032000F051F9032000F07EF962
:1004700000220021042000F049F9042000F076F960
:1004800003B000BD0010024070B588B0174B5A6B26
:10049000012422435A635A6B22400092009A5A6BFD
:1004A00022435A635A6B22400192019ADA6B8021EF
:1004B00089020A43DA63DB6B0B400293029B04233D
:1004C000039302250495069505940794A026F60546
:1004D00003A9300000F05CFC082303930495079403
:1004E00003A9300000F054FC08B070BD00100240B9
:1004F00070B588B00400012832D800281DD11A4AEE
:10050000516B012319435163526B13400193019BBB
:100510006300164A9E5A0396012304930023059311
:1005200003330693A300124A985803A900F030FC45
:10053000012C0CD0002008B070BD0B4A516B042375
:1005400019435163526B13400293029BE0E7A400EE
:10055000074BE0580122310000F0F8FC0020EAE7E8
:1005600002204042E7E7C04600100240582D000834
:100570005C2D000810B586B004001C4A506B0423A3
:1005800018435063526B13400093009B80239B01E0
:1005900001930123039301330493002908D100231D
:1005A000029301A9124800F0F3FB002006B010BD31
:1005B000104B029301A90E4800F0EAFB60000419F9
:1005C000A4000D4804190D49200000F0F1FC0C4A6C
:1005D0000021200000F0DAFC00220F21072000F0AB
:1005E00095F8072000F0C2F8DFE7C046001002408F
:1005F0000008005000002110E40000200D0000065B
:1006000007060008704710B50020FFF7FBFF10BD7C
:1006100010B50B4B1B6803600B6843600C234361F0
:100620004B8903614B6883600B89C3608B8983614D
:1006300080231B02C3610023436200F003FF10BD4F
:100640000000002070B50D0000280DD19424444313
:10065000084824182000FFF717FF29002000FFF7A3
:10066000D7FF002803D170BD02204042FBE70420E1
:100670004042F8E75000002010B50400114B1978F3
:10068000002901D1012010BDFA208000FFF73CFDB8
:1006900001000D4B1868FFF737FD00F073F80028D4
:1006A0000DD1032C01D90120EDE7013000222100FA
:1006B000404200F02BF8054B1C600020E3E70120CE
:1006C000E1E7C046040000200C00002008000020E4
:1006D00010B50320FFF7D0FF041E02D00124200034
:1006E00010BDFFF7A3FEFAE7034B1B78034A11681E
:1006F0005B1813607047C04604000020F000002023
:10070000014B18687047C046F000002070B5002803
:1007100011DB8308134EC0339B009D5903242040F6
:10072000C000FF2214008440A54389010A40824092
:100730002A439A5170BD0F230340083B9B080633A0
:100740009B00094A944663445C6803221040C00041
:10075000FC3215008540AC4389010A4082402243A7
:100760005A60E7E700E100E000ED00E0002805DB6B
:100770001F2318401E3B8340014A13607047C04648
:1007800000E100E0013880235B0498420FD2094A5F
:1007900050600948036A1B021B0AC02109060B436B
:1007A0000362002393600733136000207047012029
:1007B000FCE7C04610E000E000ED00E070B5041E6C
:1007C00000D139E10368DB072CD5A14B9A683823A7
:1007D0001340082B22D043688022520293422ED02D
:1007E000A022D202934231D0994B1A6899490A400B
:1007F0001A601A6898490A401A606368002B31D061
:10080000FFF77EFF0500924B1B689B030AD4FFF79E
:1008100077FF401B6428F6D903200EE14368002BC4
:1008200000D10BE123689B0747D5894B9B68382291
:100830001A4261D1E368002B22D10120FDE0844AF5
:10084000116880235B020B431360D6E7804B196865
:100850008022D2020A431A601968802252020A4397
:100860001A60CAE7FFF74CFF0500794B1B689B0332
:10087000D8D5FFF745FF401B6428F6D90320DCE0FC
:10088000734B5A6875490A40616909020A435A6004
:100890001A6873490A4021690A431A601B68DB0A17
:1008A00007221A406F4BD3406F4A13606F4B186892
:1008B000FFF7E2FE002800D0C2E023681B0757D5EF
:1008C000634B9A6838231340182B4ED0A369002B32
:1008D00077D05F4A136E01210B431366FFF710FFB9
:1008E00005005B4B1B6E9B0742D4FFF709FF401BC3
:1008F0000228F6D90320A0E0E368002B22D0544A56
:10090000136857490B4021690B431360116880231A
:100910005B000B431360FFF7F3FE05004C4B1B68B5
:100920005B0506D4FFF7ECFE401B0228F6D9032036
:1009300083E047494B68494A1340626912021343F6
:100940004B60BAE7424A136849490B401360FFF70E
:10095000D7FE05003E4B1B685B05AED5FFF7D0FE0A
:10096000401B0228F6D9032067E0A369002B69D059
:1009700023685B0768D5364B9A6838231340202BD1
:1009800032D0A368012B34D0052B38D0304BDA6D30
:1009900001218A43DA65DA6D03318A43DA65A36897
:1009A000002B38D0FFF7ACFE0400294BDB6D9B0712
:1009B0002FD4FFF7A5FE001B2E4B9842F5D903203C
:1009C0003BE0234A136E01218B431366FFF798FE29
:1009D00005001F4B1B6E9B07CAD5FFF791FE401BFE
:1009E0000228F6D9032028E0A368002B2ED000208F
:1009F00023E0174AD36D01210B43D365CFE7144B96
:100A0000DA6D04210A43DA65DA6D03390A43DA65DF
:100A1000C5E7002011E0FFF773FE04000C4BDB6D0F
:100A20009B0707D5FFF76CFE001B124B9842F5D9C8
:100A3000032002E0002000E0012070BD0120FCE75F
:100A40000120FAE70120F8E70020F6E70120F4E7AB
:100A500000100240FFFFFEFFFFFFFBFFFF80FFFFD4
:100A6000FFC7FFFF006CDC020C0000200800002024
:100A7000FFFEFFFF88130000144B9B6838221A42C8
:100A800007D1124B1A68D20A072313401048D840E6
:100A900070470E4B9A6838231340082B10D00B4B2D
:100AA0009A6838231340202B0CD0084B9A683823BF
:100AB0001340182B01D00020EAE7FA20C001E7E735
:100AC0000348E5E780200002E2E7C046001002404C
:100AD000006CDC0270B504000D00002800D1A4E019
:100AE000544B1A68072313408B4221D323689A077B
:100AF00010D55B0707D550498B68504A1A40B02380
:100B00001B0113438B604C4A93684D490B40E168CD
:100B10000B4393602368DB074CD56368012B1ED021
:100B2000002B39D1444A126852051CD4012064E0DC
:100B3000404A136807218B432B431360FFF7E0FD06
:100B400006003C4B1A6807231340AB42CED0FFF798
:100B5000D7FD801B3B4A9042F3D903204DE0364A33
:100B60001268920363D534498A680720824313438D
:100B70008B60FFF7C5FD06002F4B9B6838221A409B
:100B80006368DB009A4215D0FFF7BAFD801B2D4B3E
:100B90009842F1D9032030E0032B05D0264AD26DCC
:100BA0009207E0D4012028E0234A126E9207DAD49B
:100BB000012022E01F4B1A6807231340AB421DD8C7
:100BC00023685B0706D51C4A93681F490B402169BF
:100BD0000B439360FFF750FF174B9A68120A0F23DD
:100BE00013409B00194A9A581F231340D840184BB2
:100BF0001860184B1868FFF73FFD70BD0D4A136869
:100C000007218B432B431360FFF77AFD0600094B46
:100C10001A6807231340AB42D2D0FFF771FD801B47
:100C2000084B9842F3D90320E7E70120E5E70120CC
:100C3000E3E7C0460020024000100240FF84FFFFAF
:100C4000FFF0FFFF88130000FF8FFFFF7C2D0008DF
:100C50000C0000200800002010B5FFF70DFF074B27
:100C60009A68120A0F2313409B00054A9A581F23C3
:100C70001340D840034B186010BDC046001002401E
:100C80007C2D00080C00002010B5FFF7E5FF064B97
:100C90009A68120B072313409B00044A9A581F239B
:100CA0001340D84010BDC04600100240BC2D0008C3
:100CB0007047704710B52A4A11692A4B0B40516999
:100CC0002948806881435161284A104221D0264A30
:100CD000D468002B26D1224B1B69DB070CD5204B97
:100CE00001221A61204B9B68022B27D01E4B002249
:100CF0009A602000FFF7DCFF1B4B9B68002B07D19D
:100D0000174A53691A490B405361174B00221A7056
:100D100010BD0622024202D0134A1469D9E7012409
:100D20006442D6E7104A5168194351600C490B617F
:100D3000002393602000FFF7BCFFCCE70A4A536909
:100D4000013B5361002B03D1074B00229A60D0E78F
:100D500013001269501C186100F00CF8C9E7C04676
:100D600000200240FAC30000F4000020010004004B
:100D7000FFFFFFFC044A536978218B43C0001843EE
:100D8000024B1843506170470020024002000100EE
:100D9000F0B5D6464F464646C0B500233BE0052594
:100DA00000E00025A5402C003C43634D1832920022
:100DB00054518022AC584A46D24325004E46B54392
:100DC0004E68F60302D54D462C4325005A4C802729
:100DD000E55184256459250015404E68B60302D5B7
:100DE0004D462C432500544C8427E55124682500AA
:100DF00015404E68F60202D54D462C4325004E4C58
:100E00002560646822404D68AD0201D54A46224300
:100E1000494C626001330C682200DA4000D186E060
:100E200001229A4026001640B1461442F2D04C6886
:100E3000022C01D0122C18D1DD080835AD002C5839
:100E4000A44607271F40BF000F24A2462600BE402D
:100E5000B04666464446A643B4460C69564626400C
:100E60003400BC40664634432C500468A4465D0000
:100E70000324A2462700AF40B846FF4366464446D7
:100E8000A643B4464C68564626403400AC406646FD
:100E9000344304604C68661E012E03D9112C01D026
:100EA000122C12D184683C40A446CC68AC40664603
:100EB00034438460446894434A681209944601228A
:100EC000664632409A40224342604A68032A05D06F
:100ED000C2683A408F68AF401743C7604A68D20083
:100EE00098D59A0814001834A400134D67590325A7
:100EF0001D40EC000F25A540AF43A025ED05A842FD
:100F000000D14EE70D4DA8420BD00D4DA8420AD09E
:100F10000C4DA84209D00C4DA84200D13FE7062550
:100F200040E701253EE702253CE703253AE7E0BC20
:100F3000BA46B146A846F0BD001802400004005071
:100F400000080050000C005000140050002A01D08E
:100F5000816170478162FCE77047704710B50400FB
:100F6000094BDB68184204D1074B1B69234205D1AA
:100F700010BD054BD860FFF7EFFFF5E7024B1C6192
:100F80002000FFF7EAFFF3E700180240012909D02B
:100F900002290AD0002901D00120704742608260F6
:100FA0000800FAE742600020F7E782600020F4E7DB
:100FB000002802D00160002070470120FCE70000FB
:100FC00030B5EFF31084012282F3108801680B68BA
:100FD000124D2B400B6084F31088EFF3108182F3E5
:100FE0001088026893680E4C2340936081F3108848
:100FF000C36E012B06D08C232022C2500023C3666F
:10100000436730BDEFF3108183F3108802681368E3
:101010001024A343136081F31088ECE7DFFEFFFF89
:10102000FEFFFFEF7047000010B5040083680269FF
:10103000134342691343C269134301680A68634852
:10104000024013430B602268536861490B40E1681A
:101050000B435360226AA3691A4321688B685D4879
:10106000034013438B602268D36A0F218B43616A6C
:101070000B43D3622368584A93421BD0574A93428A
:1010800029D01023E0698022120290422DD0042B37
:1010900000D194E068D8002B00D18AE0022B61D106
:1010A0004F4B1B685B090721194001314D48FFF781
:1010B0002BF880E04A4B5A6D03231340022B0CD0CF
:1010C00005D8002B0BD0012B0BD10333DAE7032B10
:1010D00009D10533D6E70023D4E70223D2E7002362
:1010E000D0E71023CEE71023CCE7042B37D00FD85E
:1010F000002B2ED0022B09D1394B1B685B0907212D
:10110000194001313748FEF7FFFF24E0012047E096
:10111000082B1CD1636A5B00334A995AFEF7F4FF2F
:10112000400063685B08C0186168FEF7EDFF0200CD
:10113000103A2E4B9A4245D882B20F239A43400868
:10114000083B184010432368D860002028E00120A5
:1011500026E0FFF799FD0028DCD1002020E0FFF712
:101160008BFCF8E701201BE0082B18D1802000023F
:10117000636A5B001C4A995AFEF7C6FF63685B0806
:10118000C0186168FEF7C0FF0200103A174B9A4280
:101190001AD823680004000CD860002000E0012069
:1011A00001236A22A352023AA35200236367A36772
:1011B00010BDFFF769FD0028DAD10020F0E7FFF746
:1011C0005BFCF8E70120EBE70120E9E7F369FFCFDB
:1011D000FFCFFFFFFFF4FF11003801400044004043
:1011E00000100240006CDC02642D0008EFFF0000DC
:1011F000836A1B0706D5026853682C490B40816B34
:101200000B435360836ADB0706D50268536828499D
:101210000B40C16A0B435360836A9B0706D5026883
:10122000536824490B40016B0B435360836A5B078F
:1012300006D50268536820490B40416B0B4353604D
:10124000836ADB0606D5026893681C490B40C16BB4
:101250000B439360836A9B0606D50268936818491E
:101260000B40016C0B439360836A5B060BD50268ED
:10127000536814490B40416C0B43536080235B035C
:10128000426C9A420AD0836A1B0606D502685368EC
:101290000D490B40C16C0B435360704702685368A3
:1012A0000A490B40816C0B435360ECE7FF7FFFFF63
:1012B000FFFFFDFFFFFFFEFFFFFFFBFFFFEFFFFF55
:1012C000FFDFFFFFFFFFEFFFFFFFF7FFFFFF9FFFC6
:1012D000F8B5CE46474680B506000D001700994682
:1012E000089B98463368DC692C40641B63425C4170
:1012F000BC4233D143460133F4D0FFF701FA4B46E9
:10130000C01A40452FD84346002B2ED033681A68A8
:101310005207E7D5802DE5D0402DE3D0DA691207DA
:1013200010D4DA691205DDD5802212011A6230006C
:10133000FFF746FE90232022F2500C3B0022F2548D
:1013400003200CE008241C623000FFF739FE9023D4
:10135000F4500C3B0022F254012000E00020C0BCFD
:10136000B946B046F8BD0320F9E70320F7E70000CF
:1013700030B583B0040090230022C250FFF7C0F9BB
:10138000050022681268130710D423681B685B07E6
:101390002BD420238822A3500432A3500023E366D9
:1013A0002367083AA354002003B030BD8021234BAB
:1013B00000930300002289032000FFF789FF002823
:1013C000E3D0EFF31081012383F3108822681368C0
:1013D00080208343136081F3108888232022E25009
:1013E000043B0022E2547D38DEE78021134B00935A
:1013F0002B000022C9032000FFF76AFF0028C8D095
:10140000EFF31080012282F3108821680B680C4DE5
:101410002B400B6080F31088EFF3108082F310886C
:1014200021688B6893438B6080F310888C231F3274
:10143000E250083B0022E2540320B5E7FFFFFF0122
:10144000DFFEFFFF10B5041E30D08823C358002BE9
:1014500022D088232422E2502268136801218B4382
:101460001360A36A002B1DD12000FFF7DDFD0128CA
:1014700011D0226853680E490B405360226893686C
:101480002A218B4393602268136829390B43136028
:101490002000FFF76DFF10BD84330022C254FFF718
:1014A000C1FDD6E72000FFF7A3FEDDE70120F2E74C
:1014B000FFB7FFFF024B802212059A607047C046BB
:1014C00000ED00E0030008334360012252428260D5
:1014D000C36003610023036070470023036170470A
:1014E00030B50C68631C10D0030008331A005B6829
:1014F0001D68A542FAD953684B6099608A605160B3
:10150000086103680133036030BD0269F3E70369D2
:10151000416882688A60416851605A68824206D098
:10152000002202611A68013A1A60186870478268DE
:101530005A60F5E710B5040001F0CAF9A36B002B5F
:1015400004D1012401F0D0F9200010BD0024F9E7F6
:1015500010B5030008001A6C002A0AD0D96889184F
:10156000D9609C68A14201D31968D960D96801F09B
:101570008DFB10BD70B5050001F0AAF94523EC5CA8
:1015800064B201E0013C64B2002C0BDD6B6A002BFD
:1015900008D02800243000F0BBFD0028F2D000F075
:1015A0006DFEEFE74523FF22EA5401F09DF901F0BB
:1015B0008FF94423EC5C64B201E0013C64B2002C7E
:1015C0000BDD2B69002B08D02800103000F0A0FDA7
:1015D0000028F2D000F052FEEFE74423FF22EA5445
:1015E00001F082F970BDF8B504000D0000280FD09D
:1015F000C36B002B0AD0026C0026170C190C002FAD
:101600000AD188B2002805D1002E16D072B6FEE7A6
:1016100072B6FEE7101C04E089B200290BD1391C18
:10162000181C92B29BB2534380B289B241431B0C47
:10163000CB181B0CE8D00126E6E701F049F9226837
:10164000E36B206C010059435118A1600021A16394
:101650006260013B4343D318E360FF234422A35459
:101660000132A354002D0FD12369002B03D101F0C7
:101670003BF90120F8BD2000103000F049FD0028A2
:10168000F5D001F019F9F2E720001030FFF71AFF4A
:1016900020002430FFF716FFE9E770B51D00049C19
:1016A000002909D12460E063216401212000FFF7B3
:1016B0009AFF4C23E55470BD2260F4E770B584B006
:1016C0001C0008AB1B78002C0ED0002810D0002A7C
:1016D00001D000290CD0002A08D050250395039D85
:1016E000502D07D072B6FEE772B6FEE70029F4D09F
:1016F00072B6FEE7039D4625012666550094FFF766
:10170000CCFF200004B070BDF0B585B004000F0020
:10171000019200280AD000290AD000F0B5FD061E6B
:101720000BD1019B002B42D072B6FEE772B6FEE7EA
:10173000036C002BF1D072B6FEE7002637E03900CB
:101740002000FFF705FF013DA5632369002B04D1AD
:1017500001F0CAF8012005B0F0BD2000103000F003
:10176000D7FC0028F4D001F0A7F8F1E701F0BCF8AD
:101770000020F0E702A800F03FFD013621E04423FD
:101780000022E25428E045230022E25429E0200010
:10179000FFF7F0FE00F088FB09E02000FFF7EAFE0B
:1017A00000F082FB2000FFF7C5FE002835D101F0D4
:1017B0008FF8A56B002DC2D1019B002BD6D0002E37
:1017C000D8D001F091F800F0AFFA01F081F844238D
:1017D000E35C5BB20133D2D04523E35C5BB20133FF
:1017E000D1D001F081F801A902A800F011FD002874
:1017F000D3D12000FFF79EFE0028C8D0200024305F
:10180000019900F04FFC2000FFF7B4FE00F04CFB04
:101810000028CCD101F050F8C9E700209BE7000078
:1018200030B5002804D000290AD00025002309E0A3
:1018300072B6FEE70C4D2D19002D01D029606860AD
:1018400030BD0133072BF7D8DC00074A1219526864
:101850008242EFD0002DF4D1DA00034C1259002A55
:10186000EFD1DA00A518ECE70C01002070B50400F8
:101870000D00160001F02CF84423E35C5BB2013349
:101880000DD04523E35C5BB201330CD001F02CF8A2
:10189000A36B002B0BD02000FFF76CFE70BD442320
:1018A0000022E254EDE745230022E254EEE7200057
:1018B00024303200290000F007FCECE7084B1B68DD
:1018C0001B68002B04D1074B012252421A6070475B
:1018D000034B1B68DB681A68024B1A60F7E7C046C7
:1018E00050010020F8050020F0B583B001900E00F3
:1018F00014001D000A9F9200A521386B01F0CFF95A
:101900001D4BE3189B003A6B9446634407229343B4
:101910001C00002E0ED000220F2A08D8B15CBB1884
:1019200034331970B35C002B01D00132F4E7432348
:101930000022FA54089B372B01D972B6FEE7089BA8
:10194000FB62FB64381DFFF7C8FD38001830FFF755
:10195000C4FD3F613823089A9B1ABB617F622A004D
:101960000199200000F096FF3860099B002B00D001
:101970001F6003B0F0BDC046FFFFFF3F70B50024FD
:1019800007E0A3001B1998000E4BC018FFF79AFD43
:101990000134372CF5D90C4D2800FFF793FD0B4C83
:1019A0002000FFF78FFD0A48FFF78CFD0948FFF77D
:1019B00089FD0948FFF786FD084B1D60084B1C6038
:1019C00070BDC04658010020CC050020E005002075
:1019D00004060020300600201C06002050010020D4
:1019E0005401002010B5040000F072FF284A13686B
:1019F00001331360274B1B68002B0CD0264B1B6850
:101A0000002B0DD1234B1B68DB6AE26A934207D897
:101A1000204B1C6004E01F4B1C601368012B31D06D
:101A20001E4A1368013313606364E26A1C4B1B682F
:101A30009A4201D91A4B1A601A4993009B189B00CD
:101A4000CB185B68A3609868E060221D42609A60D2
:101A5000E06A83001A189200521862611A18920004
:101A6000525801321B189B005A5000F03DFF0A4BA0
:101A70001B68002B05D0074B1B68DA6AE36A9A42A1
:101A800003D310BDFFF77AFFCAE700F015FFF8E7B0
:101A9000B80500204C01002018060020C4050020D5
:101AA000C80500205801002010B504005923C35C6C
:101AB000002B05D0012B0AD0022B07D072B6FEE70F
:101AC000006B01F065F8200001F062F810BD01F034
:101AD0005FF8FBE710B514E000F0FAFE0B4BDB6893
:101AE000DC68201DFFF713FD094A1368013B1360F2
:101AF000084A1368013B136000F0F6FE2000FFF770
:101B0000D3FF044B1B68002BE6D110BD300600202C
:101B1000B8050020BC05002010B5FFF7DBFF034B24
:101B20001B68012BF9D900F0C7FEF6E75801002029
:101B300070B504000D001D4B1E681D4B1868043065
:101B4000FFF7E5FC631C0DD03419194B1B685C6072
:101B5000A6421DD9174B1868154B19680431FFF7B9
:101B6000BFFC70BD002DEFD0134A5168104B1868B0
:101B7000816018688C68C4601868043060601868F8
:101B8000043088601B685A61136801331360E8E70A
:101B90000A4B1868064B19680431FFF7A1FC084B83
:101BA0001B68A342DDD9064B1C60DAE7440600201F
:101BB0004C010020540100201C0600205001002090
:101BC000F8050020F0B587B004000D0016001F00D6
:101BD0000D9B002B09D00E9B002B08D05C23049397
:101BE000049B5C2B05D072B6FEE772B6FEE772B6B8
:101BF000FEE7049B5C2200210E9801F050F80E9B3A
:101C00000D9A1A63592302220E99CA540023039392
:101C1000029105AB01930C9B00933B00320029001D
:101C20002000FFF761FE0E98FFF7DCFE059807B075
:101C3000F0BDF0B587B00490059116001F0090002C
:101C400000F030FF041E23D05C2000F02BFF051EA7
:101C50001AD05C22002101F022F82C63002D1BD049
:101C600000235922AB54039302950D9B01930C9BC7
:101C700000933B00320005990498FFF735FE2800D9
:101C8000FFF7B0FE012005E0200000F081FFE5E74E
:101C90000120404207B0F0BD01204042FAE70000B9
:101CA00010B588B000240594069407AA06A905A8D3
:101CB00000F0AAFD059B0293069B0193009400236C
:101CC000079A12491248FFF77DFF124B186000284F
:101CD00009D000F077FC012807D0431C13D00E4B2D
:101CE0001B6808B010BD0020F5E772B60B4B01224F
:101CF00052421A600A4B02321A600A4B00221A60E2
:101D000000F05CFEEBE772B6FEE7C046DC2D000893
:101D1000191B0008F405002010000020F805002021
:101D20001806002044060020024A1368013313609D
:101D30007047C046C0050020014B18687047C04678
:101D400044060020F8B54D4B1B68002B00D08FE0F7
:101D50004B4B1E6801361E60002E12D1494B1B688A
:101D60001B68002B01D072B6FEE7464A1168464B4D
:101D7000186810601960454A136801331360FFF753
:101D80009DFD434B1B68B34211D90020414B1B689A
:101D9000DA6A93009B189A003F4BD358012B00D965
:101DA00001203E4B1B68002B67D0012065E000201E
:101DB00033E0374B012252421A60E7E7344B1A6096
:101DC000E4E7D96851603EE0002199621168013969
:101DD0001160DA6A324909688A4201D930490A60D9
:101DE0002D499400A418A2008A1852689A60946839
:101DF000DC6065609560DC6AA2001719BD006D1893
:101E00005D61BD006D580135BC006550DA6A214B3B
:101E10001B68DB6A9A4200D901201A4B1B681B68B9
:101E2000002BC6D0174B1B68DB68DB685A689642EC
:101E3000C4D35A699C68D968A1609C684C601D1D18
:101E40005168A942BDD00021596111680139116062
:101E50009A6A002ABDD0DC69196AA160DC694C600D
:101E60001900183154688C42AED1196A5160ABE741
:101E70000C4A1368013313600020F8BDC005002030
:101E8000440600205001002054010020FC050020E1
:101E9000F80500204C0100205801002048060020D1
:101EA000C80500200006002010B5474B1B68002B1A
:101EB00001D172B6FEE700F00BFD434B1A68013A00
:101EC0001A601B68002B7AD1404B1B68002B07D18E
:101ED000002475E0196A516015E0D968516021E06D
:101EE00000233B4A1268002A4AD0394BDB68DB6882
:101EF0009A6AD869196A8160D869486019001831EE
:101F000050688842E6D00021996211680139116059
:101F10005A699868D9688160986848601C1D516842
:101F2000A142DAD000215961116801391160D96AE2
:101F3000284A1268914201D9264A116026488A002F
:101F400052189200821852689A609168D9604C6069
:101F50009460DC6AA20011198900091859611119ED
:101F60008900095801311219920011501B4A126858
:101F7000D26AD96A9142B4D9194A01211160B0E7F5
:101F8000002B01D0FFF79AFC164B1C68002C0AD1DD
:101F9000134B1C68002C13D000F08EFC01240FE0C2
:101FA000013C002C07D0FFF7CDFE0028F8D00C4BE9
:101FB00001221A60F4E70B4B00221A60E8E70024C4
:101FC00000F092FC200010BDC0050020B8050020E4
:101FD00004060020C8050020580100204C01002004
:101FE000480600200006002010B5041E0FD0094B43
:101FF0001B68002B01D072B6FEE7FFF795FE0021AB
:102000002000FFF795FDFFF74FFF002801D100F0FA
:1020100053FC10BDC005002030B51D4B1B68002BC4
:1020200003D01C4B01221A6030BD1A4B00221A60EB
:10203000194B1B689A00D2189100184A8A58002A36
:1020400005D1002B01D0013BF4E772B6FEE7134D3A
:102050009900CA1890002818426854684460C9184A
:102060008A000832521994420BD09A00D21891007B
:102070000A4A52185268D168094A1160064A136028
:10208000D2E79900C91888002A18D1685160ECE796
:10209000C005002048060020C80500205801002087
:1020A0004C01002010B50C00002809D0054B196820
:1020B0001831FFF715FA01212000FFF739FD10BD97
:1020C00072B6FEE74C01002070B503000800110055
:1020D000002B18D05C680D4A1568EC611568A6687D
:1020E0002E6215681835756015681835A560126878
:1020F00093621A6801321A60002901D0012040421F
:10210000FFF716FD70BD72B6FEE7C0464C01002019
:1021100010B5C368DB68002B4CD09A6AD869196A7D
:102120008160D8694860180018305168814243D0F6
:1021300000219962116801391160294A1268002A48
:1021400040D15A699868D9688160986848601C1DB8
:102150005168A14233D000215961116801391160E1
:10216000D96A204A1268914201D91E4A11601E485C
:102170008A0052189200821852689A609168D96059
:102180004C609460DC6AA200111989000918596139
:102190001119890009580131121992001150DA6A97
:1021A000124B1B68DB6A9A4218D9114B01221A6044
:1021B000012010BD72B6FEE7196A5160B8E7D96810
:1021C0005160C8E70B4A5168D9618C681C62606035
:1021D00088609A62116801311160E0E70020E8E749
:1021E000C0050020C8050020580100204C01002037
:1021F0004806002004060020034B1B680360034BC5
:102200001B6843607047C046FC0500204406002060
:10221000F8B504000D00002815D0002915D000F0F5
:1022200057FB144B19686368C81A2A68561C1CD0DF
:10223000114E36682768B74209D08B4207D8002371
:102240002B60012412E072B6FEE772B6FEE782420E
:1022500003D800232B60012408E05B1A9B182B6035
:102260002000FFF7C9FF002400E0002400F03CFB41
:102270002000F8BD44060020FC050020014B01228F
:102280001A60704748060020064B1B68002B07D0D9
:10229000054B1B68002B01D0002002E0022000E06B
:1022A0000120704718060020C0050020074B1A685F
:1022B0001368002B06D101330360002B04D1D368CF
:1022C000186870470023F7E70020FAE74C06002063
:1022D00010B54160006191420CD8D21A83699A42CC
:1022E00001D3012010BD011D094B1868FFF7F8F854
:1022F0000020F7E79A4201D2994206D2011D054B10
:102300001868FFF7EDF80020ECE70120EAE7C04687
:10231000500600204C06002070B504000D00160089
:1023200005E0A3699C4665442000236A9847A36999
:1023300059192B0032002000FFF7CAFF0028F0D106
:1023400070BD000070B505000E000C4B1B68DB680B
:10235000DC68201DFFF7DBF82823E35C5A0707D46D
:10236000012293432732A354236A2000984770BD6B
:10237000320029002000FFF7CFFFF5E74C060020D0
:1023800010B505E0DB68186801214942FFF7DAFF64
:10239000054B1B681A68002AF4D1044A02491068E8
:1023A0000860136010BDC0464C0600205006002097
:1023B00070B50500FFF7C0FC0400074B1B688342A3
:1023C00005D800232B60044B1C60200070BDFFF774
:1023D000D7FF01232B60F6E71C07002070B582B001
:1023E00004000D00FFF7A0FC01A8FFF7E1FF0600C5
:1023F000019B002B23D1002D01D1A04213D2002D2F
:1024000005D0104A12681268002A13D10125A11BB9
:102410000D4B18682A00FFF729FAFFF745FD002841
:102420000AD002B070BDFFF73FFD31002000FFF77A
:1024300089FFF6E71D00EAE700F03EFAF1E7FFF753
:1024400033FDEEE7500600207007002030B587B05E
:1024500002E0029B002B0FDA364B1868002202A91B
:10246000FFF752F9002863D0029B002BF1DA039B9F
:10247000059904989847ECE7049C6369002B02D007
:10248000201DFFF744F801A8FFF792FF0500029B0B
:10249000092BE1D89B00284AD3589F462822A35CE9
:1024A00001210B43A3540399A3699C466144039BF8
:1024B00002002000FFF70CFF0028CDD02823E35CAA
:1024C0005A0707D4012293432732A354236A2000DA
:1024D0009847C1E70399A3699C4661442A002000FC
:1024E000FFF71AFFF2E72822A35C01218B43A354D4
:1024F000B2E72822A35C01210B43A3540399A161F5
:10250000002906D00918030002002000FFF7E0FEB2
:10251000A2E772B6FEE72823E35C9A0704D50122FE
:1025200093432732A35497E7200000F031FB93E751
:1025300007B030BD70070020E42D000800B583B05F
:1025400001A8FFF7B3FE0199FFF748FFFFF77EFFF1
:10255000F6E7000030B583B000F0BAF9114B1B6804
:10256000002B03D000F0C0F903B030BD0E4D2800A1
:10257000FEF7A8FF0D4C2000FEF7A4FF0C4B1D60DA
:102580000C4B1C60002300930B4B0C4A10210A20BB
:10259000FFF794F8034B18600028E3D00849FFF7D1
:1025A0003FF9DFE770070020F4060020080700204D
:1025B0004C06002050060020200700205406002072
:1025C0000C2E000800B589B0FFF7C4FF104B1B6844
:1025D000002B1AD000230593069307AA06A905A885
:1025E00000F01EF9059B0293069B019302230093C2
:1025F0000023079A07490848FFF7E4FA074B1860D9
:10260000002802D0012009B000BD72B6FEE7C04626
:1026100070070020142E00083D25000874070020D4
:1026200010B5EFF30584002C0DD00124002C14D13B
:10263000FFF72AFE012813D10C4B1868002812D18D
:1026400001221A6010BDFFF71FFE0128EED0EFF344
:102650001084002CEAD00124E8E706204042F1E78C
:1026600001204042EEE701204042EBE7D409002080
:1026700010B5EFF30584002C16D00124002C1DD1D9
:10268000FFF702FE01281CD1114B1B68012B1BD147
:10269000104AD3691B021B0AD3610D4B02221A6038
:1026A000FFF7FEFA002010BDFFF7EEFD0128E5D090
:1026B000EFF31084002CE1D00124DFE70620404234
:1026C000F1E701204042EEE701204042EBE7C0463F
:1026D000D409002000ED00E0F0B587B006000F003F
:1026E000140000230593EFF30585002D26D0012566
:1026F000002D41D1002E3FD0002C34D02168A36999
:10270000002B00D118335A1E372A59D86268D207D5
:1027100058D46569002D1BD0AA089446A0680028EB
:1027200007D0E2685B2A04D92269002A01D0002D73
:1027300025D100280FD00120404219E0FFF7A4FD69
:102740000128D5D0EFF31085002DD1D00125CFE79A
:1027500080229446E2E7E268002A12D12269002A28
:1027600012D0013804E02100002018238022944672
:1027700001280BD0002815D0059807B0F0BD012026
:10278000F6E701204042F3E70020F1E72069A26864
:102790000292019000933B0062463000FFF712FA6C
:1027A0000590E9E7624692B205A8019000933B00CC
:1027B0003000FFF73EFA0128DED000230593DBE767
:1027C0000020DAE70020D8E770B50400EFF30585B4
:1027D000002D06D00125002D12D1002C0BD1002098
:1027E00070BDFFF751FD0128F5D0EFF31085002DE6
:1027F000F1D00125EFE72000FFF7F6FB0020EFE71F
:1028000006204042ECE70000034B0360034B0B60E3
:10281000802313607047C0467809002078070020A5
:10282000034B0360034B0B60802313607047C0466B
:10283000D80B0020D809002082B000230193064B5A
:102840001B68013301D072B6FEE772B6019B002B04
:10285000FCD002B07047C046140000200000000009
:102860000B4A13681868203080F30988022080F32F
:102870001488BFF36F8F3FBCAE4608BC04BC62B681
:102880001847C046C046C046C046C046C046C046BF
:102890004C01002010B5031F802464041C60043B1D
:1028A0001960043B02491960143B1A60403810BD9E
:1028B0003928000870470000044B802252051A6036
:1028C000BFF34F8FBFF36F8F7047C04604ED00E03A
:1028D00072B6044A136801331360BFF34F8FBFF31E
:1028E0006F8F704714000020064B1B68002B01D12E
:1028F00072B6FEE7013B034A1360002B00D162B6BB
:102900007047C04614000020EFF3108072B6704785
:1029100080F31088704700000000000000000000F5
:10292000EFF309800E4B1A6820381060F0C044465F
:102930004D4656465F46F0C008B572B6FFF76CFBD1
:1029400062B60CBC116808681030F0C8A046A946F1
:10295000B246BB4680F309882038F0C81847C04605
:102960004C01002010B5FFF7CFFF0400FFF7EAF994
:10297000002803D0034B802252051A602000FFF785
:10298000C7FF10BD04ED00E010B5084C0023236024
:10299000074A1360074B1868FA218900FDF7B4FB5A
:1029A0000138054B18600723236010BD10E000E0DC
:1029B00018E000E00C00002014E000E010B50C4B23
:1029C0001968FF2212040A431A601968FF221206CE
:1029D0000A431A60FFF7D8FF064B00221A60FFF780
:1029E0003FFFFFF719FBFFF727FF002010BDC04690
:1029F00020ED00E014000020104A53071BD0D11D29
:102A00000723994380235B015B1A9B180A000C483B
:102A1000026000214160D318083B07208343094826
:102A2000036059601960991A51601360064B196070
:102A3000064B1960704780235B01E8E7380C0020E3
:102A4000481C0020340C00203C1C0020381C0020B6
:102A500010B5124B1A001B688342FBD351685418FF
:102A6000844208D041684418A34209D003609042D0
:102A700000D0106010BD4068091851601000F1E7E7
:102A8000074C2468A34206D05B68C91841601368EC
:102A90001B680360EBE70460E9E7C046481C0020C0
:102AA000340C002070B50500FFF73EF9334B1B686E
:102AB000002B11D0002D13D02B0009330FD808356F
:102AC00007231A002A402B420AD001339B1ADA430B
:102AD000AA420FD3ED1803E0FFF78EFFEAE70025C7
:102AE000002D3CDB3DD0264B1B68AB4240D3254A32
:102AF000146803E00025F3E722001C006368AB4282
:102B000002D22368002BF7D11C4B1B68A34231D0A3
:102B1000166808362368136063685B1B102B08D99E
:102B20006019420701D072B6FEE743606560FFF7A7
:102B30008FFF626812490B689B1A0B601249096883
:102B40008B4201D210490B6080231B061343636044
:102B5000002323600D4A13680133136002E000264E
:102B600000E00026FFF7A0F9730705D072B6FEE774
:102B70000026F7E70026F5E7300070BD340C002092
:102B8000381C0020481C00203C1C0020401C002059
:102B900070B500280FD00500083D6B68002B01DBE5
:102BA00072B6FEE70200083A1268002A01D072B637
:102BB000FEE7002B00DB70BD083804005B005B08FB
:102BC0004360FFF7B1F86368074A11688C466344B5
:102BD00013602800FFF73CFF044A136801331360B9
:102BE000FFF762F9E7E7C046381C0020441C0020CC
:102BF0000D488546FEF75EFC002103E00B4B5B5859
:102C0000435004310A480B4B42189A42F6D30A4A01
:102C100002E0002313600432084B9A42F9D300F01B
:102C200011F8FDF731FBFEE700300020242E0008EC
:102C3000000000201800002018000020501C002078
:102C4000FEE7000070B500260C4D0D4C641BA4106F
:102C5000A64209D1002600F02BF80A4D0A4C641B4D
:102C6000A410A64205D170BDB300EB5898470136B9
:102C7000EEE7B300EB5898470136F2E71C2E000848
:102C80001C2E00081C2E0008202E0008002310B562
:102C90009A4200D110BDCC5CC4540133F8E7030064
:102CA0008218934200D1704719700133F9E7000090
:102CB000F8B5C046F8BC08BC9E467047F8B5C0469B
:082CC000F8BC08BC9E467047F9
:102CC8006D795461736B3033000000006D79546185
:102CD800736B30320000000064656661756C745473
:102CE80061736B00E02C0008000000000000000089
:102CF80000000000000000000002000018000000B2
:102D08000000000000000000D42C000800000000B3
:102D180000000000000000000000000000020000A9
:102D2800080000000000000000000000C82C000897
:102D3800000000000000000000000000000000008B
:102D48000002000008000000000000000000000071
:102D5800200000020000005000080050010002009E
:102D68000400060008000A000C00100020004000C3
:102D780080000001000000000000000000000000CA
:102D8800000000000000000000000000000000003B
:102D98000000000001000000020000000300000025
:102DA8000400000006000000070000000800000002
:102DB8000900000000000000000000000000000002
:102DC80000000000010000000200000003000000F5
:102DD8000400000049444C45000000005824000845
:102DE8009C2400089C240008E6240008F22400081B
:102DF800162500089C2400089C240008E6240008E6
:102E0800F2240008546D725100000000546D7220C5
:042E1800537663008A
:042E1C00E9000008C1
:042E2000C1000008E5
:102E2400004400400100000004000000001BB70043
:082E340037000000AAAAAAAAB7
:0400000508002BF1D3
:00000001FF
