:020000040800F2
:100000000030002079130008411100084311000856
:1000100000000000000000000000000000000000E0
:100020000000000000000000000000004511000872
:1000300000000000000000004711000849110008FE
:10004000C913000800000000C9130008C913000804
:10005000C9130008C9130008C9130008511100088A
:1000600000000000C9130008C9130008C9130008E4
:10007000C9130008C9130008C913000800000000D4
:10008000C91300080000000000000000C9130008A8
:1000900000000000C9130008C9130008C9130008B4
:1000A00000000000C913000800000000C913000888
:1000B000C91300080000000000000000000000005C
:1000C000002243088B4274D303098B425FD3030A97
:1000D0008B4244D3030B8B4228D3030C8B420DD3AA
:1000E000FF22090212BA030C8B4202D31212090238
:1000F00065D0030B8B4219D300E0090AC30B8B4276
:1001000001D3CB03C01A5241830B8B4201D38B0323
:10011000C01A5241430B8B4201D34B03C01A5241C8
:10012000030B8B4201D30B03C01A5241C30A8B420B
:1001300001D3CB02C01A5241830A8B4201D38B02F6
:10014000C01A5241430A8B4201D34B02C01A52419A
:10015000030A8B4201D30B02C01A5241CDD2C3090C
:100160008B4201D3CB01C01A524183098B4201D388
:100170008B01C01A524143098B4201D34B01C01A73
:10018000524103098B4201D30B01C01A5241C308EB
:100190008B4201D3CB00C01A524183088B4201D35A
:1001A0008B00C01A524143088B4201D34B00C01A46
:1001B0005241411A00D20146524110467047FFE7B2
:1001C00001B5002000F006F802BDC0460029F7D0B6
:1001D00076E770477047C04610B5064C2378002B71
:1001E00007D1054B002B02D0044800E000BF0123DB
:1001F000237010BD1000002000000000241400082F
:10020000044B10B5002B03D00349044800E000BFA5
:1002100010BDC04600000000140000202414000897
:10022000F0B58BB005AC14220021200001F0CDF810
:10023000184B596B042211435963596B0A400192C0
:10024000019A596B202211435963596B0A4002925B
:10025000029A5A6B022632435A635A6B3240039217
:10026000039A5A6B01252A435A635B6B2B40049314
:10027000049B094F00220221380000F049FA05963C
:1002800006950023079308932100380000F062F9D7
:100290000BB0F0BD001002400004005072B6FEE743
:1002A00010B58CB005AC1C220021200001F08DF8A7
:1002B00014220021684601F088F812490B680722D1
:1002C0009343063A13430B60059280235B02069327
:1002D000200000F043FA00280FD16846072300935E
:1002E000063B01930023029303930493012100F042
:1002F000C1FB002803D10CB010BDFFF7CFFFFFF703
:10030000CDFFC0460020024010B500F055F8FFF7C1
:10031000C7FFFFF785FF002000F056FF01210020F6
:1003200000F094FF0C49E1235B020B6000234B605B
:100330000B814B818B81002000F0FCFF002808D14D
:100340000221064800F0EAF9FA20400000F052F8D5
:10035000F6E7FFF7A3FFC0462C0000200004005082
:1003600010B50400114B1978002901D1012010BDEE
:10037000FA208000FFF7A4FE01000D4B1868FFF77C
:100380009FFE00F0A5F800280DD1032C01D9012013
:10039000EDE7013000222100404200F089F8054BD2
:1003A0001C600020E3E70120E1E7C04600000020D8
:1003B0000C0000200400002010B50320FFF7D0FF40
:1003C000041E02D00124200010BD00F0AFF9FAE7AE
:1003D000034B1B78034A11685B1813607047C046D3
:1003E000000000203C000020014B18687047C04608
:1003F0003C00002070B50400FFF7F6FF0500631C09
:1004000002D0044B1B78E418FFF7EEFF401BA0421C
:10041000FAD370BD0000002070B5002811DB8308FE
:10042000134DC0339B005C5903221040C000FC32C6
:1004300016008640B44389010A40824022435A5143
:1004400070BD0F230340083B9B0806339B00094AFD
:10045000944663445C6803221040C000FC321500DF
:100460008540AC4389010A40824022435A60E7E755
:1004700000E100E000ED00E0013880235B049842D9
:100480000FD2094A50600948036A1B021B0AC021A7
:1004900009060B43036200239360073313600020B7
:1004A00070470120FCE7C04610E000E000ED00E0EE
:1004B00010B5FFF7B1FF10BD002805DB1F22024079
:1004C00001239340014A13607047C04600E100E0F9
:1004D00010B5FFF7D1FF10BD012907D0022908D0C0
:1004E000002909D142608260080070474260002004
:1004F000FBE782600020F8E70120F6E7002802D041
:100500000160002070470120FCE7000070B5060084
:100510000268140C01252C401F2313409D406401E8
:100520000A4BE3181A68154204D01D604368002B7B
:1005300000D09847064B9C46644423681D4204D073
:100540002560B368002B00D0984770BD0C1802409E
:1005500010180240F0B5D6464F464646C0B50023B7
:100560003BE0052500E00025A5402C003C43634D01
:100570001832920054518022AF584A46D2433D006F
:100580004C46A5434C68E40302D53D004C46254348
:100590005A4C8027E551842567593D0015404C6829
:1005A000A40302D53D004C462543544C8427E55115
:1005B00027683D0015404C68E40202D53D004C46DA
:1005C00025434E4C256065682A404C68A40201D53D
:1005D0004A462A43494C626001330C682200DA40E3
:1005E00000D186E001229A4026001640B14614420E
:1005F000F2D04C68022C01D0122C18D1DD0808353D
:10060000AD002C58A44607271F40BF000F24A24668
:100610002600BE40B04666464446A643B4460C6932
:10062000564626403400BC40664634432C5004688D
:10063000A4465D000324A2462700AF40B846FF430E
:1006400066464446A643B4464C68564626403400A7
:10065000AC406646344304604C68661E012E03D9E4
:10066000112C01D0122C12D184683C40A446CC68D5
:10067000AC40664634438460446894434A68120937
:1006800094460122664632409A40224342604A68BC
:10069000032A05D0C4683C408A68AA402243C2604D
:1006A0004A68D20098D59A0814001834A400134D53
:1006B000675903241C40E4000F25A540AF43A02543
:1006C000ED05A84200D14EE70D4DA8420BD00D4DCF
:1006D000A8420AD00C4DA84209D00C4DA84200D126
:1006E0003FE7062540E701253EE702253CE70325D5
:1006F0003AE7E0BCBA46B146A846F0BD0018024051
:100700000004005000080050000C0050001400507D
:10071000002A01D0816170478162FCE742691300C1
:100720000B401B0491430B438361704782B00A4B1B
:10073000196C012211431964196C0A400092009A45
:10074000DA6B802149050A43DA63DB6B0B400193C6
:10075000019B02B07047C0460010024070B5041EF5
:1007600000D139E10368DB072CD5A14B9A68382307
:100770001340082B22D043688022520293422ED08D
:10078000A022D202934231D0994B1A6899490A406B
:100790001A601A6898490A401A606368002B31D0C1
:1007A000FFF722FE0500924B1B689B030AD4FFF75C
:1007B0001BFE401B6428F6D903200EE14368002B82
:1007C00000D10BE123689B0747D5894B9B683822F2
:1007D0001A4261D1E368002B22D10120FDE0844A56
:1007E000116880235B020B431360D6E7804B1968C6
:1007F0008022D2020A431A601968802252020A43F8
:100800001A60CAE7FFF7F0FD0500794B1B689B03F0
:10081000D8D5FFF7E9FD401B6428F6D90320DCE0BA
:10082000734B5A6875490A40616909020A435A6064
:100830001A6873490A4021690A431A601B68DB0A77
:1008400007221A406F4BD3406F4A13606F4B1868F2
:10085000FFF786FD002800D0C2E023681B0757D5AC
:10086000634B9A6838231340182B4ED0A369002B92
:1008700077D05F4A136E01210B431366FFF7B4FD77
:1008800005005B4B1B6E9B0742D4FFF7ADFD401B81
:100890000228F6D90320A0E0E368002B22D0544AB6
:1008A000136857490B4021690B431360116880237B
:1008B0005B000B431360FFF797FD05004C4B1B6873
:1008C0005B0506D4FFF790FD401B0228F6D90320F4
:1008D00083E047494B68494A134062691202134357
:1008E0004B60BAE7424A136849490B401360FFF76F
:1008F0007BFD05003E4B1B685B05AED5FFF774FD25
:10090000401B0228F6D9032067E0A369002B69D0B9
:1009100023685B0768D5364B9A6838231340202B31
:1009200032D0A368012B34D0052B38D0304BDA6D90
:1009300001218A43DA65DA6D03318A43DA65A368F7
:10094000002B38D0FFF750FD0400294BDB6D9B07CF
:100950002FD4FFF749FD001B2E4B9842F5D90320F9
:100960003BE0234A136E01218B431366FFF73CFDE6
:1009700005001F4B1B6E9B07CAD5FFF735FD401BBB
:100980000228F6D9032028E0A368002B2ED00020EF
:1009900023E0174AD36D01210B43D365CFE7144BF6
:1009A000DA6D04210A43DA65DA6D03390A43DA6540
:1009B000C5E7002011E0FFF717FD04000C4BDB6DCD
:1009C0009B0707D5FFF710FD001B124B9842F5D986
:1009D000032002E0002000E0012070BD0120FCE7C0
:1009E0000120FAE70120F8E70020F6E70120F4E70C
:1009F00000100240FFFFFEFFFFFFFBFFFF80FFFF35
:100A0000FFC7FFFF006CDC020C0000200400002088
:100A1000FFFEFFFF88130000144B9B6838221A4228
:100A200007D1124B1A68D20A072313401048D84046
:100A300070470E4B9A6838231340082B10D00B4B8D
:100A40009A6838231340202B0CD0084B9A6838231F
:100A50001340182B01D00020EAE7FA20C001E7E795
:100A60000348E5E780200002E2E7C04600100240AC
:100A7000006CDC0270B504000D00002800D1A4E079
:100A8000544B1A68072313408B4221D323689A07DB
:100A900010D55B0707D550498A68504B1A40B023E0
:100AA0001B0113438B604C4A93684D490B40E1682E
:100AB0000B4393602368DB074CD56368012B1ED082
:100AC000002B39D1444A126852051CD4012064E03D
:100AD000404A136807218B432B431360FFF784FCC4
:100AE00006003C4B1A6807231340AB42CED0FFF7F9
:100AF0007BFC801B3B4A9042F3D903204DE0364AF1
:100B00001268920363D534498A68072082431343ED
:100B10008B60FFF769FC06002F4B9B6838221A4058
:100B20006368DB009A4215D0FFF75EFC801B2D4BFB
:100B30009842F1D9032030E0032B05D0264AD26D2C
:100B40009207E0D4012028E0234A126E9207DAD4FB
:100B5000012022E01F4B1A6807231340AB421DD827
:100B600023685B0706D51C4A93681F490B4021691F
:100B70000B439360FFF750FF174B9A68120A0F233D
:100B800013401A4A9B009A581F231340D840184B11
:100B90001860184B1868FFF7E3FB70BD0D4A136827
:100BA00007218B432B431360FFF71EFC0600094B04
:100BB0001A6807231340AB42D2D0FFF715FC801B05
:100BC000084B9842F3D90320E7E70120E5E701202D
:100BD000E3E7C0460020024000100240FF84FFFF10
:100BE000FFF0FFFF88130000FF8FFFFF8014000855
:100BF0000C0000200400002010B5FFF70DFF074B8C
:100C00009A68120A0F231340054A9B009A581F2323
:100C10001340D840034B186010BDC046001002407E
:100C2000801400080C00002010B5FFF7E5FF064B0C
:100C30009A68120B07231340044A9B009A581F23FB
:100C40001340D84010BDC046001002406014000898
:100C500030B5EFF31084012282F3108801680B682D
:100C6000124D2B400B6084F31088EFF3108182F358
:100C70001088026893680E4C2340936081F31088BB
:100C8000C36E012B06D08C232022C2500023C366E2
:100C9000436730BDEFF3108183F310880268136857
:100CA0001024A343136081F31088ECE7DFFEFFFFFD
:100CB000FEFFFFEF7047000010B504008368026973
:100CC000134342691343C269134301680A686248C7
:100CD000024013430B602268536860490B40E1688F
:100CE0000B435360A369226A1A4321688B685C48EE
:100CF000034013438B602268D36A0F218B43616AE0
:100D00000B43D3622368574A934230D0564A9342EA
:100D10003ED01023E06980221202904242D0042B80
:100D200000D189E07BD8002B00D17FE0022B74D169
:100D30004E4B1B685B090721194001314C48FFF7F6
:100D4000BFF9626A4B4B5200D15AFFF7B9F961689B
:100D50004B08C018FFF7B4F90200103A464B9A420C
:100D60006FD823680004000CD86000206AE03F4B75
:100D70005A6D03231340022B0CD005D8002B0BD047
:100D8000012B0BD10333C5E7032B09D10533C1E791
:100D90000023BFE70223BDE70023BBE71023B9E729
:100DA0001023B7E7042B35D02AD8002B2CD0022BE8
:100DB00024D12E4B1B685B090721194001312C48B7
:100DC000FFF77EF9626A2B4B5200D15AFFF778F990
:100DD000400061684B08C018FFF772F90200103A32
:100DE000254B9A422BD882B20F239A434008083BE6
:100DF000034013432268D360002023E0012021E058
:100E0000082BDFD001201DE0FFF70EFF0028D9D10D
:100E1000002017E0FFF700FEF8E7012012E0082BA2
:100E200002D1802000028CE701200BE0FFF7FCFEDE
:100E3000002886D1002005E0FFF7EEFDF8E701204D
:100E400000E0012001236A22A352023AA3520023A8
:100E50006367A36710BDC046F369FFCFFFCFFFFFF5
:100E6000FFF4FF1100380140004400400010024030
:100E7000006CDC023C140008EFFF0000836A1B07D3
:100E800006D5026853682C490B40816B0B435360B5
:100E9000836ADB0706D50268536828490B40C16A9C
:100EA0000B435360836A9B0706D502685368244945
:100EB0000B40016B0B435360836A5B0706D50268E6
:100EC000536820490B40416B0B435360836ADB0638
:100ED00006D5026893681C490B40C16B0B439360B5
:100EE000836A9B0606D50268936818490B40016C1B
:100EF0000B439360836A5B060BD502685368144901
:100F00000B40416C0B435360426C80235B039A425D
:100F10000AD0836A1B0606D5026853680D490B4048
:100F2000C16C0B4353607047026853680A490B4019
:100F3000816C0B435360ECE7FF7FFFFFFFFFFDFF7A
:100F4000FFFFFEFFFFFFFBFFFFEFFFFFFFDFFFFFE6
:100F5000FFFFEFFFFFFFF7FFFFFF9FFFF8B5CE4654
:100F6000474680B506000D0017009946089B984635
:100F70003368DC692C40641B63425C41BC4233D162
:100F800043460133F4D0FFF72FFA4B46C01A4045D1
:100F90002FD84346002B2ED0326813685B07E7D565
:100FA000802DE5D0402DE3D0D3691B0710D4D36941
:100FB0001B05DDD580231B0113623000FFF748FEBF
:100FC00090232022F2500C3B0022F25403200CE02C
:100FD000082414623000FFF73BFE9023F4500C3BD2
:100FE0000022F254012000E00020C0BCB946B04607
:100FF000F8BD0320F9E70320F7E7000030B583B020
:10100000040090230022C250FFF7EEF90500236888
:101010001B681B0710D423681B685B072BD4202395
:101020008822A3500432A3500023E3662367083AC2
:10103000A354002003B030BD8021234B0093030054
:10104000002289032000FFF789FF0028E3D0EFF397
:101050001081012383F31088226813688020834362
:10106000136081F3108888232022E250043B002281
:10107000E2547D38DEE78021134B00932B000022E1
:10108000C9032000FFF76AFF0028C8D0EFF31080E3
:10109000012282F3108821680B680C4D2B400B60F5
:1010A00080F31088EFF3108082F3108821688B683A
:1010B00093438B6080F310888C231F32E250083BEF
:1010C0000022E2540320B5E7FFFFFF01DFFEFFFF30
:1010D00010B5041E30D08823C358002B22D088239B
:1010E0002422E2502268136801218B431360A36A13
:1010F000002B1DD12000FFF7DFFD012811D0226851
:1011000053680E490B405360226893682A218B4331
:1011100093602268136829390B4313602000FFF79E
:101120006DFF10BD84330022C254FFF7C3FDD6E724
:101130002000FFF7A3FEDDE70120F2E7FFB7FFFF86
:10114000FEE7FEE77047704710B5FFF741F910BDA5
:1011500010B5002000F0C2F810BD0000F0B589B055
:10116000184B5A6B01252A435A635A6B2A40009246
:10117000009A5A6B2A435A635A6B2A400192019A89
:10118000DA6B802189020A43DA63DB6B0B4002933E
:10119000029B03AC0423039302260496069605954E
:1011A0000795A027FF0521003800FFF7D3F9082392
:1011B00003930496079521003800FFF7CBF909B097
:1011C000F0BDC0460010024070B588B00400012890
:1011D00032D800281DD11A4A516B0123194351639B
:1011E000526B13400193019B164B6200D65A03A920
:1011F000039601234B6000238B600333CB60124BBB
:10120000A200D058FFF7A6F9012C0CD0002008B09E
:1012100070BD0B4A516B042319435163526B134049
:101220000293029BE0E7084BA400E0580122310042
:10123000FFF76EFA0020EAE702204042E7E7C046E7
:1012400000100240541400085814000830B587B04C
:1012500005001C4A506B042318435063526B134023
:101260000093009B01AB8022920101920122039224
:1012700001320492002908D1190000234B60124862
:10128000FFF768F9002007B030BD01A90F4B4B6094
:101290000D48FFF75FF96C006419A4000C4BE418CB
:1012A0000C492000FFF72AF90B4A00212000FFF724
:1012B00013F900220F210720FFF7FAF80720FFF7A4
:1012C000FBF8DFE70010024000080050000021108A
:1012D000D40000200D000006F712000810B54300EE
:1012E00018188000024BC018FFF710F910BDC04657
:1012F000D4000020704710B50020FFF7FBFF10BDA1
:1013000010B50B4B1B6803600B6843600C234361F3
:101310004B8903614B6883600B89C3608B89836150
:1013200080231B02C36100234362FFF7D1FE10BD7F
:101330000800002070B50D0000280DD1942444430E
:10134000084BE4182000FFF709FF29002000FFF7F1
:10135000D7FF002803D170BD02204042FBE70420E4
:101360004042F8E740000020024B802212059A60BC
:101370007047C04600ED00E00D488546FFF7F4FFDA
:10138000002103E00B4B5B58435004310A480B4BE0
:1013900042189A42F6D30A4A02E00023136004324C
:1013A000084B9A42F9D300F019F8FEF7ADFFFEE7BB
:1013B00000300020C81400080000002010000020A9
:1013C00010000020E0000020FEE703008218934296
:1013D00000D1704719700133F9E7000070B500269D
:1013E0000C4C0D4D641BA410A64209D1002600F040
:1013F00019F80A4C0A4D641BA410A64205D170BD11
:10140000B300EB5898470136EEE7B300EB58984726
:101410000136F2E7C0140008C0140008C414000824
:10142000C0140008F8B5C046F8BC08BC9E4670471A
:0C143000F8B5C046F8BC08BC9E467047EA
:10143C00010002000400060008000A000C00100065
:10144C00200040008000000120000002000000503D
:10145C000008005000000000000000000000000028
:10146C00000000000100000002000000030000006A
:10147C00040000000000000000000000000000005C
:10148C000000000000000000000000000000000050
:10149C00000000000100000002000000030000003A
:1014AC000400000006000000070000000800000017
:0414BC000900000023
:0414C000010200081D
:0414C400D901000842
:1014C800010000000400000000440040001BB700B9
:040000050800137963
:00000001FF
