:020000040800F2
:1000000000300020ED18000805060008070600086B
:1000100000000000000000000000000000000000E0
:1000200000000000000000000000000009060008B9
:1000300000000000000000000B0600080D0600088C
:100040003D190008000000003D1900083D19000896
:100050003D1900083D1900083D1900081506000863
:10006000000000003D1900083D1900083D19000876
:100070003D1900083D1900083D1900080000000066
:100080003D19000800000000000000003D190008B4
:10009000000000003D1900083D1900083D19000846
:1000A000000000003D190008000000003D19000894
:1000B0003D190008000000000000000000000000E2
:1000C00010B5064C2378002B07D1054B002B02D02E
:1000D000044800E000BF0123237010BD740000201D
:1000E0000000000054290008044B10B5002B03D079
:1000F0000349044800E000BF10BDC04600000000F6
:10010000780000205429000803B4714649084000D3
:100110004900095E49008E4403BC70470022430831
:100120008B4274D303098B425FD3030A8B4244D3BF
:10013000030B8B4228D3030C8B420DD3FF22090201
:1001400012BA030C8B4202D31212090265D0030BC0
:100150008B4219D300E0090AC30B8B4201D3CB03B6
:10016000C01A5241830B8B4201D38B03C01A5241F8
:10017000430B8B4201D34B03C01A5241030B8B42FA
:1001800001D30B03C01A5241C30A8B4201D3CB02E5
:10019000C01A5241830A8B4201D38B02C01A5241CA
:1001A000430A8B4201D34B02C01A5241030A8B42CD
:1001B00001D30B02C01A5241CDD2C3098B4201D3E5
:1001C000CB01C01A524183098B4201D38B01C01A63
:1001D000524143098B4201D34B01C01A52410309DA
:1001E0008B4201D30B01C01A5241C3088B4201D389
:1001F000CB00C01A524183088B4201D38B00C01A36
:10020000524143088B4201D34B00C01A5241411A5C
:1002100000D20146524110467047FFE701B5002069
:1002200000F0F0F802BDC0460029F7D076E770472D
:1002300003460B437FD4002243088B4274D3030947
:100240008B425FD3030A8B4244D3030B8B4228D3E8
:10025000030C8B420DD3FF22090212BA030C8B420E
:1002600002D31212090265D0030B8B4219D300E0AE
:10027000090AC30B8B4201D3CB03C01A5241830B33
:100280008B4201D38B03C01A5241430B8B4201D3E3
:100290004B03C01A5241030B8B4201D30B03C01A0C
:1002A0005241C30A8B4201D3CB02C01A5241830A86
:1002B0008B4201D38B02C01A5241430A8B4201D3B5
:1002C0004B02C01A5241030A8B4201D30B02C01ADF
:1002D0005241CDD2C3098B4201D3CB01C01A524146
:1002E00083098B4201D38B01C01A524143098B42CF
:1002F00001D34B01C01A524103098B4201D30B01B8
:10030000C01A5241C3088B4201D3CB00C01A5241DC
:1003100083088B4201D38B00C01A524143088B42A1
:1003200001D34B00C01A5241411A00D2014652413A
:10033000104670475DE0CA0F00D04942031000D359
:100340004042534000229C4603098B422DD3030AAE
:100350008B4212D3FC22890112BA030A8B420CD3BE
:10036000890192118B4208D3890192118B4204D3E7
:1003700089013AD0921100E08909C3098B4201D367
:10038000CB01C01A524183098B4201D38B01C01AA1
:10039000524143098B4201D34B01C01A5241030918
:1003A0008B4201D30B01C01A5241C3088B4201D3C7
:1003B000CB00C01A524183088B4201D38B00C01A74
:1003C0005241D9D243088B4201D34B00C01A52414B
:1003D000411A00D20146634652415B10104601D3D8
:1003E0004042002B00D54942704763465B1000D362
:1003F000404201B5002000F005F802BD0029F8D008
:1004000016E770477047C04672B6FEE700B58DB07C
:100410001C22002105A801F0BDFA14220021684623
:1004200001F0B8FA134A136807218B4306390B43CE
:10043000136002230593FE3308930023099340338E
:100440000A9305A800F0BCFA00280ED107230093F8
:10045000002301930293039304930121684600F063
:100460003BFC002803D10DB000BDFFF7CDFFFFF727
:10047000CBFFC0460020024010B500F019FAFFF78C
:10048000C5FF00F025F800F041F8002000F014F955
:100490000121002000F052F90B49E1235B020B60BF
:1004A00000234B600B814B818B81002000F0BAF957
:1004B000002807D1054801F075FAFA20800000F005
:1004C00015FAF7E7FFF7A0FF900000206C2900085D
:1004D00084B00D4B596B042211435963596B0A4088
:1004E0000192019A596B202211435963596B0A40BA
:1004F0000292029A596B0122114359635B6B1A40B5
:100500000392039B04B070470010024010B51A48D4
:100510001A4B0360E1235B02436080235B05836029
:100520000023C36003610C2242618361C3610362E3
:100530004362836201F0B8F8002811D100210E480F
:1005400001F032F900280ED100210B4801F052F9D8
:1005500000280BD1084801F007F9002809D110BD87
:10056000FFF752FFEAE7FFF74FFFEDE7FFF74CFF1A
:10057000F0E7FFF749FFF2E7A00000200038014054
:1005800010B58EB004001422002109A801F002FA6F
:100590001C22002102A801F0FDF92268174B9A42A3
:1005A00001D00EB010BD0123029302A800F082FC1E
:1005B000002820D1124B196C8020C001014319641E
:1005C0001A6C02400092009A596B01221143596340
:1005D0005B6B1A400192019B03230993013B0A9331
:1005E00000230B930C9304330D93A02009A9C0059D
:1005F00000F0F8FCD5E7FFF707FFDBE70038014024
:1006000000100240FEE7FEE77047704710B500F0AB
:100610005BF910BD10B5002000F0D8F810BD000047
:1006200082B00A4B196C012211431964196C0A40FB
:100630000092009ADA6B802149050A43DA63DB6B8A
:100640000B400193019B02B07047C046001002406E
:1006500070B588B0174B5A6B012422435A635A6B0A
:1006600022400092009A5A6B22435A635A6B2240EE
:100670000192019ADA6B802189020A43DA63DB6B0B
:100680000B400293029B04230393022504950695D5
:1006900005940794A026F60503A9300000F0A2FCFB
:1006A000082303930495079403A9300000F09AFCF3
:1006B00008B070BD0010024070B588B00400012879
:1006C00032D800281DD11A4A516B012319435163B6
:1006D000526B13400193019B6300164A9E5A039686
:1006E000012304930023059303330693A300124AC6
:1006F000985803A900F076FC012C0CD0002008B01B
:1007000070BD0B4A516B042319435163526B134064
:100710000293029BE0E7A400074BE058012231005E
:1007200000F03EFD0020EAE702204042E7E7C04635
:10073000001002407C2900088029000810B586B00E
:1007400004001C4A506B042318435063526B13403F
:100750000093009B80239B010193012303930133AA
:100760000493002908D10023029301A9124800F044
:1007700039FC002006B010BD104B029301A90E48B1
:1007800000F030FC60000419A4000D4804190D4964
:10079000200000F01DFD0C4A0021200000F006FDA5
:1007A00000220F21072000F0B3F8072000F0E0F846
:1007B000DFE7C04600100240000800500000211092
:1007C000C80100200D000006E707000810B503006F
:1007D0004000C0188000024B181800F001FD10BD49
:1007E000C8010020704710B50020FFF7FBFF10BDC7
:1007F00010B50B4B1B6803600B6843600C2343610F
:100800004B8903614B6883600B89C3608B8983616B
:1008100080231B02C3610023436200F045FF10BD2B
:100820000000002070B50D0000280DD19424444331
:10083000084824182000FFF70BFF29002000FFF7CD
:10084000D7FF002803D170BD02204042FBE70420FF
:100850004042F8E73401002010B50400114B19782C
:10086000002901D1012010BDFA208000FFF756FCBD
:1008700001000D4B1868FFF751FC00F085F80028C7
:100880000DD1032C01D90120EDE701300022210018
:10089000404200F03DF8054B1C600020E3E70120DA
:1008A000E1E7C046040000200C0000200800002002
:1008B00010B50320FFF7D0FF041E02D00124200052
:1008C00010BDFFF7ADFEFAE7034B1B78034A116832
:1008D0005B1813607047C04604000020D40100205C
:1008E000014B18687047C046D401002070B5040061
:1008F000FFF7F6FF0500631C02D0044B1B78E418D9
:10090000FFF7EEFF401BA042FAD370BD04000020A9
:1009100070B5002811DB8308134EC0339B009D592E
:1009200003242040C000FF2214008440A543890115
:100930000A4082402A439A5170BD0F230340083B6E
:100940009B0806339B00094A944663445C68032273
:100950001040C000FC3215008540AC4389010A40BC
:10096000824022435A60E7E700E100E000ED00E04A
:10097000002805DB1F2318401E3B8340014A1360FB
:100980007047C04600E100E0013880235B049842D4
:100990000FD2094A50600948036A1B021B0AC02192
:1009A00009060B43036200239360073313600020A2
:1009B00070470120FCE7C04610E000E000ED00E0D9
:1009C00070B5041E00D139E10368DB072CD5A14BBB
:1009D0009A6838231340082B22D0436880225202A1
:1009E00093422ED0A022D202934231D0994B1A6862
:1009F00099490A401A601A6898490A401A6063685F
:100A0000002B31D0FFF76CFF0500924B1B689B0356
:100A10000AD4FFF765FF401B6428F6D903200EE1D6
:100A20004368002B00D10BE123689B0747D5894B16
:100A30009B6838221A4261D1E368002B22D1012041
:100A4000FDE0844A116880235B020B431360D6E704
:100A5000804B19688022D2020A431A6019688022EA
:100A600052020A431A60CAE7FFF73AFF0500794BC2
:100A70001B689B03D8D5FFF733FF401B6428F6D9CA
:100A80000320DCE0734B5A6875490A40616909022A
:100A90000A435A601A6873490A4021690A431A6076
:100AA0001B68DB0A07221A406F4BD3406F4A136062
:100AB0006F4B1868FFF7D0FE002800D0C2E0236813
:100AC0001B0757D5634B9A6838231340182B4ED019
:100AD000A369002B77D05F4A136E01210B43136685
:100AE000FFF7FEFE05005B4B1B6E9B0742D4FFF732
:100AF000F7FE401B0228F6D90320A0E0E368002B94
:100B000022D0544A136857490B4021690B431360A4
:100B1000116880235B000B431360FFF7E1FE0500C3
:100B20004C4B1B685B0506D4FFF7DAFE401B02281E
:100B3000F6D9032083E047494B68494A134062696C
:100B4000120213434B60BAE7424A136849490B400B
:100B50001360FFF7C5FE05003E4B1B685B05AED575
:100B6000FFF7BEFE401B0228F6D9032067E0A36909
:100B7000002B69D023685B0768D5364B9A68382309
:100B80001340202B32D0A368012B34D0052B38D052
:100B9000304BDA6D01218A43DA65DA6D03318A431D
:100BA000DA65A368002B38D0FFF79AFE0400294BC2
:100BB000DB6D9B072FD4FFF793FE001B2E4B984253
:100BC000F5D903203BE0234A136E01218B431366C2
:100BD000FFF786FE05001F4B1B6E9B07CAD5FFF76C
:100BE0007FFE401B0228F6D9032028E0A368002BD3
:100BF0002ED0002023E0174AD36D01210B43D3658B
:100C0000CFE7144BDA6D04210A43DA65DA6D033954
:100C10000A43DA65C5E7002011E0FFF761FE040032
:100C20000C4BDB6D9B0707D5FFF75AFE001B124BE1
:100C30009842F5D9032002E0002000E0012070BDB9
:100C40000120FCE70120FAE70120F8E70020F6E7A1
:100C50000120F4E700100240FFFFFEFFFFFFFBFF53
:100C6000FF80FFFFFFC7FFFF006CDC020C000020CD
:100C700008000020FFFEFFFF88130000144B9B6854
:100C800038221A4207D1124B1A68D20A072313409E
:100C90001048D84070470E4B9A6838231340082BF1
:100CA00010D00B4B9A6838231340202B0CD0084BE4
:100CB0009A6838231340182B01D00020EAE7FA2065
:100CC000C001E7E70348E5E780200002E2E7C0460D
:100CD00000100240006CDC0270B504000D0000281A
:100CE00000D1A4E0544B1A68072313408B4221D350
:100CF00023689A0710D55B0707D550498B68504A7F
:100D00001A40B0231B0113438B604C4A93684D4932
:100D10000B40E1680B4393602368DB074CD56368A5
:100D2000012B1ED0002B39D1444A126852051CD425
:100D3000012064E0404A136807218B432B43136072
:100D4000FFF7CEFD06003C4B1A6807231340AB4269
:100D5000CED0FFF7C5FD801B3B4A9042F3D903205C
:100D60004DE0364A1268920363D534498A680720F9
:100D7000824313438B60FFF7B3FD06002F4B9B6844
:100D800038221A406368DB009A4215D0FFF7A8FDAD
:100D9000801B2D4B9842F1D9032030E0032B05D066
:100DA000264AD26D9207E0D4012028E0234A126E31
:100DB0009207DAD4012022E01F4B1A680723134060
:100DC000AB421DD823685B0706D51C4A93681F49B0
:100DD0000B4021690B439360FFF750FF174B9A6854
:100DE000120A0F2313409B00194A9A581F231340DD
:100DF000D840184B1860184B1868FFF72DFD70BDD0
:100E00000D4A136807218B432B431360FFF768FDDE
:100E10000600094B1A6807231340AB42D2D0FFF7F4
:100E20005FFD801B084B9842F3D90320E7E70120C0
:100E3000E5E70120E3E7C046002002400010024041
:100E4000FF84FFFFFFF0FFFF88130000FF8FFFFF0D
:100E5000B02900080C0000200800002010B5FFF7A2
:100E60000DFF074B9A68120A0F2313409B00054A97
:100E70009A581F231340D840034B186010BDC0463A
:100E800000100240B02900080C00002010B5FFF748
:100E9000E5FF064B9A68120B072313409B00044A98
:100EA0009A581F231340D84010BDC046001002407E
:100EB000F029000870B582B0040003685B064ED5C7
:100EC000414BDB6BDB0035D43F4AD16B80204005C2
:100ED0000143D163D36B03400193019B01253A4B3E
:100EE000D96DC02292000B001340114210D0A269AC
:100EF0009A420DD0344AD36D34490B40D06D8021D5
:100F000049020143D165D16D31480140D165D365B6
:100F1000DB0711D42C4AD36D2C490B40A1690B433C
:100F2000D3650020012D1BD1274AD36B29490B40E3
:100F3000D36315E00025D2E7FFF7D2FC0600224B71
:100F4000DB6D9B0707D4FFF7CBFC801B224B98423D
:100F5000F5D9032000E000200028E3D1DAE70020E3
:100F60002368DB0706D5184A536D03218B43A1681C
:100F70000B43536523689B0706D5134A536D1749E6
:100F80000B40E1680B43536523689B0606D50E4A68
:100F9000536D9B009B0861690B43536523685B0796
:100FA00006D5094A536D0E490B4021690B43536521
:100FB00023681B0606D5044A1368E0218B43616849
:100FC0000B43136002B070BD00100240FFFCFFFF36
:100FD000FFFFFEFFFFFFFFEF88130000FFCFFFFFC3
:100FE000FF3FFFFFF0B5D6464F464646C0B500234B
:100FF0003BE0052500E00025A5402C003C43634D67
:101000001832920054518022AC584A46D2432500EF
:101010004E46B5434E68F60302D54D462C43250097
:101020005A4C8027E55184256459250015404E68A7
:10103000B60302D54D462C432500544C8427E55178
:101040002468250015404E68F60202D54D462C4313
:1010500025004E4C2560646822404D68AD0201D5E4
:101060004A462243494C626001330C682200DA4050
:1010700000D186E001229A4026001640B146144273
:10108000F2D04C68022C01D0122C18D1DD080835A2
:10109000AD002C58A44607271F40BF000F24A246CE
:1010A0002600BE40B04666464446A643B4460C6998
:1010B000564626403400BC40664634432C500468F3
:1010C000A4465D000324A2462700AF40B846FF4374
:1010D00066464446A643B4464C685646264034000D
:1010E000AC406646344304604C68661E012E03D94A
:1010F000112C01D0122C12D184683C40A446CC683B
:10110000AC40664634438460446894434A6812099C
:1011100094460122664632409A40224342604A6821
:10112000032A05D0C2683A408F68AF401743C760B2
:101130004A68D20098D59A0814001834A400134DB8
:10114000675903251D40EC000F25A540AF43A0259E
:10115000ED05A84200D14EE70D4DA8420BD00D4D34
:10116000A8420AD00C4DA84209D00C4DA84200D18B
:101170003FE7062540E701253EE702253CE703253A
:101180003AE7E0BCBA46B146A846F0BD00180240B6
:101190000004005000080050000C005000140050E3
:1011A000002A01D0816170478162FCE7012909D0E2
:1011B00002290AD0002901D00120704742608260D4
:1011C0000800FAE742600020F7E782600020F4E7B9
:1011D000002802D00160002070470120FCE70000D9
:1011E00070B506000268140C01252C401F23134023
:1011F0009D4064010A4BE3181A68154204D01D6033
:101200004368002B00D09847064B9C4664442368F3
:101210001D4204D02560B368002B00D0984770BDF4
:101220000C1802401018024030B5EFF31084012270
:1012300082F3108801680B68124D2B400B6084F319
:101240001088EFF3108182F31088026893680E4CC7
:101250002340936081F31088C36E012B06D08C234A
:101260002022C2500023C366436730BDEFF31081D4
:1012700083F31088026813681024A343136081F37A
:101280001088ECE7DFFEFFFFFEFFFFEF10B5040064
:1012900083680269134342691343C26913430168B7
:1012A0000A686348024013430B602268536861492F
:1012B0000B40E1680B435360226AA3691A4321681B
:1012C0008B685D48034013438B602268D36A0F210B
:1012D0008B43616A0B43D3622368584A93421BD005
:1012E000574A934229D01023E0698022120290428B
:1012F0002DD0042B00D194E068D8002B00D18AE0D7
:10130000022B61D14F4B1B685B090721194001314A
:101310004D48FEF703FF80E04A4B5A6D032313400C
:10132000022B0CD005D8002B0BD0012B0BD1033393
:10133000DAE7032B09D10533D6E70023D4E70223EC
:10134000D2E70023D0E71023CEE71023CCE7042B0D
:1013500037D00FD8002B2ED0022B09D1394B1B6868
:101360005B090721194001313748FEF7D7FE24E019
:10137000012047E0082B1CD1636A5B00334A995A6D
:10138000FEF7CCFE400063685B08C0186168FEF79A
:10139000C5FE0200103A2E4B9A4245D882B20F2366
:1013A0009A434008083B184010432368D860002047
:1013B00028E0012026E0FFF769FD0028DCD10020AD
:1013C00020E0FFF75BFCF8E701201BE0082B18D1B9
:1013D00080200002636A5B001C4A995AFEF79EFE59
:1013E00063685B08C0186168FEF798FE0200103A57
:1013F000174B9A421AD823680004000CD8600020CA
:1014000000E0012001236A22A352023AA3520023E2
:101410006367A36710BDFFF739FD0028DAD100200C
:10142000F0E7FFF72BFCF8E70120EBE70120E9E705
:10143000F369FFCFFFCFFFFFFFF4FF11003801403A
:101440000044004000100240006CDC0288290008C3
:10145000EFFF0000836A1B0706D5026853682C491A
:101460000B40816B0B435360836ADB0706D5026830
:10147000536828490B40C16A0B435360836A9B073A
:1014800006D50268536824490B40016B0B43536037
:10149000836A5B0706D50268536820490B40416B9D
:1014A0000B435360836ADB0606D5026893681C49C8
:1014B0000B40C16B0B439360836A9B0606D50268A1
:1014C000936818490B40016C0B439360836A5B0679
:1014D0000BD50268536814490B40416C0B435360B1
:1014E00080235B03426C9A420AD0836A1B0606D5AE
:1014F000026853680D490B40C16C0B435360704741
:10150000026853680A490B40816C0B435360ECE757
:10151000FF7FFFFFFFFFFDFFFFFFFEFFFFFFFBFF62
:10152000FFEFFFFFFFDFFFFFFFFFEFFFFFFFF7FF13
:10153000FFFF9FFFF8B5CE46474680B506000D0079
:1015400017009946089B98463368DC692C40641B59
:1015500063425C41BC4233D143460133F4D0FFF7D0
:10156000BFF94B46C01A40452FD84346002B2ED01A
:1015700033681A685207E7D5802DE5D0402DE3D0B7
:10158000DA69120710D4DA691205DDD5802212015A
:101590001A623000FFF748FE90232022F2500C3BE5
:1015A0000022F25403200CE008241C623000FFF7F4
:1015B0003BFE9023F4500C3B0022F254012000E04B
:1015C0000020C0BCB946B046F8BD0320F9E70320AF
:1015D000F7E7000030B583B0040090230022C2502A
:1015E000FFF77EF9050022681268130710D42368FC
:1015F0001B685B072BD420238822A3500432A350FE
:101600000023E3662367083AA354002003B030BDEB
:101610008021234B00930300002289032000FFF761
:1016200089FF0028E3D0EFF31081012383F31088B2
:101630002268136880208343136081F31088882315
:101640002022E250043B0022E2547D38DEE7802174
:10165000134B00932B000022C9032000FFF76AFF01
:101660000028C8D0EFF31080012282F3108821688F
:101670000B680C4D2B400B6080F31088EFF310804B
:1016800082F3108821688B6893438B6080F3108805
:101690008C231F32E250083B0022E2540320B5E7BE
:1016A000FFFFFF01DFFEFFFF10B5041E30D08823CF
:1016B000C358002B22D088232422E25022681368CA
:1016C00001218B431360A36A002B1DD12000FFF77B
:1016D000DDFD012811D0226853680E490B4053608C
:1016E000226893682A218B43936022681368293902
:1016F0000B4313602000FFF76DFF10BD8433002201
:10170000C254FEF73DFFD6E72000FFF7A3FEDDE75A
:101710000120F2E7FFB7FFFFF8B50400436E002B8E
:1017200005D101336A228352023A8352F8BD02681E
:1017300095686D0E07231D409268520F1340084FA5
:10174000F85CC000074EF15CFEF772FD6A23E052C0
:10175000785DC000715DFEF76BFD6823E052E5E740
:10176000A8290008A029000870B58423C35C012BB8
:1017700015D0842401260655882524234351026868
:1017800013681168B1431160064A13400022426693
:1017900001680B60202343510255002070BD0220D8
:1017A000FCE7C046FFFFFFDFF8B504000A00842312
:1017B000C35C012B1BD0842501206055882624237F
:1017C000A35123681F6819688143196020688368E2
:1017D000DB00D908114381602000FFF79DFF2368DB
:1017E0001F602023A351002363550020F8BD022071
:1017F000FCE70000F8B504000B008422825C012A9B
:101800001BD084250120605588262422A2512268FD
:101810001768116881431160226891680848014087
:10182000194391602000FFF777FF23681F60202392
:10183000A351002363550020F8BD0220FCE7C046F9
:10184000FFFFFFF1024B802212059A607047C046ED
:1018500000ED00E010B503000C4A0D49521A0D4985
:101860000968002907D00B490868C318934206D8B5
:10187000084A136010BD074907480860F3E700F005
:101880005FF80C23036001204042F3E700300020A2
:1018900000040000D8010020F001002070B50C0009
:1018A0001600002504E000E000BF2070013501347F
:1018B000B542F8DB300070BD70B51600002405E0BD
:1018C0004D1C087800E000BF01342900B442F7DB6A
:1018D000300070BD01204042704780239B014B6067
:1018E0000020704701207047002070470D48854652
:1018F000FFF7A8FF002103E00B4B5B584350043176
:101900000A480B4B42189A42F6D30A4A02E00023D7
:1019100013600432084B9A42F9D300F017F8FEF72F
:10192000ABFDFEE700300020B02A000800000020D8
:101930007400002074000020EC010020FEE700008D
:10194000014B18687047C0461000002070B5002693
:101950000C4D0D4C641BA410A64209D1002600F0CA
:10196000F9FF0A4D0A4C641BA410A64205D170BDB4
:10197000B300EB5898470136EEE7B300EB589847B1
:101980000136F2E7A82A0008A82A0008A82A0008B9
:10199000AC2A000803008218934200D170471970E6
:1019A0000133F9E70FB40B4B13B51C68002C05D0BD
:1019B000A369002B02D1200000F070F805AB2000D5
:1019C000049AA168019300F0CDF916BC08BC04B0DC
:1019D0001847C04610000020002310B50400036023
:1019E00043608360818143661900C2810361436162
:1019F000836108225C30FFF7CDFF054B24626362F0
:101A0000044BA362044BE362044B236310BDC04646
:101A10000123000829230008612300088D23000802
:101A200010B5024900F0BAF810BDC046992600086A
:101A300070B568254A1E55430E002900743100F028
:101A4000F3F8041E08D000212A00016046600C3023
:101A5000A0606832FFF79EFF200070BD10B50248FD
:101A600000F0BDF810BDC046DD01002010B50248F1
:101A700000F0B6F810BDC046DD01002010B50248E8
:101A800000F0ADF810BDC046DE01002010B50248E0
:101A900000F0A6F810BDC046DE01002013B504001A
:101AA000FFF7ECFFA369002B02D0FFF7EFFF13BD98
:101AB000A364E3642365134B134A1B68A26201937A
:101AC000A34201D10123A361200000F01FF8606050
:101AD000200000F01BF8A060200000F017F80022A2
:101AE0000421E0606068FFF777FF01220921A06808
:101AF000FFF772FF02221221E068FFF76DFF01235A
:101B0000A361D2E7102A0008211A0008F8B50700DF
:101B1000FFF7A4FF1F4B1E68B369002B02D13000F2
:101B2000FFF7BCFF4836B4687368013B04D53368DF
:101B3000002B22D03668F6E70C22A55E002D1AD1C4
:101B40002000154B5830E360656600F047F8FFF75A
:101B50008DFF2000082229002560A56065602561B1
:101B60006561A5615C30FFF715FF6563A563A5643A
:101B7000E5642000F8BD6834D7E704213800FFF79A
:101B800057FF041E3060D5D1FFF770FF0C233B6078
:101B9000EFE7C046102A00080100FFFFF7B5040078
:101BA00006000027019148346368A5680093009BF4
:101BB000013B009304D52468002CF5D13800FEBD0C
:101BC000AB89012B08D90E22AB5E013304D029006A
:101BD0003000019B984707436835E8E77047704736
:101BE0007047000070B50F4E0D00316804000029E9
:101BF00002D100F073FB30602900200000F06EFB82
:101C0000431C0AD00323C51C9D43A84207D0291AB0
:101C1000200000F063FB431C01D101256D42280028
:101C200070BDC046E4010020F7B50322CB1C9343EE
:101C3000083306001F000C2B32D20C27B94231D8D2
:101C4000300000F0F5FD324D2B681C00002C2ED129
:101C500039003000FFF7C6FF0400431C1ED12C687A
:101C60002500002D4AD123682900E3183000019394
:101C700000F034FB019B834243D123680337FF1AF2
:101C800003239F4308370C2F00D20C273900300064
:101C9000FFF7A8FF431C34D02368DF19276013E047
:101CA000002BCBDA0C23002533602800FEBD226810
:101CB000D11B20D40B2917D9E2192760A34211D1D7
:101CC0002A606368116053603000250000F0B8FDA1
:101CD00007220B35231D9543EA1A9D42E5D05B1B75
:101CE000A350E2E75A60ECE76268A34201D12A60A0
:101CF000EAE75A60E8E723006468A7E72C006D680C
:101D0000AFE70C233000336000F09AFDCDE7C0460A
:101D1000E0010020936810B5013B9360002B04DACA
:101D20009469A34207DB0A2905D01368581C106088
:101D30001970080010BD00F02FFB0100F9E7F8B59D
:101D400006000F001400D518AC4201D1002007E0B6
:101D500021783A003000FFF7DDFF0134431CF3D156
:101D6000F8BD0000F0B5A1B006000C001F00039202
:101D7000002804D08369002B01D1FFF78FFE8E4B22
:101D80009C421CD17468636EDB0705D4A3899B0554
:101D900002D4A06DFFF723FFA3891B0702D5236997
:101DA000002B1DD12100300000F060FB002817D06F
:101DB000636EDB070DD50120404221B0F0BD7F4BA3
:101DC0009C4201D1B468DEE77D4B9C42DBD1F468D4
:101DD000D9E7A3899B05EED4A06DFFF701FFEAE7E1
:101DE000002308AD6B6120336B761033AB76079719
:101DF000039F3B78002B01D0252B4ED1039BFB1A70
:101E00000593039B9F420DD0059B21003000039A50
:101E1000FFF795FF431C00D1B5E06A69059B944626
:101E200063446B613B78002B00D1ACE001227B1C4A
:101E30000393002352426A6004A9543252182B6063
:101E4000EB60AB601370AB65039B052219785D48AE
:101E500000F0E2FC039B5F1C002820D12A68D30617
:101E600004D5532304A95B1820211970130704D546
:101E7000532304A95B182B211970039B1B782A2B71
:101E800016D00021EB68039F3A78781C303A8446DC
:101E9000092A4FD9002911D117E00137A9E7494B89
:101EA0002A68C01A0123834013432B600397CBE7B2
:101EB000079B191D1B680791002B01DB0B9304E0A6
:101EC0005B42EB60022313432B603B782E2B0AD13D
:101ED0007B782A2B37D1079B02371A1D1B68079284
:101EE000002B2DDB099303223978374800F094FC4E
:101EF000002807D0344B2A68C01A4023834013437C
:101F000001372B6039787B1C0622304803932976F1
:101F100000F082FC002845D02D4B002B27D1072252
:101F2000079B07339343083307936B69049A9B1805
:101F30006B615DE70A214B4367469B180939A3E7AC
:101F400001235B42CEE700231A0001376B6039782A
:101F5000781C30398446092903D9002BC3D0099253
:101F6000C1E70A235A4367465218093BEFE707AB1C
:101F70000093220029003000164B00E000BF0490BF
:101F8000049B0133D1D1636EDB0705D4A3899B0584
:101F900002D4A06DFFF724FEA3895B0600D50AE7F3
:101FA0000D980AE707AB0093220029003000094B87
:101FB00000F082F8E3E7C046342A0008542A0008FB
:101FC000142A0008742A00087A2A00087E2A0008C9
:101FD000000000003F1D0008F7B5150001938A6856
:101FE0000B690C000090934200DA130022002B6072
:101FF00043321278002A01D001332B6023689B06FC
:1020000002D52B6802332B602268062317001F407D
:102010001A4227D0230043331B785A1E934122686B
:10202000920630D4220001990098089E4332B047AE
:10203000431C25D0062320682A68E1680025034058
:10204000042B03D18D1AEB43DB171D40A3682269D3
:10205000934201DD9B1AED180027BD4220D10020DC
:1020600010E00137E3682A689B1ABB42D2DD2200E8
:10207000012301990098089E1932B047431CF0D102
:1020800001204042FEBD3020E1184331087021009C
:102090005A1C45310978A218433202331170C1E746
:1020A0002200012301990098089E1A32B047431C70
:1020B000E6D00137D1E70000F0B58BB006920A00F8
:1020C00043320793059004920A7E0C00109B782AF5
:1020D00007D8622A09D8002A00D1C1E0582A00D1C5
:1020E0008CE026004236327022E01000633815285A
:1020F000F7D8FEF709F816001F00F6FFF6FFF6FF07
:10210000F6FF1F00F6FFF6FFF6FFF6FFA800360009
:102110009A00F6FFF6FFB900F6FF3600F6FFF6FF6D
:102120009E0026001A684236111D1960136833702C
:102130000123A7E0086819680A1D05060BD50D687C
:102140001A60002D03DA2D23049A6D421370614B3F
:102150000A2703931BE00D681A604106F1D52DB2E2
:10216000EFE70D681968081D18602E0601D50D6887
:1021700003E06D06FBD50D68ADB2564B08270393FF
:102180006F2A00D002372300002243331A7063689D
:10219000A360002B03DB0422216891432160002D02
:1021A00002D1049E002B0CD0049E28003900FEF7BB
:1021B0003BF8039B013E5B5C33702B0005009F42A4
:1021C000F3D9082F09D12368DB0706D56368226994
:1021D000934202DC3023013E3370049B9B1B23613E
:1021E000079B210000930598069B09AAFFF7F4FEC0
:1021F000431C4CD1012040420BB0F0BD45310A7068
:10220000344A03921A68216820CA1A60080616D553
:10221000CB0702D52023194321601027002DB2D10E
:10222000202322689A432260ADE7202209680A43EE
:1022300022602200782145321170274AE1E74806E2
:10224000E6D5ADB2E4E71A680D68101D496918605B
:1022500013682E0601D5196002E06D06FBD51980C2
:102260000023049E2361BBE71A68111D19601668DC
:1022700000213000626800F0CFFA002801D0801BF6
:102280006060636823610023049A1370A8E72369E0
:10229000320006990598079DA847431CAAD02368D9
:1022A0009B0715D4099BE0689842A5DA1800A3E7BC
:1022B0002200012306990598079E1932B047431C56
:1022C00098D00135E368099A9B1AAB42F0DCE9E744
:1022D0000025F7E7852A0008962A0008002370B534
:1022E000064D040008002B60FFF7B4FA431C03D12D
:1022F0002B68002B00D0236070BDC046E801002091
:1023000070B50C000E25495F00F0ECFA002803DBE5
:10231000636D1B18636570BDA389024A1340A381D6
:10232000F9E7C046FFEFFFFFF8B51F008B890500F6
:102330000C001600DB0505D50E23C95E0022022322
:1023400000F0EAF9A389054A28001340A38132006E
:102350000E23E15E3B0000F075F8F8BDFFEFFFFFD4
:1023600070B50C000E25495F00F0D6F9A389421C18
:1023700003D1054A1340A38170BD8022520113434B
:10238000A3816065F8E7C046FFEFFFFF10B50E239D
:10239000C95E00F0E3F810BDF8B505000E001400AA
:1023A000002804D08369002B01D1FFF777FB224B73
:1023B0009C422ED16C68A369A360A3891B0732D508
:1023C0002369002B2FD023682269F7B2981A63691A
:1023D000F6B2834205DC2100280000F05DF90028F8
:1023E00027D1A3680130013BA36023685A1C2260F7
:1023F0001F706369834204D0A389DB0707D50A2EC7
:1024000005D12100280000F047F9002811D1300043
:10241000F8BD0A4B9C4201D1AC68CCE7084B9C420A
:10242000C9D1EC68C7E72100280000F01FF8002898
:10243000C9D001267642EAE7342A0008542A000867
:10244000142A000870B50400080011001A000023C7
:10245000054D2B60FFF730FA431C03D12B68002B8E
:1024600000D0236070BDC046E8010020374B70B536
:102470001D6806000C00002D05D0AB69002B02D1B1
:102480002800FFF70BFB324B9C420FD16C680C23EA
:10249000E25E93B211072DD4D90611D4092301208D
:1024A000336037331343A381404270BD294B9C42B4
:1024B00001D1AC68EBE7284B9C42E8D1EC68E6E739
:1024C0005B0713D5616B002908D023004433994280
:1024D00002D0300000F0BCF9002363632422A389FA
:1024E0009343A38100236360236923600823A289A7
:1024F0001343A3812369002B0BD1A0218022A38940
:10250000890092000B40934203D02100300000F07C
:102510003FF90C22A35E01201A0099B20240034247
:102520000FD00022A26062695242A261002022699B
:102530008242BAD10A06B8D540221343A38101389A
:10254000B3E7880700D46269A260EFE710000020BB
:10255000342A0008542A0008142A0008002370B501
:10256000064D040008002B60FFF7B4F9431C03D1AB
:102570002B68002B00D0236070BDC046E80100200E
:10258000F7B58B8905000C001A075FD44A68002A4A
:1025900004DC0A6C002A01DC0020FEBDE76A002F83
:1025A000FAD0002280212E682A601A0049010A40D0
:1025B0000B4234D0606DA3895B0706D56368C01AEF
:1025C000636B002B01D0236CC01A0200216A002328
:1025D0002800E76AB847A189431C06D12B681D2B48
:1025E00031D82C4ADA40D3072DD500236360236904
:1025F0002360CB0405D5431C02D12B68002B00D1EE
:102600006065616B2E600029C6D023004433994277
:1026100002D0280000F01CF900206063BDE7012310
:102620002800216AB847431CC5D12B68002BC2D0B3
:102630001D2B01D0162B01D12E60ADE74023A289BE
:102640001343A381A9E740230B43FAE70F69002F47
:10265000A2D00A680F60D21B019200229B0700D112
:102660004A69A260019B002B00DC95E73A00280034
:10267000019B216AA66AB047002806DC402301209E
:10268000A28940421343A38187E7019B3F181B1A8D
:102690000193E7E7010040200B6970B505000C00CD
:1026A000002B02D10025280070BD002804D08369CA
:1026B000002B01D1FFF7F2F9144B9C421BD16C683F
:1026C0000C22A35E002BEDD0626ED20704D49B05D2
:1026D00002D4A06DFFF783FA28002100FFF750FF16
:1026E000636E0500DB07DED4A3899B05DBD4A06DF8
:1026F000FFF776FAD7E7064B9C4201D1AC68DFE7DB
:10270000044B9C42DCD1EC68DAE7C046342A00086E
:10271000542A0008142A000870B5040008001100AB
:102720001A000023054D2B60FFF7DEF8431C03D190
:102730002B68002B00D0236070BDC046E80100204C
:1027400070B50E001D000E23C95E140096B000295E
:1027500008DA0C22B35E00222A601B0611D4802303
:10276000DB000FE06A4600F0D1F80028F1DBF0232F
:1027700001991B021940054BC9184B425941296068
:10278000EDE740230020236016B070BD00E0FFFF9E
:10279000F7B502268B8905000C00334206D02300D2
:1027A00047332360236101236361F7BD6A4601ABB0
:1027B000FFF7C6FF009907002800FFF735FA002849
:1027C00008D10C22A35E9A05EFD4032293431E4343
:1027D000A681E4E70F4BAB628023A28920601343FC
:1027E000A381009B20616361019B002B0DD0280019
:1027F0000E23E15E00F09CF8002806D00322A38996
:1028000093431A0001231343A381A0890743A7819F
:10281000CBE7C046211A0008C9B28218904201D104
:102820000020704703788B42FBD00130F6E70000B0
:1028300010B50248FFF7D3F910BDC046DC010020F7
:1028400010B50248FFF7CCF910BDC046DC010020EE
:1028500070B50500002910D00C1F2368002B00DA8A
:10286000E4182800FFF7E4FF1D4A1368002B05D188
:10287000636014602800FFF7E3FF70BDA34208D92E
:10288000216860188342F3D118685B6841182160A1
:10289000EEE71A005B68002B01D0A342F9D911685A
:1028A0005018A0420BD120680918501811608342BB
:1028B000E0D118685B68411811605360DAE7A04204
:1028C00002D90C232B60D5E721686018834203D11D
:1028D00018685B684118216063605460CAE7C046AD
:1028E000E001002070B50400080011001A00002368
:1028F000054D2B60FEF7D2FF431C03D12B68002B44
:1029000000D0236070BDC046E8010020002370B5F0
:10291000064D0400080011002B60FEF7DEFF431C8B
:1029200003D12B68002B00D0236070BDE80100208C
:10293000002370B5064D040008002B60FEF7D2FF9F
:10294000431C03D12B68002B00D0236070BDC04610
:10295000E8010020F8B5C046F8BC08BC9E467047A8
:0C296000F8B5C046F8BC08BC9E467047A5
:10296C0048656C6C6F20576F726C640A0D00000028
:10297C00200000020000005000080050010002007E
:10298C000400060008000A000C00100020004000A3
:10299C008000000108040204080101010101010387
:1029AC000701000000000000000000000000000013
:1029BC00000000000000000000000000000000000B
:1029CC0000000000010000000200000003000000F5
:1029DC0004000000060000000700000008000000D2
:1029EC0009000000000000000000000000000000D2
:1029FC0000000000010000000200000003000000C5
:102A0C000400000014000020000000000000000082
:102A1C0000000000000000000000000000000000AA
:102A2C00000000000000000000000000000000009A
:102A3C00000000000000000000000000000000008A
:102A4C00000000000000000000000000000000007A
:102A5C00000000000000000000000000000000006A
:102A6C000000000000000000232D302B2000686CBB
:102A7C004C00656667454647003031323334353695
:102A8C0037383941424344454600303132333435CE
:0C2A9C00363738396162636465660000FB
:042AA800E900000839
:042AAC00C10000085D
:102AB000004400400100000004000000001BB700BB
:102AC0001400002000000000342A0008542A0008E6
:102AD000142A0008000000000000000000000000B0
:102AE00000000000000000000000000000000000E6
:102AF00000000000000000000000000000000000D6
:102B000000000000000000000000000000000000C5
:102B100000000000000000000000000000000000B5
:042B200000000000B1
:04000005080018EDEA
:00000001FF
