:020000040800F2
:1000000000300020592600089505000897050008D3
:1000100000000000000000000000000000000000E0
:10002000000000000000000000000000990500082A
:1000300000000000000000009B0500089D0500086E
:10004000A926000800000000A9260008A92600082B
:10005000A9260008A9260008A9260008A505000869
:1000600000000000B1050008A9260008A926000824
:10007000A9260008A9260008A926000800000000FB
:10008000A92600080000000000000000A9260008C2
:1000900000000000A9260008A9260008C1050008E4
:1000A00000000000A926000800000000A9260008A2
:1000B000A926000800000000000000000000000069
:1000C00010B5064C2378002B07D1054B002B02D02E
:1000D000044800E000BF0123237010BD1000002081
:1000E0000000000004270008044B10B5002B03D0CB
:1000F0000349044800E000BF10BDC04600000000F6
:100100001400002004270008002243088B4274D307
:1001100003098B425FD3030A8B4244D3030B8B4208
:1001200028D3030C8B420DD3FF22090212BA030C11
:100130008B4202D31212090265D0030B8B4219D3F2
:1001400000E0090AC30B8B4201D3CB03C01A524112
:10015000830B8B4201D38B03C01A5241430B8B425A
:1001600001D34B03C01A5241030B8B4201D30B0343
:10017000C01A5241C30A8B4201D3CB02C01A52416A
:10018000830A8B4201D38B02C01A5241430A8B422D
:1001900001D34B02C01A5241030A8B4201D30B0216
:1001A000C01A5241CDD2C3098B4201D3CB01C01A30
:1001B000524183098B4201D38B01C01A524143093A
:1001C0008B4201D34B01C01A524103098B4201D328
:1001D0000B01C01A5241C3088B4201D3CB00C01A95
:1001E000524183088B4201D38B00C01A524143080D
:1001F0008B4201D34B00C01A5241411A00D2014632
:10020000524110467047FFE701B5002000F006F8A4
:1002100002BDC0460029F7D076E770477047C04658
:1002200072B6FEE700B58DB01C22002105A802F0D1
:1002300061FA14220021684602F05CFA11490B6849
:1002400007229343063A13430B60059280235B0217
:10025000069305A800F096FB00280FD10723009312
:10026000063B019300230293039304930121684604
:1002700000F014FD002803D10DB000BDFFF7D0FF42
:10028000FFF7CEFF0020024010B500F0F3FAFFF7B1
:10029000C9FF00F031F800F04DF800F063F80020DD
:1002A00000F0ECF90121002000F02AFA0F49E123C7
:1002B0005B020B6000234B600B814B818B81002024
:1002C00000F092FA00280ED12721094800F026F903
:1002D000084800F055F9FA20800000F0E9FA012002
:1002E00000F0D8F8F0E7FFF79BFFC0462C00002095
:1002F000980000201C27000884B00D4B596B042285
:1003000011435963596B0A400192019A596B20229B
:1003100011435963596B0A400292029A596B0122A8
:10032000114359635B6B1A400392039B04B07047FF
:100330000010024000B583B0094A916B01231943B4
:100340009163926B13400193019B002200210920CD
:1003500000F0C0FA092000F0EDFA03B000BDC0467D
:100360000010024010B51448144B0360144B436056
:10037000002383600122C260036143618361C36122
:10038000036201F0F3F900280CD100210A4801F0C2
:100390008BFE002809D10021074801F0B1FE00289A
:1003A00006D110BDFFF73CFFEFE7FFF739FFF2E79B
:1003B000FFF736FFF5E7C0469800002000540040E4
:1003C000885D801030B58FB004001422002109A888
:1003D00002F090F91C22002102A802F08BF9294BAF
:1003E00022689A4201D00FB030BD0223029302A8C6
:1003F00000F042FD00283FD1234D6A6B01231A43D0
:100400006A636A6B1A400092009AC022D200099275
:1004100012220A920B9302330C9303330D93A02004
:1004200009A9C00500F0C0FDEA6B802189030A43D9
:10043000EA63EB6B0B400193019B1448144B036080
:100440000B234360053383600023C3608022026175
:1004500043618361C361036200F0BAFE00280ED1DC
:100460000A4BA3639C6200220021172000F032FA9D
:10047000172000F05FFAB6E7FFF7D2FEBCE7FFF700
:10048000CFFEEDE700540040001002403C00002089
:100490000800024010B584B00F2301009943000109
:1004A000C0B203AA0C230C001C431470082421437F
:1004B0005170034393702043D070054B1978054B5E
:1004C00018680A230093063B01F0BEF904B010BD82
:1004D000F0000020EC00002010B584B00F230100D4
:1004E00099430001C0B203AA0D230C001C431470F1
:1004F000092421435170034393702043D070054B6E
:100500001978054B18680A230093063B01F09CF903
:1005100004B010BDF0000020EC00002010B5164B18
:1005200018604900154B1970322000F0C1F9032002
:10053000FFF7B0FF052000F0BBF90320FFF7AAFF8B
:10054000012000F0B5F90320FFF7A4FF0A2000F016
:10055000AFF90220FFF79EFF2820FFF79BFF0C203A
:10056000FFF798FF0620FFF795FF0120FFF792FFA6
:10057000022000F09DF910BDEC000020F0000020EA
:1005800010B5040002E00134FFF7A6FF2078002830
:10059000F9D110BDFEE7FEE77047704710B500F0D7
:1005A00075F910BD10B5002000F0F2F810BD000084
:1005B00010B5024800F0A8FE10BDC0463C00002067
:1005C00010B5074B1B689A69E023DB001A4203D081
:1005D000034801F02BFD10BD014801F001FAFAE7D4
:1005E0009800002082B00A4B196C01221143196453
:1005F000196C0A400092009ADA6B802149050A437F
:10060000DA63DB6B0B400193019B02B07047C0467D
:100610000010024070B588B0174B5A6B012422437A
:100620005A635A6B22400092009A5A6B22435A63D3
:100630005A6B22400192019ADA6B802189020A43A7
:10064000DA63DB6B0B400293029B042303930225C6
:100650000495069505940794A026F60503A9300095
:1006600000F0A2FC082303930495079403A930002B
:1006700000F09AFC08B070BD0010024070B588B060
:100680000400012832D800281DD11A4A516B0123D9
:1006900019435163526B13400193019B6300164A47
:1006A0009E5A039601230493002305930333069374
:1006B000A300124A985803A900F076FC012C0CD034
:1006C000002008B070BD0B4A516B042319435163DD
:1006D000526B13400293029BE0E7A400074BE058E3
:1006E0000122310000F03EFD0020EAE702204042F6
:1006F000E7E7C04600100240282700082C27000822
:1007000010B586B004001C4A506B04231843506394
:10071000526B13400093009B80239B0101930123A4
:10072000039301330493002908D10023029301A904
:10073000124800F039FC002006B010BD104B0293A7
:1007400001A90E4800F030FC60000419A4000D4817
:1007500004190D49200000F053FE0C4A002120002E
:1007600000F03CFE00220F21072000F0B3F8072024
:1007700000F0E0F8DFE7C04600100240000800503B
:1007800000002110880100200D000006AB070008C2
:1007900010B503004000C0188000024B181800F08C
:1007A00037FE10BD88010020704710B50020FFF70C
:1007B000FBFF10BD10B50B4B1B6803600B6843605B
:1007C0000C2343614B8903614B6883600B89C360D1
:1007D0008B89836180231B02C3610023436201F084
:1007E000FBFE10BD0000002070B50D0000280DD1EB
:1007F00094244443084824182000FFF70BFF2900E5
:100800002000FFF7D7FF002803D170BD022040422F
:10081000FBE704204042F8E7F400002010B5040094
:10082000114B1978002901D1012010BDFA20800058
:10083000FFF76AFC01000D4B1868FFF765FC00F03C
:1008400085F800280DD1032C01D90120EDE70130F6
:1008500000222100404200F03DF8054B1C600020C2
:10086000E3E70120E1E7C046040000200C0000207F
:100870000800002010B50320FFF7D0FF041E02D0AF
:100880000124200010BDFFF7ADFEFAE7034B1B78F3
:10089000034A11685B1813607047C04604000020CB
:1008A00094010020014B18687047C0469401002055
:1008B00070B50400FFF7F6FF0500631C02D0044B7F
:1008C0001B78E418FFF7EEFF401BA042FAD370BD7F
:1008D0000400002070B5002811DB8308134EC033DC
:1008E0009B009D5903242040C000FF221400844037
:1008F000A54389010A4082402A439A5170BD0F23C3
:100900000340083B9B0806339B00094A9446634416
:100910005C6803221040C000FC3215008540AC43E7
:1009200089010A40824022435A60E7E700E100E083
:1009300000ED00E0002805DB1F2318401E3B83402C
:10094000014A13607047C04600E100E0013880238F
:100950005B0498420FD2094A50600948036A1B029F
:100960001B0AC02109060B4303620023936007336F
:100970001360002070470120FCE7C04610E000E053
:1009800000ED00E070B5041E00D139E10368DB071B
:100990002CD5A14B9A6838231340082B22D04368EA
:1009A0008022520293422ED0A022D202934231D012
:1009B000994B1A6899490A401A601A6898490A407E
:1009C0001A606368002B31D0FFF76CFF0500924B73
:1009D0001B689B030AD4FFF765FF401B6428F6D908
:1009E00003200EE14368002B00D10BE123689B0735
:1009F00047D5894B9B6838221A4261D1E368002BA6
:100A000022D10120FDE0844A116880235B020B4360
:100A10001360D6E7804B19688022D2020A431A601D
:100A20001968802252020A431A60CAE7FFF73AFFA8
:100A30000500794B1B689B03D8D5FFF733FF401B9C
:100A40006428F6D90320DCE0734B5A6875490A40E4
:100A5000616909020A435A601A6873490A402169A8
:100A60000A431A601B68DB0A07221A406F4BD34007
:100A70006F4A13606F4B1868FFF7D0FE002800D054
:100A8000C2E023681B0757D5634B9A68382313408D
:100A9000182B4ED0A369002B77D05F4A136E01212B
:100AA0000B431366FFF7FEFE05005B4B1B6E9B07B7
:100AB00042D4FFF7F7FE401B0228F6D90320A0E03E
:100AC000E368002B22D0544A136857490B40216930
:100AD0000B431360116880235B000B431360FFF727
:100AE000E1FE05004C4B1B685B0506D4FFF7DAFE00
:100AF000401B0228F6D9032083E047494B68494A46
:100B000013406269120213434B60BAE7424A13680A
:100B100049490B401360FFF7C5FE05003E4B1B68BB
:100B20005B05AED5FFF7BEFE401B0228F6D90320B9
:100B300067E0A369002B69D023685B0768D5364B53
:100B40009A6838231340202B32D0A368012B34D06D
:100B5000052B38D0304BDA6D01218A43DA65DA6D26
:100B600003318A43DA65A368002B38D0FFF79AFE79
:100B70000400294BDB6D9B072FD4FFF793FE001B6E
:100B80002E4B9842F5D903203BE0234A136E0121F6
:100B90008B431366FFF786FE05001F4B1B6E9B07FA
:100BA000CAD5FFF77FFE401B0228F6D9032028E0B4
:100BB000A368002B2ED0002023E0174AD36D01211B
:100BC0000B43D365CFE7144BDA6D04210A43DA6592
:100BD000DA6D03390A43DA65C5E7002011E0FFF753
:100BE00061FE04000C4BDB6D9B0707D5FFF75AFE37
:100BF000001B124B9842F5D9032002E0002000E0D0
:100C0000012070BD0120FCE70120FAE70120F8E790
:100C10000020F6E70120F4E700100240FFFFFEFF8E
:100C2000FFFFFBFFFF80FFFFFFC7FFFF006CDC0241
:100C30000C00002008000020FFFEFFFF88130000CA
:100C4000144B9B6838221A4207D1124B1A68D20AF9
:100C5000072313401048D84070470E4B9A6838233A
:100C60001340082B10D00B4B9A6838231340202BCD
:100C70000CD0084B9A6838231340182B01D0002061
:100C8000EAE7FA20C001E7E70348E5E78020000231
:100C9000E2E7C04600100240006CDC0270B50400C0
:100CA0000D00002800D1A4E0544B1A68072313401C
:100CB0008B4221D323689A0710D55B0707D550498B
:100CC0008B68504A1A40B0231B0113438B604C4A77
:100CD00093684D490B40E1680B4393602368DB0741
:100CE0004CD56368012B1ED0002B39D1444A1268C1
:100CF00052051CD4012064E0404A136807218B434D
:100D00002B431360FFF7CEFD06003C4B1A68072308
:100D10001340AB42CED0FFF7C5FD801B3B4A90424B
:100D2000F3D903204DE0364A1268920363D5344963
:100D30008A680720824313438B60FFF7B3FD0600E8
:100D40002F4B9B6838221A406368DB009A4215D00B
:100D5000FFF7A8FD801B2D4B9842F1D9032030E00E
:100D6000032B05D0264AD26D9207E0D4012028E05B
:100D7000234A126E9207DAD4012022E01F4B1A6830
:100D800007231340AB421DD823685B0706D51C4AD6
:100D900093681F490B4021690B439360FFF750FF95
:100DA000174B9A68120A0F2313409B00194A9A584E
:100DB0001F231340D840184B1860184B1868FFF7D2
:100DC0002DFD70BD0D4A136807218B432B43136023
:100DD000FFF768FD0600094B1A6807231340AB4272
:100DE000D2D0FFF75FFD801B084B9842F3D9032058
:100DF000E7E70120E5E70120E3E7C04600200240E5
:100E000000100240FF84FFFFFFF0FFFF8813000087
:100E1000FF8FFFFF4C2700080C0000200800002077
:100E200010B5FFF70DFF074B9A68120A0F23134006
:100E30009B00054A9A581F231340D840034B186063
:100E400010BDC046001002404C2700080C000020D6
:100E500010B5FFF7E5FF064B9A68120B0723134006
:100E60009B00044A9A581F231340D84010BDC04627
:100E7000001002408C27000870B582B0040003689F
:100E80005B064ED5414BDB6BDB0035D43F4AD16B63
:100E9000802040050143D163D36B03400193019B44
:100EA00001253A4BD96DC02292000B00134011422C
:100EB00010D0A2699A420DD0344AD36D34490B4008
:100EC000D06D802149020143D165D16D3148014087
:100ED000D165D365DB0711D42C4AD36D2C490B4067
:100EE000A1690B43D3650020012D1BD1274AD36B89
:100EF00029490B40D36315E00025D2E7FFF7D2FC68
:100F00000600224BDB6D9B0707D4FFF7CBFC801B51
:100F1000224B9842F5D9032000E000200028E3D1BD
:100F2000DAE700202368DB0706D5184A536D032152
:100F30008B43A1680B43536523689B0706D5134A6F
:100F4000536D17490B40E1680B43536523689B06BB
:100F500006D50E4A536D9B009B0861690B43536590
:100F600023685B0706D5094A536D0E490B4021697A
:100F70000B43536523681B0606D5044A1368E0211A
:100F80008B4361680B43136002B070BD00100240D8
:100F9000FFFCFFFFFFFFFEFFFFFFFFEF88130000D6
:100FA000FFCFFFFFFF3FFFFFF0B5D6464F46464657
:100FB000C0B500233BE0052500E00025A5402C003E
:100FC0003C43634D1832920054518022AC584A463B
:100FD000D24325004E46B5434E68F60302D54D4632
:100FE0002C4325005A4C8027E5518425645925005F
:100FF00015404E68B60302D54D462C432500544C8F
:101000008427E5512468250015404E68F60202D574
:101010004D462C4325004E4C2560646822404D68A7
:10102000AD0201D54A462243494C626001330C6847
:101030002200DA4000D186E001229A4026001640C4
:10104000B1461442F2D04C68022C01D0122C18D1B7
:10105000DD080835AD002C58A44607271F40BF0007
:101060000F24A2462600BE40B04666464446A6432C
:10107000B4460C69564626403400BC4066463443AC
:101080002C500468A4465D000324A2462700AF400C
:10109000B846FF4366464446A643B4464C685646A7
:1010A00026403400AC406646344304604C68661EFB
:1010B000012E03D9112C01D0122C12D184683C408E
:1010C000A446CC68AC40664634438460446894438C
:1010D0004A68120994460122664632409A402243E9
:1010E00042604A68032A05D0C2683A408F68AF4020
:1010F0001743C7604A68D20098D59A08140018347C
:10110000A400134D675903251D40EC000F25A54091
:10111000AF43A025ED05A84200D14EE70D4DA842F2
:101120000BD00D4DA8420AD00C4DA84209D00C4D51
:10113000A84200D13FE7062540E701253EE702250A
:101140003CE703253AE7E0BCBA46B146A846F0BD05
:10115000001802400004005000080050000C00502D
:1011600000140050002A01D0816170478162FCE7C1
:1011700010B50400FF202368184008381421FEF73A
:10118000C3FF236C9B08064A944663449B00636438
:10119000044BA3641C2318401B3B8340E36410BD35
:1011A0000082001080080240FF2342681340064A74
:1011B0009A1892000265054A4265013B03221A40D3
:1011C00001239340836570473F820010400902402D
:1011D00070B5041E4DD00568274BE8181421FEF7A2
:1011E00093FF8000206425230222E2542B68234AC7
:1011F00013402B6021680A68A368E06803432069F4
:10120000034360690343A0690343E0690343206A21
:10121000034313430B602000FFF7AAFF8023DB0189
:10122000A2689A4218D0626CFF2361680B40136079
:10123000A36CE26C5A606368013B032B0FD9002357
:1012400023656365A3650023E36325220121A1547F
:10125000013AA354002070BD00236360E3E720003F
:10126000FFF7A2FF236D00221A60636DA26D5A6022
:10127000E9E70120EFE7C046F8FFFDBF0F80FFFF61
:1012800070B524230022C2540132C2540133C35C1E
:10129000022B03D00423C363012070BD02681368CE
:1012A0000E218B43136001680A6801239A430A6088
:1012B000416C0A68124C22400A60124C62681C2180
:1012C000056C29408B4013436360836CC26C5A6089
:1012D000036D002B06D01A6809490A401A60436D55
:1012E000826D5A6025230122C254013B0022C25460
:1012F000836B002B02D098470020CEE70020CCE77C
:10130000FFFEFFFF0000024070B5314B1968046812
:1013100025681C23026C134004229A40114216D007
:101320006A0714D523689B0603D4236804229343D9
:101330002360274C63681C21026C114004228A4000
:1013400013436360036B002B00D0984770BD0222EB
:101350009A4011421CD0AA071AD523689B0606D4CE
:1013600023680A22934323602523093AC254184C68
:1013700063681C21026C114002228A40134363609F
:1013800024230022C254C36A002BDFD09847DDE734
:1013900008229A401142D9D02B07D7D523680E22B4
:1013A000934323600A4C62681C21036C194001239B
:1013B0001D008D402A436260C3632522835423337A
:1013C0000022C254436B002BC0D09847BEE7C046F2
:1013D000000002402523C05CC0B27047012909D03B
:1013E00002290AD0002901D00120704742608260A2
:1013F0000800FAE742600020F7E782600020F4E787
:10140000002802D00160002070470120FCE70000A6
:1014100070B506000268140C01252C401F231340F0
:101420009D4064010A4BE3181A68154204D01D6000
:101430004368002B00D09847064B9C4664442368C1
:101440001D4204D02560B368002B00D0984770BDC2
:101450000C1802401018024003689A69920701D5DF
:1014600000229A6203689A69D20703D49A6901211B
:101470000A439A617047000010B58905890D12046E
:1014800011431943029B19434900490804686268E3
:101490005B0D8020C0000340024803439A43114380
:1014A000616010BDFF63FF0330B5CB0709D5412351
:1014B000C35C28221340282B01D0F22302E01A3308
:1014C00000E000238A0709D544241C434122825CA2
:1014D00028252A40282A0FD0F42213430AB2002AD2
:1014E0000CDB10290DD020290ED040290FD0016827
:1014F0000A689A430A6030BD2300EFE7B82213431D
:10150000EFE790221343EEE720221343EDE740225A
:101510001343ECE7F0B5C64600B504000D00170014
:1015200001688B69102216001E401A4200D175E036
:101530001023CB6100239846002623689869820611
:1015400031D4002E2FD16B1CF7D0FFF7ABF9C01BA5
:10155000A84201D8002DF0D121684B688022D20129
:1015600013404222A25CD2B28869000403D5002B4A
:1015700001D1202A0ED123689B699B06DDD4FFF799
:1015800091F9C01B1928F6D9202342461A439046E8
:101590000126D2E74A688023DB0113434B60FFF743
:1015A00081F90700E7E7002E01D12022DA61042645
:1015B000434633431E00012522689369D90504D5AB
:1015C00001210E43FF31D16101255A0506D50822BC
:1015D000164322688021C900D16101259B051FD5D2
:1015E00002231E43236880229200DA610125200035
:1015F000FFF732FF226853680B490B405360636C5E
:101600001E43666441232022E25400232232A35465
:10161000023AA354280080BCB846F0BD0025CBE7B1
:10162000002DF7D0E3E7C04600E800FE70B50400E7
:101630000D00160023689B699B0720D43200290007
:101640002000FFF767FF00281BD16B1CF2D0FFF7CB
:1016500029F9801BA84201D8002DEBD123689B6992
:101660009B07E7D4636C2022134363644123E25455
:1016700000232232A354023AA354012000E00020A8
:1016800070BD0120FCE7F0B5D6464F4680B583B06B
:1016900007000D00160099460A9B9A463B689C6914
:1016A0002C40641B63425C410196B44228D15246EF
:1016B00049463800FFF72EFF002827D14B4601335B
:1016C000ECD0FFF7EFF85346C01A484502D84B4616
:1016D000002BE3D13B689B692B405B1B5A42534173
:1016E000019A9342DAD17B6C202213437B6441231D
:1016F000FA5400232232BB54023ABB54012000E0CA
:10170000002003B0C0BCBA46B146F0BD0120F8E7E6
:1017100070B504000D00160003E023689B699B066A
:1017200012D523689B699B061BD432002900200038
:10173000FFF7F0FE002816D1FFF7B4F8801BA8428F
:10174000EBD8002DEDD1E8E7636C202213436364EE
:101750004123E25400232232A354023AA35401202D
:1017600000E0002070BD0120FCE7000010B5041E61
:1017700060D04123C35C002B48D041232422E25493
:101780002268136801218B43136022682A4B616829
:101790000B4013612268936828490B409360E3680B
:1017A000012B39D0226884231B02A1680B4393606C
:1017B000E368022B37D02268536821490B405360FD
:1017C000226851681F4B0B4353602268D3681B4942
:1017D0000B40D360236962691343A2691202216836
:1017E0001343CB602268E369216A0B4313602268CC
:1017F000136801210B4313600023636441221F31EE
:10180000A15423630132A354002010BD40330022B1
:10181000C254FEF7D7FDB0E7226880231B02A168FF
:101820000B439360C4E72268516880231B010B437C
:101830005360C5E70120E8E7FFFFFFF0FF7FFFFFF0
:10184000FFF7FFFF00800002F0B585B004000E0036
:10185000029203930A9D4123C35C202B00D0AEE08B
:101860002033C35C012B00D1ACE040230122C254E1
:10187000FFF718F8070080210090192301220902C0
:101880002000FFF700FF002800D09DE04123212227
:10189000E2540133113AE25400236364029A626213
:1018A000039A62856363638D9BB2FF2B1ED9FF236E
:1018B000238580235B04228D002A1CD02268029994
:1018C00009789162626A01326262628D013A92B273
:1018D0006285228D013A92B222850132D2B23E490E
:1018E000009131002000FFF7C7FD18E0638D2385CC
:1018F00080239B04DFE7D2B23749009131002000FA
:10190000FFF7BAFD0BE0628D92B222858023D2B23E
:10191000002100919B0431002000FFF7ADFD638D95
:101920009BB2002B34D03A0029002000FFF77EFE46
:1019300000284BD12368626A12789A62636A013385
:101940006362638D013B9BB26385238D013B9BB238
:101950002385628D92B2002AE1D0002BDFD100975F
:101960002B00002280212000FFF78DFE00282FD1C0
:10197000638D9BB2FF2BC6D9FF2323857F3B0022BB
:1019800000925B04FF3231002000FFF775FDC6E7CF
:101990003A0029002000FFF7BBFE00281AD1236877
:1019A0002022DA6121684B680C4D2B404B604123AB
:1019B000E25400232232A354023AA35400E002204E
:1019C00005B0F0BD0220FBE70120F9E70120F7E7B1
:1019D0000120F5E70120F3E70020008000E800FE89
:1019E00010B5036899691A68436B002B00D09847BB
:1019F00010BD70477047000010B5040003681A68F6
:101A000042210020605451040CD51A6819490A403B
:101A10001A604123E35C292B0BD04123E35C2A2B82
:101A200017D010BD1204F4D51A6813490A401A6081
:101A3000EFE718332822E254203B236301212000E2
:101A4000FFF732FD40230022E2542000FFF7D1FFD0
:101A5000E7E717332822E2541F3B236302212000CB
:101A6000FFF722FD40230022E2542000FFF7C2FFCF
:101A7000D7E7C046FFBFFFFFFF7FFFFF7047F8B506
:101A800004004123C35C28221340282B06D003689E
:101A90000822DA6140230022C254F8BD01688E6931
:101AA000360C273B1E408D692D0CFE273D408B6870
:101AB0009B059B0DCA681740C268022A24D1DA0927
:101AC0006A400620104211D1A26C0132A264A26CBD
:101AD000022AE2D10022A2640230C861402162548D
:101AE0001A0031002000FFF7C9FFD6E78021090264
:101AF0002000FFF7D9FC40230022E2543A003100D5
:101B00002000FFF7BBFFC8E780210902FFF7CCFCEC
:101B100040230022E2542A0031002000FFF7AEFFEC
:101B2000BBE7704710B50400164BC3620023036384
:101B300041222020A0540132A35463634B0713D5E4
:101B400023685B6A626A1370636A01336362238D80
:101B5000002B09D0013B2385638D013B9BB263853C
:101B6000636C04221343636407492000FFF79CFC65
:101B700023681022DA6140230022E2542000FFF79C
:101B8000D0FF10BD0000FFFF0380000070477047CA
:101B900010B54123C35C602B06D0002303634022B1
:101BA0008354FFF7F3FF10BD1F3B2022C2540023D4
:101BB000036320328354FFF7EAFFF4E710B5040013
:101BC0004123C35C00204222A054434AE262608564
:101BD000626C0A436264283BDBB2022B1BD80321F0
:101BE0002000FFF761FC41232822E2543B4B636352
:101BF000236BA26B002A03D0112B2DD0212B2BD0CD
:101C0000E26B002A03D0122B46D0222B44D02000B6
:101C1000FFF7BEFF10BD32492000FFF745FC200052
:101C2000FFF71AFC4123E35C602B12D020234122F2
:101C3000A354226891690B420BD09369DB0605D54A
:101C40001023D361636C042213436364236820224E
:101C5000DA6100236363CBE723681A68520403D573
:101C60001A6820490A401A60A06BFFF7B3FB0128ED
:101C70000ED0A36B1C4A9A6340230022E254A06B4F
:101C8000FFF7FEFA0028C5D0A06B836B9847C1E729
:101C90002000FFF77DFFBDE723681A68120403D513
:101CA0001A6812490A401A60E06BFFF793FB01289B
:101CB0000ED0E36B0C4A9A6340230022E254E06B9F
:101CC000FFF7DEFA0028A5D0E06B836B9847A1E709
:101CD0002000FFF75DFF9DE70000FFFFE91E000801
:101CE00003800000FFBFFFFF8B200008FF7FFFFF86
:101CF000F8B504000D0001680E68C76A4123C25C94
:101D0000D3B22020C861212A0ED0292B0CD0222B3F
:101D100075D02A2B73D0282B0CD16C492000FFF7EB
:101D2000C3FB0023236305E069492000FFF7BCFBE8
:101D3000212323632268516880231B020B435360D5
:101D40002268536863490B4053602000FFF784FB0F
:101D500073045BD5226813685F490B401360A36B63
:101D6000002B03D01B685B689BB263856B0711D5A2
:101D700004239D4323685B6A626A1370636A0133BC
:101D80006362238D002B05D0013B2385638D013BCE
:101D90009BB26385638D9BB2002B03D0636C0422DE
:101DA00013436364EB0610D5F3060ED5638D9BB227
:101DB000002B50D14133E35C282B36D04123E35C28
:101DC000292B3BD023681022DA6100234222A3543E
:101DD0006363636C002B50D1E26A404B9A4259D145
:101DE0004123E35C222B65D041232022E2540023CF
:101DF00023632032A3542000FFF7FBFD59E038494C
:101E00002000FFF751FB2223236393E73304ADD572
:101E10002268136833490B401360E36B002BA5D095
:101E20001B685B689BB26385A0E780239B049F428D
:101E3000C4D129002000FFF775FEC6E7274B9F425B
:101E4000C0D023681022DA612000FFF705FB2000D4
:101E5000FFF7D2FDB9E723681022DA61636C0C3A10
:101E600013436364002F03D080235B049F42ACD1F3
:101E7000616C2000FFF7A2FEA7E7616C2000FFF76E
:101E80009DFE4123E35C282B13D129002000FFF79E
:101E900049FE0EE02000FFF7AFFD104BE362412347
:101EA0002022E254002323632032A3542000FFF7B2
:101EB00038FEF8BD1F332022E25400232363203272
:101EC000A3542000FFF796FDF3E7C046038000000F
:101ED0000180000000E800FEFFBFFFFF0000FFFFE1
:101EE00002800000FF7FFFFF70B50400C56A402339
:101EF000C35C012B00D195E0012340202354480905
:101F0000034201D0930613D4CB0640D5D3063ED569
:101F1000638D9BB2002B28D14133E35C282B0FD07B
:101F20004123E35C292B13D023681022DA6102E0FD
:101F30002000FFF7DDFE40230022E254002070BDA8
:101F400080239B049D42EBD12000FFF7EBFDF2E7DD
:101F5000354B9D42E8D023681022DA612000FFF75C
:101F60007BFA2000FFF748FDE5E723681022DA61DD
:101F7000636C0C3A13436364002D03D080235B042D
:101F80009D42D8D1616C2000FFF718FED3E74B07C4
:101F90001ED553071CD5638D9BB2002B0DD0236833
:101FA0005B6A626A1370636A01336362238D013B6B
:101FB0002385638D013B9BB26385638D9BB2002BB0
:101FC000B9D1194B9D42B6D02000FFF715FDB2E7FD
:101FD0000B0701D5130716D48B07ACD59307AAD5E9
:101FE000638D9BB2002B12D02368626A12789A62CA
:101FF000636A01336362638D013B9BB26385238D0A
:10200000013B238597E72000FFF739FD93E7802305
:102010005B049D4202D0002D00D08CE72000FFF72A
:10202000EBFC88E702208AE70000FFFF70B502683A
:1020300093691168DC0508D50C0606D5446C0125AA
:102040002C43446480246400D4615A0509D50A06EF
:1020500007D5426C08242243426402688024E400CD
:10206000D4619B0509D50B0607D5436C02221343A7
:1020700043640368FF32FF32DA61416C0B230B4289
:1020800000D170BDFFF79AFDFBE710B5806A836B46
:10209000002B01D000229A63C36B002B01D00022D9
:1020A0009A63FFF775FD10BDF0B54123C35C202B8B
:1020B00020D12033C35C012B1ED0402401220255C5
:1020C00041252423435506683368934333600668EB
:1020D00033680A4F3B403360066833681943316008
:1020E00001680B6813430B602023435500230355FD
:1020F0000020F0BD0220FCE70220FAE7FFEFFFFF1F
:10210000F0B54123C35C202B1ED12033C35C012BCF
:102110001CD0402401220255412524234355066842
:1021200033689343336006683368094F3B400902C4
:102130001943316001680B6813430B60202343553A
:10214000002303550020F0BD0220FCE70220FAE73F
:10215000FFF0FFFF30B5EFF31084012282F3108807
:1021600001680B68124D2B400B6084F31088EFF36D
:10217000108182F31088026893680E4C23409360AC
:1021800081F31088C36E012B06D08C232022C2500D
:102190000023C366436730BDEFF3108183F31088DB
:1021A000026813681024A343136081F31088ECE7DE
:1021B000DFFEFFFFFEFFFFEF7047000010B50400D9
:1021C00083680269134342691343C2691343016878
:1021D0000A686348024013430B60226853686149F0
:1021E0000B40E1680B435360226AA3691A432168DC
:1021F0008B685D48034013438B602268D36A0F21CC
:102200008B43616A0B43D3622368584A93421BD0C5
:10221000574A934229D01023E0698022120290424B
:102220002DD0042B00D194E068D8002B00D18AE097
:10223000022B61D14F4B1B685B090721194001310B
:102240004D48FDF761FF80E04A4B5A6D0323134070
:10225000022B0CD005D8002B0BD0012B0BD1033354
:10226000DAE7032B09D10533D6E70023D4E70223AD
:10227000D2E70023D0E71023CEE71023CCE7042BCE
:1022800037D00FD8002B2ED0022B09D1394B1B6829
:102290005B090721194001313748FDF735FF24E07C
:1022A000012047E0082B1CD1636A5B00334A995A2E
:1022B000FDF72AFF400063685B08C0186168FDF7FE
:1022C00023FF0200103A2E4B9A4245D882B20F23C8
:1022D0009A434008083B184010432368D860002008
:1022E00028E0012026E0FEF7B3FD0028DCD1002025
:1022F00020E0FEF7A5FCF8E701201BE0082B18D131
:1023000080200002636A5B001C4A995AFDF7FCFEBC
:1023100063685B08C0186168FDF7F6FE0200103ABA
:10232000174B9A421AD823680004000CD86000208A
:1023300000E0012001236A22A352023AA3520023A3
:102340006367A36710BDFEF783FD0028DAD1002084
:10235000F0E7FEF775FCF8E70120EBE70120E9E77D
:10236000F369FFCFFFCFFFFFFFF4FF1100380140FB
:102370000044004000100240006CDC0234270008DA
:10238000EFFF0000836A1B0706D5026853682C49DB
:102390000B40816B0B435360836ADB0706D50268F1
:1023A000536828490B40C16A0B435360836A9B07FB
:1023B00006D50268536824490B40016B0B435360F8
:1023C000836A5B0706D50268536820490B40416B5E
:1023D0000B435360836ADB0606D5026893681C4989
:1023E0000B40C16B0B439360836A9B0606D5026862
:1023F000936818490B40016C0B439360836A5B063A
:102400000BD50268536814490B40416C0B43536071
:1024100080235B03426C9A420AD0836A1B0606D56E
:10242000026853680D490B40C16C0B435360704701
:10243000026853680A490B40816C0B435360ECE718
:10244000FF7FFFFFFFFFFDFFFFFFFEFFFFFFFBFF23
:10245000FFEFFFFFFFDFFFFFFFFFEFFFFFFFF7FFD4
:10246000FFFF9FFFF8B5CE46474680B506000D003A
:1024700017009946089B98463368DC692C40641B1A
:1024800063425C41BC4233D143460133F4D0FEF792
:1024900009FA4B46C01A40452FD84346002B2ED090
:1024A00033681A685207E7D5802DE5D0402DE3D078
:1024B000DA69120710D4DA691205DDD5802212011B
:1024C0001A623000FFF746FE90232022F2500C3BA8
:1024D0000022F25403200CE008241C623000FFF7B5
:1024E00039FE9023F4500C3B0022F254012000E00E
:1024F0000020C0BCB946B046F8BD0320F9E7032070
:10250000F7E7000030B583B0040090230022C250EA
:10251000FEF7C8F9050022681268130710D4236873
:102520001B685B072BD420238822A3500432A350BE
:102530000023E3662367083AA354002003B030BDAC
:102540008021234B00930300002289032000FFF722
:1025500089FF0028E3D0EFF31081012383F3108873
:102560002268136880208343136081F310888823D6
:102570002022E250043B0022E2547D38DEE7802135
:10258000134B00932B000022C9032000FFF76AFFC2
:102590000028C8D0EFF31080012282F31088216850
:1025A0000B680C4D2B400B6080F31088EFF310800C
:1025B00082F3108821688B6893438B6080F31088C6
:1025C0008C231F32E250083B0022E2540320B5E77F
:1025D000FFFFFF01DFFEFFFF10B5041E30D0882390
:1025E000C358002B22D088232422E250226813688B
:1025F00001218B431360A36A002B1DD12000FFF73C
:10260000DDFD012811D0226853680E490B4053604C
:10261000226893682A218B439360226813682939C2
:102620000B4313602000FFF76DFF10BD84330022C1
:10263000C254FFF7C1FDD6E72000FFF7A3FEDDE798
:102640000120F2E7FFB7FFFF024B802212059A60DC
:102650007047C04600ED00E00D488546FFF7F4FFE7
:10266000002103E00B4B5B58435004310A480B4BED
:1026700042189A42F6D30A4A02E000231360043259
:10268000084B9A42F9D300F011F8FDF7FDFDFEE783
:1026900000300020B42700080000002010000020B7
:1026A0001000002098010020FEE7000070B5002611
:1026B0000C4D0D4C641BA410A64209D1002600F05D
:1026C00021F80A4D0A4C641BA410A64205D170BD26
:1026D000B300EB5898470136EEE7B300EB58984744
:1026E0000136F2E7AC270008AC270008AC27000849
:1026F000B027000803008218934200D17047197078
:102700000133F9E7F8B5C046F8BC08BC9E467047EF
:0C271000F8B5C046F8BC08BC9E467047F7
:10271C0048656C6C6F20446176796400200000027F
:10272C0000000050000800500100020004000600E8
:10273C0008000A000C00100020004000800000017E
:10274C00000000000000000000000000000000007D
:10275C00000000000000000000000000000000006D
:10276C000100000002000000030000000400000053
:10277C00060000000700000008000000090000002F
:10278C00000000000000000000000000000000003D
:10279C000100000002000000030000000400000023
:0427AC00E900000838
:0427B000C10000085C
:1027B400004400400100000004000000001BB700BA
:040000050800265970
:00000001FF
