:020000040800F2
:1000000000300020A1180008F1160008F3160008BF
:1000100000000000000000000000000000000000E0
:10002000000000000000000000000000F5160008BD
:100030000000000000000000F7160008F916000894
:10004000F118000800000000F1180008F11800087D
:10005000F1180008F1180008F1180008011700084D
:1000600000000000F1180008F1180008F11800085D
:10007000F1180008F1180008F1180008000000004D
:10008000F11800080000000000000000F11800084E
:1000900000000000F1180008F1180008F11800082D
:1000A00000000000F118000800000000F11800082E
:1000B000F11800080000000000000000000000002F
:1000C00003B47146490840004900095E49008E4466
:1000D00003BC7047002243088B4274D303098B4250
:1000E0005FD3030A8B4244D3030B8B4228D3030C08
:1000F0008B420DD3FF22090212BA030C8B4202D3AA
:100100001212090265D0030B8B4219D300E0090AD1
:10011000C30B8B4201D3CB03C01A5241830B8B42DA
:1001200001D38B03C01A5241430B8B4201D34B03C3
:10013000C01A5241030B8B4201D30B03C01A524128
:10014000C30A8B4201D3CB02C01A5241830A8B42AD
:1001500001D38B02C01A5241430A8B4201D34B0296
:10016000C01A5241030A8B4201D30B02C01A5241FA
:10017000CDD2C3098B4201D3CB01C01A52418309AE
:100180008B4201D38B01C01A524143098B4201D3E8
:100190004B01C01A524103098B4201D30B01C01A13
:1001A0005241C3088B4201D3CB00C01A524183088D
:1001B0008B4201D38B00C01A524143088B4201D3BA
:1001C0004B00C01A5241411A00D20146524110461A
:1001D0007047FFE701B5002000F0F0F802BDC0460F
:1001E0000029F7D076E7704703460B437FD40022FF
:1001F00043088B4274D303098B425FD3030A8B42BB
:1002000044D3030B8B4228D3030C8B420DD3FF2224
:10021000090212BA030C8B4202D31212090265D0F2
:10022000030B8B4219D300E0090AC30B8B4201D3A5
:10023000CB03C01A5241830B8B4201D38B03C01AEC
:100240005241430B8B4201D34B03C01A5241030B63
:100250008B4201D30B03C01A5241C30A8B4201D314
:10026000CB02C01A5241830A8B4201D38B02C01ABF
:100270005241430A8B4201D34B02C01A5241030A36
:100280008B4201D30B02C01A5241CDD2C3098B421B
:1002900001D3CB01C01A524183098B4201D38B0198
:1002A000C01A524143098B4201D34B01C01A52413B
:1002B00003098B4201D30B01C01A5241C3088B4280
:1002C00001D3CB00C01A524183088B4201D38B006B
:1002D000C01A524143088B4201D34B00C01A52410D
:1002E000411A00D201465241104670475DE0CA0FE4
:1002F00000D04942031000D34042534000229C46A4
:1003000003098B422DD3030A8B4212D3FC228901AD
:1003100012BA030A8B420CD3890192118B4208D383
:10032000890192118B4204D389013AD0921100E0E5
:100330008909C3098B4201D3CB01C01A52418309F9
:100340008B4201D38B01C01A524143098B4201D326
:100350004B01C01A524103098B4201D30B01C01A51
:100360005241C3088B4201D3CB00C01A52418308CB
:100370008B4201D38B00C01A5241D9D243088B4221
:1003800001D34B00C01A5241411A00D201466346C4
:1003900052415B10104601D34042002B00D5494228
:1003A000704763465B1000D3404201B5002000F067
:1003B00005F802BD0029F8D016E770477047C0461F
:1003C00010B5064C2378002B07D1054B002B02D02B
:1003D000044800E000BF0123237010BD6800002026
:1003E00000000000AC270008044B10B5002B03D020
:1003F0000349044800E000BF10BDC04600000000F3
:100400006C000020AC27000884B00D4B596B04220F
:1004100011435963596B0A400192019A596B20228A
:1004200011435963596B0A400292029A596B012297
:10043000114359635B6B1A400392039B04B07047EE
:100440000010024000B583B001900448044B012223
:1004500001A900F0F2FE019803B000BD8C0000205D
:10046000FFFF000072B6FEE710B58CB005AC1C2291
:100470000021200001F05EFB14220021684601F0FB
:1004800059FB134A136807218B4306390B4313604A
:1004900002230593FE3308930023099340330A9304
:1004A000200000F0E3F900280ED1684607230093EE
:1004B00000230193029303930493012100F062FB54
:1004C000002803D10CB010BDFFF7CCFFFFF7CAFF27
:1004D0000020024010B582B000F04EF8FFF7C4FFD4
:1004E000FFF792FF01F062F90A4801F0C7FAFA201B
:1004F000800000F05FF801236A46D41D06485B4285
:100500000122210000F016FF2178044801F0B6FA1C
:10051000EAE7C046C42700088C000020D427000862
:1005200010B50400114B1978002901D1012010BD2C
:10053000FA208000FFF7CEFD01000D4B1868FFF791
:10054000C9FD00F099F800280DD1032C01D9012034
:10055000EDE7013000222100404200F089F8054B10
:100560001C600020E3E70120E1E7C0460000002016
:10057000080000200400002010B50320FFF7D0FF82
:10058000041E02D00124200010BD00F057F9FAE744
:10059000034B1B78034A11685B1813607047C04611
:1005A0000000002084000020014B18687047C046FE
:1005B0008400002070B50400FFF7F6FF0500631CFF
:1005C00002D0044B1B78E418FFF7EEFF401BA0425B
:1005D000FAD370BD0000002070B5002811DB83083D
:1005E000134DC0339B005C5903221040C000FC3205
:1005F00016008640B44389010A40824022435A5182
:1006000070BD0F230340083B9B0806339B00094A3B
:10061000944663445C6803221040C000FC3215001D
:100620008540AC4389010A40824022435A60E7E793
:1006300000E100E000ED00E0013880235B04984217
:100640000FD2094A50600948036A1B021B0AC021E5
:1006500009060B43036200239360073313600020F5
:1006600070470120FCE7C04610E000E000ED00E02C
:1006700010B5FFF7B1FF10BD10B5FFF7DDFF10BDDE
:10068000F0B5D6464F464646C0B500233BE00525AB
:1006900000E00025A5402C003C43634D1832920039
:1006A00054518022AF584A46D2433D004C46A543A0
:1006B0004C68E40302D53D004C4625435A4C802744
:1006C000E551842567593D0015404C68A40302D5C7
:1006D0003D004C462543544C8427E55127683D0096
:1006E00015404C68E40202D53D004C4625434E4C73
:1006F000256065682A404C68A40201D54A462A4311
:10070000494C626001330C682200DA4000D186E077
:1007100001229A4026001640B1461442F2D04C689D
:10072000022C01D0122C18D1DD080835AD002C5850
:10073000A44607271F40BF000F24A2462600BE4044
:10074000B04666464446A643B4460C695646264023
:100750003400BC40664634432C500468A4465D0017
:100760000324A2462700AF40B846FF4366464446EE
:10077000A643B4464C68564626403400AC40664614
:10078000344304604C68661E012E03D9112C01D03D
:10079000122C12D184683C40A446CC68AC4066461A
:1007A00034438460446894434A68120994460122A1
:1007B000664632409A40224342604A68032A05D086
:1007C000C4683C408A68AA402243C2604A68D2009A
:1007D00098D59A0814001834A400134D67590324BF
:1007E0001C40E4000F25A540AF43A025ED05A8421D
:1007F00000D14EE70D4DA8420BD00D4DA8420AD0B6
:100800000C4DA84209D00C4DA84200D13FE7062567
:1008100040E701253EE702253CE703253AE7E0BC37
:10082000BA46B146A846F0BD001802400004005088
:1008300000080050000C00500014005082B00A4B19
:10084000196C012211431964196C0A400092009A34
:10085000DA6B802149050A43DA63DB6B0B400193B5
:10086000019B02B07047C0460010024070B5041EE4
:1008700000D139E10368DB072CD5A14B9A683823F6
:100880001340082B22D043688022520293422ED07C
:10089000A022D202934231D0994B1A6899490A405A
:1008A0001A601A6898490A401A606368002B31D0B0
:1008B000FFF77AFE0500924B1B689B030AD4FFF7F3
:1008C00073FE401B6428F6D903200EE14368002B19
:1008D00000D10BE123689B0747D5894B9B683822E1
:1008E0001A4261D1E368002B22D10120FDE0844A45
:1008F000116880235B020B431360D6E7804B1968B5
:100900008022D2020A431A601968802252020A43E6
:100910001A60CAE7FFF748FE0500794B1B689B0386
:10092000D8D5FFF741FE401B6428F6D90320DCE050
:10093000734B5A6875490A40616909020A435A6053
:100940001A6873490A4021690A431A601B68DB0A66
:1009500007221A406F4BD3406F4A13606F4B1868E1
:10096000FFF7DEFD002800D0C2E023681B0757D543
:10097000634B9A6838231340182B4ED0A369002B81
:1009800077D05F4A136E01210B431366FFF70CFE0D
:1009900005005B4B1B6E9B0742D4FFF705FE401B17
:1009A0000228F6D90320A0E0E368002B22D0544AA5
:1009B000136857490B4021690B431360116880236A
:1009C0005B000B431360FFF7EFFD05004C4B1B680A
:1009D0005B0506D4FFF7E8FD401B0228F6D903208B
:1009E00083E047494B68494A134062691202134346
:1009F0004B60BAE7424A136849490B401360FFF75E
:100A0000D3FD05003E4B1B685B05AED5FFF7CCFD63
:100A1000401B0228F6D9032067E0A369002B69D0A8
:100A200023685B0768D5364B9A6838231340202B20
:100A300032D0A368012B34D0052B38D0304BDA6D7F
:100A400001218A43DA65DA6D03318A43DA65A368E6
:100A5000002B38D0FFF7A8FD0400294BDB6D9B0766
:100A60002FD4FFF7A1FD001B2E4B9842F5D9032090
:100A70003BE0234A136E01218B431366FFF794FD7D
:100A800005001F4B1B6E9B07CAD5FFF78DFD401B52
:100A90000228F6D9032028E0A368002B2ED00020DE
:100AA00023E0174AD36D01210B43D365CFE7144BE5
:100AB000DA6D04210A43DA65DA6D03390A43DA652F
:100AC000C5E7002011E0FFF76FFD04000C4BDB6D64
:100AD0009B0707D5FFF768FD001B124B9842F5D91D
:100AE000032002E0002000E0012070BD0120FCE7AF
:100AF0000120FAE70120F8E70020F6E70120F4E7FB
:100B000000100240FFFFFEFFFFFFFBFFFF80FFFF23
:100B1000FFC7FFFF006CDC0208000020040000207B
:100B2000FFFEFFFF88130000144B9B6838221A4217
:100B300007D1124B1A68D20A072313401048D84035
:100B400070470E4B9A6838231340082B10D00B4B7C
:100B50009A6838231340202B0CD0084B9A6838230E
:100B60001340182B01D00020EAE7FA20C001E7E784
:100B70000348E5E780200002E2E7C046001002409B
:100B8000006CDC0270B504000D00002800D1A4E068
:100B9000544B1A68072313408B4221D323689A07CA
:100BA00010D55B0707D550498A68504B1A40B023CF
:100BB0001B0113438B604C4A93684D490B40E1681D
:100BC0000B4393602368DB074CD56368012B1ED071
:100BD000002B39D1444A126852051CD4012064E02C
:100BE000404A136807218B432B431360FFF7DCFC5B
:100BF00006003C4B1A6807231340AB42CED0FFF7E8
:100C0000D3FC801B3B4A9042F3D903204DE0364A87
:100C10001268920363D534498A68072082431343DC
:100C20008B60FFF7C1FC06002F4B9B6838221A40EF
:100C30006368DB009A4215D0FFF7B6FC801B2D4B92
:100C40009842F1D9032030E0032B05D0264AD26D1B
:100C50009207E0D4012028E0234A126E9207DAD4EA
:100C6000012022E01F4B1A6807231340AB421DD816
:100C700023685B0706D51C4A93681F490B4021690E
:100C80000B439360FFF750FF174B9A68120A0F232C
:100C900013401A4A9B009A581F231340D840184B00
:100CA0001860184B1868FFF73BFC70BD0D4A1368BD
:100CB00007218B432B431360FFF776FC0600094B9B
:100CC0001A6807231340AB42D2D0FFF76DFC801B9C
:100CD000084B9842F3D90320E7E70120E5E701201C
:100CE000E3E7C0460020024000100240FF84FFFFFF
:100CF000FFF0FFFF88130000FF8FFFFF2C28000884
:100D0000080000200400002010B5FFF70DFF074B7E
:100D10009A68120A0F231340054A9B009A581F2312
:100D20001340D840034B186010BDC046001002406D
:100D30002C2800080800002010B5FFF7E5FF064B3F
:100D40009A68120B07231340044A9B009A581F23EA
:100D50001340D84010BDC046001002400C280008C7
:100D600070B582B0040003685B0650D5424BDB6B64
:100D7000DB0035D4404BDA6B802149050A43DA6346
:100D8000DB6B0B400193019B01253B4BD96DC022CE
:100D900092000B001340114235D0A2699A420DD047
:100DA000354AD36D35490B40D06D8021490201434E
:100DB000D165D16D32480140D165D365DB0711D4CF
:100DC0002D4AD36D2D490B40A1690B43D3650020FB
:100DD000012D1DD1284AD36B2A490B40D36317E05C
:100DE0000025D2E7FFF7E0FB0600234BDB6D9B07F6
:100DF00007D4FFF7D9FB801B234B9842F5D903207A
:100E000002E0002000E000200028E1D1D8E7002027
:100E10002368DB0706D5184A536D03218B43A1686D
:100E20000B43536523689B0706D5134A536D174937
:100E30000B40E1680B43536523689B0606D50E4AB9
:100E4000536D9B009B0861690B43536523685B07E7
:100E500006D5094A536D0E490B4021690B43536572
:100E600023681B0606D5044A1368E0218B4361689A
:100E70000B43136002B070BD00100240FFFCFFFF87
:100E8000FFFFFEFFFFFFFFEF88130000FFCFFFFF14
:100E9000FF3FFFFF30B5EFF31084012282F310888B
:100EA00001680B68124D2B400B6084F31088EFF340
:100EB000108182F31088026893680E4C234093607F
:100EC00081F31088C36E012B06D08C232022C250E0
:100ED0000023C366436730BDEFF3108183F31088AE
:100EE000026813681024A343136081F31088ECE7B1
:100EF000DFFEFFFFFEFFFFEF10B50400836802690D
:100F0000134342691343C269134301680A68624884
:100F1000024013430B602268536860490B40E1684C
:100F20000B435360A369226A1A4321688B685C48AB
:100F3000034013438B602268D36A0F218B43616A9D
:100F40000B43D3622368574A934230D0564A9342A8
:100F50003ED01023E06980221202904242D0042B3E
:100F600000D189E07BD8002B00D17FE0022B74D127
:100F70004E4B1B685B090721194001314C48FFF7B4
:100F8000A9F8626A4B4B5200D15AFFF7A3F8616887
:100F90004B08C018FFF79EF80200103A464B9A42E1
:100FA0006FD823680004000CD86000206AE03F4B33
:100FB0005A6D03231340022B0CD005D8002B0BD005
:100FC000012B0BD10333C5E7032B09D10533C1E74F
:100FD0000023BFE70223BDE70023BBE71023B9E7E7
:100FE0001023B7E7042B35D02AD8002B2CD0022BA6
:100FF00024D12E4B1B685B090721194001312C4875
:10100000FFF768F8626A2B4B5200D15AFFF762F87B
:10101000400061684B08C018FFF75CF80200103A06
:10102000254B9A422BD882B20F239A434008083BA3
:10103000034013432268D360002023E0012021E015
:10104000082BDFD001201DE0FFF776FE0028D9D164
:10105000002017E0FFF768FDF8E7012012E0082BF9
:1010600002D1802000028CE701200BE0FFF764FE34
:10107000002886D1002005E0FFF756FDF8E70120A3
:1010800000E0012001236A22A352023AA352002366
:101090006367A36710BDC046F369FFCFFFCFFFFFB3
:1010A000FFF4FF11003801400044004000100240EE
:1010B000006CDC02E4270008EFFF0000836A1B07D6
:1010C00006D5026853682C490B40816B0B43536073
:1010D000836ADB0706D50268536828490B40C16A5A
:1010E0000B435360836A9B0706D502685368244903
:1010F0000B40016B0B435360836A5B0706D50268A4
:10110000536820490B40416B0B435360836ADB06F5
:1011100006D5026893681C490B40C16B0B43936072
:10112000836A9B0606D50268936818490B40016CD8
:101130000B439360836A5B060BD5026853681449BE
:101140000B40416C0B435360426C80235B039A421B
:101150000AD0836A1B0606D5026853680D490B4006
:10116000C16C0B4353607047026853680A490B40D7
:10117000816C0B435360ECE7FF7FFFFFFFFFFDFF38
:10118000FFFFFEFFFFFFFBFFFFEFFFFFFFDFFFFFA4
:10119000FFFFEFFFFFFFF7FFFFFF9FFFF8B5CE4612
:1011A000474680B506000D0017009946089B9846F3
:1011B0003368DC692C40641B63425C41BC4233D120
:1011C00043460133F4D0FFF7EFF94B46C01A4045D0
:1011D0002FD84346002B2ED0326813685B07E7D523
:1011E000802DE5D0402DE3D0D3691B0710D4D369FF
:1011F0001B05DDD580231B0113623000FFF74AFE7B
:1012000090232022F2500C3B0022F25403200CE0E9
:10121000082414623000FFF73DFE9023F4500C3B8D
:101220000022F254012000E00020C0BCB946B046C4
:10123000F8BD0320F9E70320F7E7F0B5C64600B58F
:1012400082B004000D0090461E008823C358202B56
:1012500065D1002968D0002A68D0826880235B01AC
:101260009A4204D10369002B01D1CB0760D49023AB
:101270000022E250083B2132E250FFF795F90700C7
:1012800054234246E2520233E252A26880235B01B9
:101290009A4202D00023984618E02369002B29D0F7
:1012A0000023984612E088232022E250032037E0F2
:1012B00043461B882268DB05DB0D936202239C46B4
:1012C000E0445623E25A013A92B2E2525623E35ADC
:1012D000002B12D000963B00002280212000FFF757
:1012E0005DFF0028DFD1002DE2D02A7823689A62C2
:1012F0000135E6E7A8460025E8E700963B00002216
:1013000040212000FFF74AFF002803D18823202234
:10131000E25005E088232022E250032000E0022072
:1013200002B080BCB846F0BD0120F9E70120F7E724
:101330000120F5E7F0B5C64600B584B004000E0004
:1013400015001F008C23C358202B00D08AE00029F1
:1013500000D18CE0002A00D18BE0826880235B0101
:101360009A4205D10369002B02D1CB0700D582E058
:1013700000239022A350043A2221A150E366FFF7F4
:1013800013F980465C23E5520233E552A3688022BC
:101390005201934208D0002B15D12269002A0ED1A8
:1013A0006032FF21A15215E02269002A03D1603288
:1013B0003249A1520EE06022FF21A1520AE06022D0
:1013C0007F21A15206E08022520593420BD0602279
:1013D0000021A1526022A25A03928022520193421C
:1013E0000CD000251FE02269002A03D160327F2142
:1013F000A152EFE760223F21A152EBE72369002BC6
:1014000028D000250FE08C232022E25003202AE080
:1014100023685B6A039A13402B8002355E23E25AED
:10142000013A92B2E2525E23E35A002B15D00097A4
:101430004346002220212000FFF7B0FE0028E2D121
:10144000002EE5D023685B6A6A46127B1340337036
:101450000136E3E735000026E5E78C332022E25031
:10146000002000E0022004B080BCB846F0BD01209E
:10147000F9E70120F7E70120F5E7C046FF0100008A
:1014800030B583B0040090230022C250FFF78CF8DF
:10149000050023681B681B0710D423681B685B07C3
:1014A0002BD420238822A3500432A3500023E366C8
:1014B0002367083AA354002003B030BD8021234B9A
:1014C00000930300002289032000FFF767FE002835
:1014D000E3D0EFF31081012383F3108822681368AF
:1014E00080208343136081F3108888232022E250F8
:1014F000043B0022E2547D38DEE78021134B009349
:101500002B000022C9032000FFF748FE0028C8D0A6
:10151000EFF31080012282F3108821680B680C4DD4
:101520002B400B6080F31088EFF3108082F310885B
:1015300021688B6893438B6080F310888C231F3263
:10154000E250083B0022E2540320B5E7FFFFFF0111
:10155000DFFEFFFF10B5041E30D08823C358002BD8
:1015600022D088232422E2502268136801218B4371
:101570001360A36A002B1DD12000FFF7BDFC0128DA
:1015800011D0226853680E490B405360226893685B
:101590002A218B4393602268136829390B43136017
:1015A0002000FFF76DFF10BD84330022C25400F00D
:1015B00035F9D6E72000FFF781FDDDE70120F2E7EE
:1015C000FFB7FFFFF8B50400436E002B05D10133D0
:1015D0006A228352023A8352F8BD026895686D0E02
:1015E00007231D409268520F1340084FF85CC0005B
:1015F000074EF15CFEF7F8FD6A23E052785DC0000B
:10160000715DFEF7F1FD6823E052E5E7042800086C
:10161000FC27000870B58423C35C012B15D08424FB
:101620000126065588252423435102681368116852
:10163000B1431160064A13400022426601680B6004
:10164000202343510255002070BD0220FCE7C04614
:10165000FFFFFFDFF8B504000A008423C35C012B01
:101660001BD084250120605588262423A35123689C
:101670001F6819688143196020688368DB00D908F6
:10168000114381602000FFF79DFF23681F60202326
:10169000A351002363550020F8BD0220FCE70000A1
:1016A000F8B504000B008422825C012A1BD084253B
:1016B0000120605588262422A251226817681168EB
:1016C0008143116022689168084801401943916084
:1016D0002000FFF777FF23681F602023A35100231A
:1016E00063550020F8BD0220FCE7C046FFFFFFF174
:1016F000FEE7FEE77047704710B5FEF749FF10BDE3
:10170000704770B50C001600002504E000E000BF33
:10171000207001350134B542F8DB300070BD70B582
:101720001600002405E04D1C0878FEF78BFE0134FE
:101730002900B442F7DB300070BD01204042704701
:1017400080239B014B6000207047012070470020E0
:101750007047000010B503000C4A0D49521A0D499C
:101760000968002907D00B490868C318934206D8B6
:10177000084A136010BD074907480860F3E700F006
:101780002FFA0C23036001204042F3E700300020D1
:10179000000400008800002070020020024B80221C
:1017A00012059A607047C04600ED00E010B5194878
:1017B000194B0360E1235B02436000238360C36035
:1017C00003610C2242618361C361036243628362ED
:1017D000FFF7C0FE002811D10E480021FFF73AFFA5
:1017E00000280ED10B480021FFF75AFF00280BD12B
:1017F0000848FFF70FFF002809D110BDFEF732FEA1
:10180000EAE7FEF72FFEEDE7FEF72CFEF0E7FEF726
:1018100029FEF2E78C0000200044004010B58EB095
:1018200004001422002109A800F084F91C220021E0
:1018300002A800F07FF92268174B9A4201D00EB03F
:1018400010BD0123029302A8FFF78AFA002820D1D5
:10185000124B1A6C8021C9010A431A641A6C0A409F
:101860000092009A596B0122114359635B6B1A4035
:101870000192019B09A903230993013B4B600023BB
:101880008B60CB6004330B61A020C005FEF7F8FE2F
:10189000D5E7FEF7E7FDDBE7003801400010024026
:1018A0000D488546FFF77AFF002103E00B4B5B589C
:1018B000435004310A480B4B42189A42F6D30A4A65
:1018C00002E0002313600432084B9A42F9D300F07F
:1018D0008DF9FEF7FFFDFEE700300020A828000884
:1018E0000000002068000020680000206C0200203A
:1018F000FEE70000002310B504000360436083602E
:1019000081814366C28103614361836119000822BA
:101910005C3000F00FF90B4B246263620A4BA36248
:101920000A4BE3620A4B23630A4B9C4205D00A4BE5
:101930009C4202D0094B9C4203D12000583000F059
:1019400079F910BD9D1A0008C51A0008FD1A000893
:10195000291B00082001002088010020F001002040
:1019600010B5034A0349044800F06CF810BDC046A6
:101970000C000020D12400081C00002041680B4B03
:1019800010B50400994201D000F0A2FDA168084BF7
:10199000994202D0200000F09BFDE168054B99427E
:1019A00002D0200000F094FD10BDC04620010020B0
:1019B00088010020F001002010B5094B094A0421DC
:1019C0001A6009480022FFF795FF01220921074804
:1019D000FFF790FF022212210548FFF78BFF10BD91
:1019E0005802002061190008200100208801002011
:1019F000F001002010B5024800F01DF910BDC046EE
:101A00006102002010B5024800F016F910BDC04672
:101A10006102002010B50400FFF7ECFF236A002BE1
:101A200002D0FFF7EFFF10BD044B2362044B1B688D
:101A3000002BF6D1FFF7C0FFF3E7C0467D19000881
:101A400058020020F7B51400002600900191A56807
:101A50006768013F04D52468002CF8D13000FEBD32
:101A6000AB89012B08D90E22AB5E013304D02900CB
:101A70000098019B984706436835EAE70FB407B51D
:101A8000054904AB086804CB8168019300F0FAF9BA
:101A900003B008BC04B018471800002070B50C0053
:101AA0000E25495F00F074F8002803DB636D1B18F6
:101AB000636570BDA389024A1340A381F9E7C0465C
:101AC000FFEFFFFFF8B51F008B8905000C00160023
:101AD000DB0505D50E23C95E0022022300F044F881
:101AE000A389054A28001340A38132000E23E15E3A
:101AF0003B0000F061F8F8BDFFEFFFFF70B50C0090
:101B00000E25495F00F030F80C22A35E421C03D181
:101B1000044A1340A38170BD802252011343A38164
:101B20006065F8E7FFEFFFFF10B50E23C95E00F018
:101B300009F810BD03008218934200D17047197054
:101B40000133F9E7002370B5064D040008002B604F
:101B5000FFF7F3FD431C03D12B68002B00D023605B
:101B600070BDC0465C02002070B504000800110082
:101B70001A000023054D2B60FFF7E9FD431C03D13C
:101B80002B68002B00D0236070BDC0465C02002093
:101B900070B50400080011001A000023054D2B60E9
:101BA000FFF7AFFD431C03D12B68002B00D023604F
:101BB00070BDC0465C02002070B504000800110032
:101BC0001A000023054D2B60FFF7A9FD431C03D12C
:101BD0002B68002B00D0236070BDC0465C02002043
:101BE000014B18687047C0461800002070B50026E9
:101BF0000C4C0D4D641BA410A64209D1002600F028
:101C0000D5FD0A4C0A4D641BA410A64205D170BD37
:101C1000B300EB5898470136EEE7B300EB5898470E
:101C20000136F2E7A0280008A0280008A428000830
:101C3000A0280008704770477047000070B5050085
:101C40000C1E10D0043C2368002B00DAE418280096
:101C500000F0E0F81D4A1368002B05D163601460A2
:101C6000280000F0DFF870BDA34208D920682118D1
:101C70008B42F3D119685B6809182160EEE71A00FE
:101C80005B68002B01D0A342F9D911685018A0421B
:101C90000BD120680918501811608342E0D11868F0
:101CA0005B68411811605360DAE7A04202D90C2347
:101CB0002B60D5E7206821188B4203D119685B6837
:101CC0000918216063605460CAE7C04668020020BA
:101CD00070B50F4E0D0031680400002902D100F0EC
:101CE000BFFC30602900200000F0BAFC431C03D187
:101CF00001256D42280070BD0323C51C9D43A842E9
:101D0000F8D0291A200000F0ABFC0130F2D1EFE747
:101D100064020020F7B50322CB1C9343083305006F
:101D20001F000C2B34D20C27B94233D8280000F006
:101D300071F8374E33681C00002C2FD13900280071
:101D4000FFF7C6FF0400431C5FD134680094009B7A
:101D5000002B4AD1002C52D023682800E3180099A8
:101D6000019300F07DFC019B834248D12368280049
:101D7000FF1A3900FFF7ACFF013040D02368DB19B0
:101D8000236033685A68002A33D1009B336019E01E
:101D9000002BC9DA0C232B600020FEBD2168C91B73
:101DA00020D40B290AD9E2192760A34204D132605A
:101DB00063681160536005E05A60F9E76268A34206
:101DC0000ED13260280000F02DF8200007220B30E1
:101DD000231D9043C21A9842DFD01B1AA350DCE7A0
:101DE0005A60EFE723006468A6E7009C63680093ED
:101DF000ADE71A005B68A342FBD10023DAE70C23AE
:101E000028002B6000F00EF8C6E70760DAE7C0464E
:101E10006802002010B50248FFF70DFF10BDC04654
:101E20006002002010B50248FFF706FF10BDC04653
:101E300060020020936810B5013B9360002B04DA28
:101E40009469A34207DB0A2905D01368581C106067
:101E50001970080010BD00F066FB0100F9E7F8B545
:101E600006000F001400D518AC4201D1002007E095
:101E700021783A003000FFF7DDFF0134431CF3D135
:101E8000F8BD0000F0B59FB00D0016001C000290D8
:101E9000002804D0036A002B01D1FFF7BBFD6B6E55
:101EA000DB0705D4AB899B0502D4A86DFFF7C3FE01
:101EB000AB891B0702D52B69002B13D1290002988F
:101EC00000F074FB00280DD06B6EDB0703D50120FA
:101ED00040421FB0F0BDAB899B05F8D4A86DFFF759
:101EE000ABFEF4E70023292102AA52180B932033FA
:101EF0001370013102AA1033521813700594340084
:101F00002378002B01D0252B48D1A71BB4420BD03E
:101F10003B00320029000298FFF7A1FF013000D1F9
:101F2000AEE00B9BDB190B932378002B00D1A7E0CD
:101F30000122532100235242079202AA5218661C22
:101F400006930993089313701C93594F3178052217
:101F5000380000F097FB741C069906AB00281FD1CF
:101F6000CA0604D55327202202A8C01902700A0706
:101F700004D553272B2202A8C019027032782A2ACE
:101F800015D0340000200A27DA682178661C303921
:101F9000092950D9002811D009920FE00134AFE788
:101FA0000123C01B83400B4326000693CDE7059A0F
:101FB000101D12680590002A37DBDA6022782E2A7D
:101FC0000CD162782A2A3BD1059A0234111D12687D
:101FD0000591002A01DA012252425A60354E03224D
:101FE0003000217800F04EFB06AF002806D04023D9
:101FF000801B8340069A01341343069321780622FE
:102000002D48661C397600F03DFB002847D02B4B4D
:10201000002B29D10722059B0733934308330593EF
:102020000B9B03995B180B9369E75242DA6002221B
:102030000A430692C2E77A43340001205218A4E70B
:1020400000220A205A601100130001342278661C15
:10205000303A092A03D9002BC0D00791BEE741438B
:10206000340001238918F1E705AA009239002A00FB
:10207000134B029800E000BF0390039B0133CFD1C4
:102080006B6EDB0705D4AB899B0502D4A86DFFF707
:10209000D3FDAB895B0600D519E70B9819E705AAB4
:1020A000009239002A00064B029800F07BF8E3E723
:1020B0006C2800087228000876280008000000003C
:1020C0005F1E0008F7B5160001938A680B690C00C3
:1020D0000090934200DA13002200336043321278FA
:1020E000002A01D00133336023689B0602D5336890
:1020F000023333602268062315001D401A4227D0A0
:10210000230043331B785A1E93412268920630D431
:10211000220001990098089D4332A847013025D03C
:102120000622236800251340042B05D13368E56897
:10213000ED1AEB43DB171D40A3682269934201DDD2
:102140009B1AED180026B54220D1002010E0013581
:10215000E36832689B1AAB42D2DD22000123019969
:102160000098089F1932B8470130F0D10120404251
:10217000FEBD3020E1184331087021005A1C453162
:102180000978A218433202331170C1E722000123FB
:1021900001990098089F1A32B8470130E6D00136FD
:1021A000D1E70000F0B58BB006920A0043320793E6
:1021B000059003920A7E0C00109B782A09D8622AA7
:1021C0000BD8002A00D1BAE07A490491582A00D1EC
:1021D0008EE0250042352A7022E010006338152871
:1021E000F7D8FDF76DFF16001F00F6FFF6FFF6FFAC
:1021F000F6FF1F00F6FFF6FFF6FFF6FF9F00360022
:102200007E00F6FFF6FFB000F6FF3600F6FFF6FFA1
:10221000820025001A684235111D196013682B7061
:1022200001239EE018680968021D0D060BD506689B
:102230001A60002E03DA2D23039A764213705D4B49
:102240000A27049318E006681A604906F1D536B2E9
:10225000EFE70868196840C9050602D4400600D5B2
:10226000B6B21960534B0A2704936F2A00D1023F7C
:102270002300002243331A706368A360002B06DB3F
:1022800004212268039D8A43226033430CD0039DBE
:1022900030003900FDF7A4FF049B013D5B5C2B700F
:1022A000330006009F42F3D9082F09D12368DB07CA
:1022B00006D5626823699A4202DC3023013D2B7007
:1022C000039B5B1B2361079B210000930598069BE2
:1022D00009AAFFF7F7FE013048D1012040420BB0B8
:1022E000F0BD202209680A43226078223249049115
:1022F000210045310A701968226840C9100602D4CD
:10230000500600D5B6B21960D30702D52023134377
:102310002360002E01D01027AAE7202223689343D0
:102320002360F8E71A680D68101D49691860136882
:102330002E0601D5196002E06D06FBD51980002339
:10234000039D2361BFE71A68111D196015680021FC
:102350002800626800F096F9002801D0401B6060F8
:10236000636823610023039A1370ACE72A00236992
:1023700006990598079DA8470130AED023689B07B2
:1023800015D4099BE0689842A9DA1800A7E7220053
:10239000012306990598079E1932B04701309CD059
:1023A0000135E368099A9B1AAB42F0DCE9E70025A6
:1023B000F7E7C0467D2800088E280008F7B50C22F4
:1023C0008B5E05000C001A075AD44A68002A02DC0A
:1023D0000A6C002A4FDDE76A002F4CD000228021D2
:1023E0002E682A601A0049010A400B4234D0626DFF
:1023F000A3895B0706D56368D21A636B002B01D0F3
:10240000236CD21A00232800E76A216AB8470C23FC
:10241000E25E431C06D129681D292ED82B4BCB40E8
:10242000DB072AD50023636023692360D20405D526
:10243000431C02D12B68002B00D16065616B2E60BC
:10244000002918D023004433994202D02800FFF716
:10245000F5FB002363630EE001232800216AB847DF
:102460000200431CC4D12B68002BC1D01D2B01D00E
:10247000162B1DD12E60002021E0402313431BE0CA
:102480000E69002EF7D00F680E60BA1B0192002271
:102490009B0700D14A69A260019B002BEBDDA36A78
:1024A00032001F002800019B216AB847002807DC82
:1024B0004023A28913431BB20120A3814042FEBDE9
:1024C000019B36181B1A0193E6E7C0460100402025
:1024D0000B6970B505000C00002B02D10025280007
:1024E00070BD002804D0036A002B01D1FFF792FAD7
:1024F0000C22A35E002BF1D0626ED20704D49B05A0
:1025000002D4A06DFFF797FB28002100FFF756FFCC
:10251000636E0500DB07E2D4A3899B05DFD4A06DC1
:10252000FFF78AFBDBE7F8B506000D001400002872
:1025300004D0036A002B01D1FFF76CFAA369A360F2
:10254000A3891B0702D52369002B09D12100300084
:1025500000F02CF8002803D001256D422800F8BDBA
:1025600023692068EFB2C01A6369EDB2834205DCCB
:1025700021003000FFF7ACFF0028EDD1A368013047
:10258000013BA36023685A1C22601F706369834269
:1025900004D0A389DB07E1D50A2DDFD1210030006B
:1025A000FFF796FF0028D9D0D6E700002B4B70B577
:1025B000050018680C00002804D0036A002B01D124
:1025C000FFF728FA0C22A35E1A0722D4DA0607D4F2
:1025D00009222A60373201201343A381404270BD93
:1025E0005A0713D5616B002908D023004433994260
:1025F00002D02800FFF722FB002363632422A38973
:1026000093430022626022691BB2226008221343B6
:10261000A3812269002A07D19A0501D51B0603D59B
:102620002100280000F064F80C23E25E0121130071
:102630000B400A420CD00023A36063695B42A36194
:10264000002023698342CAD11306C8D54023C2E7BC
:10265000910700D46369A360F2E7C0461800002028
:10266000002370B5064D040008002B60FFF772F8D8
:10267000431C03D12B68002B00D0236070BDC046E3
:102680005C020020C9B28218904201D1002070473C
:1026900003788B42FBD00130F6E70000F0B50E0066
:1026A0001D000E23C95E140097B000290CDAB28910
:1026B0008023110019401A4214D18023DB0000202E
:1026C0002960236017B0F0BD6A4600F04BF800287F
:1026D000EDDBF02301991B021940044BC9184B4252
:1026E0005941EAE700214023E9E7C04600E0FFFF47
:1026F000F7B502268B8905000C00334206D0230073
:1027000047332360236101236361F7BD6A4601AB50
:10271000FFF7C4FF009F28003900FFF7FBFA0C22E7
:10272000A35E002806D19A05EFD4032293431E43EB
:10273000A681E4E780221343A381019B20602061EE
:102740006761002BE1D028000E23E15E00F01CF849
:102750000028DAD00323A2899A43023B1343A381C2
:10276000D3E70000002370B5064D040008001100F7
:102770002B60FEF7E5FF431C03D12B68002B00D034
:10278000236070BD5C020020002370B5064D04007C
:1027900008002B60FEF7D9FF431C03D12B68002BE8
:1027A00000D0236070BDC0465C020020F8B5C04672
:1027B000F8BC08BC9E467047F8B5C046F8BC08BCDB
:0427C0009E4670477A
:1027C40048656C6C6F20576F726C640A0D000000D2
:1027D40052656365697665643A2025630A0D0000D5
:1027E400010002000400060008000A000C001000AA
:1027F40020004000800000010804020408010101D7
:1028040001010103070100000000000000000000B6
:1028140000000000000000000100000002000000B1
:10282400030000000400000000000000000000009D
:102834000000000000000000000000000000000094
:102844000000000000000000010000000200000081
:102854000300000004000000060000000700000060
:102864000800000009000000232D302B2000686CB4
:102874004C0065666745464700303132333435369F
:1028840037383941424344454600303132333435D8
:0C28940036373839616263646566000005
:0428A000E903000840
:0428A400C103000864
:1028A8000100000004000000001BB7000000000049
:1028B80003000000200100201C0000200000000090
:1028C8002001002088010020F00100200000000005
:1028D80000000000000000000000000000000000F0
:1028E80000000000000000000000000000000000E0
:1028F80000000000000000000000000000000000D0
:082908000000000000000000C7
:04000005080018A136
:00000001FF
