:020000040800F2
:100000000030002069470008B9470008990B000834
:1000100000000000000000000000000000000000E0
:10002000000000000000000000000000E5430008A0
:100030000000000000000000514400089B0B000875
:10004000B947000800000000B9470008B10B0008DC
:10005000B90B0008B9470008B9470008BB0B0008F6
:1000600000000000C90B0008B9470008B9470008A4
:10007000B9470008B9470008B94700080000000068
:10008000B94700080000000000000000B947000860
:1000900000000000B9470008B9470008B947000848
:1000A00000000000B947000800000000B947000840
:1000B000B947000800000000000000000000000038
:1000C00010B5064C2378002B07D1054B002B02D02E
:1000D000044800E000BF0123237010BD7C00002015
:1000E00000000000F4500008044B10B5002B03D0B2
:1000F0000349044800E000BF10BDC04600000000F6
:1001000080000020F450000803B471464908400004
:100110004900095E49008E4403BC70470022430831
:100120008B4274D303098B425FD3030A8B4244D3BF
:10013000030B8B4228D3030C8B420DD3FF22090201
:1001400012BA030C8B4202D31212090265D0030BC0
:100150008B4219D300E0090AC30B8B4201D3CB03B6
:10016000C01A5241830B8B4201D38B03C01A5241F8
:10017000430B8B4201D34B03C01A5241030B8B42FA
:1001800001D30B03C01A5241C30A8B4201D3CB02E5
:10019000C01A5241830A8B4201D38B02C01A5241CA
:1001A000430A8B4201D34B02C01A5241030A8B42CD
:1001B00001D30B02C01A5241CDD2C3098B4201D3E5
:1001C000CB01C01A524183098B4201D38B01C01A63
:1001D000524143098B4201D34B01C01A52410309DA
:1001E0008B4201D30B01C01A5241C3088B4201D389
:1001F000CB00C01A524183088B4201D38B00C01A36
:10020000524143088B4201D34B00C01A5241411A5C
:1002100000D20146524110467047FFE701B5002069
:1002200000F0F0F802BDC0460029F7D076E770472D
:1002300003460B437FD4002243088B4274D3030947
:100240008B425FD3030A8B4244D3030B8B4228D3E8
:10025000030C8B420DD3FF22090212BA030C8B420E
:1002600002D31212090265D0030B8B4219D300E0AE
:10027000090AC30B8B4201D3CB03C01A5241830B33
:100280008B4201D38B03C01A5241430B8B4201D3E3
:100290004B03C01A5241030B8B4201D30B03C01A0C
:1002A0005241C30A8B4201D3CB02C01A5241830A86
:1002B0008B4201D38B02C01A5241430A8B4201D3B5
:1002C0004B02C01A5241030A8B4201D30B02C01ADF
:1002D0005241CDD2C3098B4201D3CB01C01A524146
:1002E00083098B4201D38B01C01A524143098B42CF
:1002F00001D34B01C01A524103098B4201D30B01B8
:10030000C01A5241C3088B4201D3CB00C01A5241DC
:1003100083088B4201D38B00C01A524143088B42A1
:1003200001D34B00C01A5241411A00D2014652413A
:10033000104670475DE0CA0F00D04942031000D359
:100340004042534000229C4603098B422DD3030AAE
:100350008B4212D3FC22890112BA030A8B420CD3BE
:10036000890192118B4208D3890192118B4204D3E7
:1003700089013AD0921100E08909C3098B4201D367
:10038000CB01C01A524183098B4201D38B01C01AA1
:10039000524143098B4201D34B01C01A5241030918
:1003A0008B4201D30B01C01A5241C3088B4201D3C7
:1003B000CB00C01A524183088B4201D38B00C01A74
:1003C0005241D9D243088B4201D34B00C01A52414B
:1003D000411A00D20146634652415B10104601D3D8
:1003E0004042002B00D54942704763465B1000D362
:1003F000404201B5002000F005F802BD0029F8D008
:1004000016E770477047C04672B6FEE700B58DB07C
:100410001C22002105A804F004FA142200216846D9
:1004200004F0FFF911490B6807229343063A13437E
:100430000B60059280235B02069305A801F028FA61
:1004400000280FD107230093063B0193002302935A
:10045000039304930121684601F0A6FB002803D111
:100460000DB000BDFFF7D0FFFFF7CEFF0020024028
:1004700010B500F003FDFFF7C9FF00F0D3F800F05E
:100480003FFA00F003FB00F053FA00F0BDF903F06F
:100490005BFE00F08FF9002000F000FC012100203D
:1004A00000F03EFC0C49E1235B020B6000234B6033
:1004B0000B814B818B81002000F09AFC002801D039
:1004C000FFF7A2FF03F068FEA02001222021C00553
:1004D00001F03EFEF8E7C0469800002010B584B059
:1004E0000F23010099430001C0B203AA0C230C00A2
:1004F0001C4314700824214351700343937020431C
:10050000D070054B1978054B18680A230093063BF9
:1005100002F070F804B010BDAC000020A80000206C
:1005200010B584B00F23010099430001C0B203AAA3
:100530000D230C001C431470092421435170034304
:1005400093702043D070054B1978054B18680A2327
:100550000093063B02F04EF804B010BDAC00002042
:10056000A800002010B5224B18604900C9B2214BE9
:10057000197049006423032202F008F900282ED0E4
:100580008021A02001224901C00501F0E1FD3220B7
:1005900000F092FC0320FFF7A1FF052000F08CFC87
:1005A0000320FFF79BFF012000F086FC0320FFF7EC
:1005B00095FF0A2000F080FC0220FFF78FFF282023
:1005C000FFF78CFF0C20FFF789FF0620FFF786FF5F
:1005D0000120FFF783FF022000F06EFC10BD802198
:1005E000A02000224901C00501F0B2FDCFE7C046BE
:1005F000A8000020AC00002010B5040002E0013487
:10060000FFF78EFF20780028F9D110BD10B5040047
:1006100027210348FFF7A6FF2000FFF7EDFF10BDDD
:1006200080010020F0B5C64600B58AB01422002132
:1006300005A804F0F6F82A4B596B042211435963BC
:10064000596B0A400192019A596B20221143596358
:10065000596B0A400292029A5A6B01252A435A6347
:100660005A6B2A400392039A5A6B02273A435A6301
:100670005B6B3B400493049BC1235B019846A0261F
:10068000F60500221900300001F062FD80239B0175
:100690000593144B06930024079405A9124801F012
:1006A00079FC0C230593069707940894099505A9EE
:1006B000300001F06FFC43460593069507940894BB
:1006C00005A9300001F066FC00220021072001F09E
:1006D0005FFD072001F08CFD0AB080BCB846F0BD7C
:1006E00000100240000021100008005010B5FA2050
:1006F000800003F0FDFDFAE710B5FA20800003F05A
:10070000F7FDFAE710B51C00431A0298001B0130F0
:100710005843511A0131FFF78BFD001910BD00003D
:1007200070B586B00FE01E48FFF770FF642003F03D
:10073000EFF98021A02000224901C00501F008FD49
:10074000642003F0E5F980256D01A0200122290035
:10075000C00501F0FDFC134C200000F00FFF6421E8
:10076000200000F0DBFC200000F034FD0E4E308055
:10077000200000F07DFF30886423009300230022D6
:100780002900FFF7BFFF04000200084902A804F097
:1007900051F8132CC7DD0648FFF738FFC6E7C046FF
:1007A00010510008C0000020B40000200C510008C7
:1007B0001851000810B50B4A00210B4803F020FD2A
:1007C0000A4B18600A4A00210A4803F019FD0A4B37
:1007D00018600A4A00210A4803F012FD094B18600C
:1007E00010BDC04644510008ED060008B0000020CE
:1007F0006851000821070008B80000208C5100084B
:10080000F9060008BC00002000B585B00C220021CC
:1008100001A804F006F81948194B03608023DB0592
:10082000436000238360C3608022120602610422B9
:100830004261037643768376033AC2611F32835462
:10084000436283620C3283540363436310328354E4
:10085000C36400F043FB00280AD1012301930293F3
:1008600001A9064800F0BAFC002804D105B000BD7B
:10087000FFF7CAFDF1E7FFF7C7FDF7E7C00000206B
:100880000024014010B58EB004001422002109A8F4
:1008900003F0C7FF1C22002102A803F0C2FF226858
:1008A000154B9A4201D00EB010BD2023029302A82E
:1008B00001F068FA00281CD1104B196C802040030D
:1008C000014319641A6C02400092009A596B01228C
:1008D000114359635B6B13400193019B09920323FE
:1008E0000A9300230B93A02009A9C00501F052FB35
:1008F000D9E7FFF789FDDFE700240140001002403F
:1009000000B583B0094A916B012319439163926B3F
:1009100013400193019B00220021092001F038FCC3
:10092000092001F065FC03B000BDC0460010024084
:1009300010B51448144B0360144B436000238360CC
:100940000122C260036143618361C361036201F0FC
:10095000E3FD00280CD100210A4801F0DBFF00284C
:1009600009D10021074802F001F8002806D110BD86
:10097000FFF74AFDEFE7FFF747FDF2E7FFF744FD1A
:10098000F5E7C04680010020005400405D3E302065
:10099000F0B5CE46474680B591B004001422002140
:1009A0000BA803F03EFF1C22002104A803F039FF2E
:1009B000314B22689A4204D011B0C0BCB946B0464F
:1009C000F0BD0223049304A801F0DCF900284DD106
:1009D0002A4D6B6B012633436B636B6B3340019382
:1009E000019B6A6B02231A436A636A6B134002938A
:1009F000029B8023DB000B93122399460C930D96E8
:100A00000F3B98460E9306270F97A0200BA9C00511
:100A100001F0C0FA40230B934B460C930D964346CE
:100A20000E930F970BA9164801F0B4FAEA6B8021D8
:100A300089030A43EA63EB6B0B400393039B114862
:100A4000114B03600B234360053383600023C360B5
:100A50008022026143618361C361036200F05AFE38
:100A6000002806D1074BA3639C62A5E7FFF7CCFCE7
:100A7000AEE7FFF7C9FCF5E7005400400010024064
:100A800000040050240100200800024010B519485D
:100A9000194B0360E1235B02436000238360C36062
:100AA00003610C2242618361C3610362436283621A
:100AB00002F0C6F9002811D100210E4802F040FAD8
:100AC00000280ED100210B4802F060FA00280BD15B
:100AD000084802F015FA002809D110BDFFF794FC70
:100AE000EAE7FFF791FCEDE7FFF78EFCF0E7FFF791
:100AF0008BFCF2E7D401002000380140F0B58FB044
:100B000004001422002109A803F08BFE1C220021FE
:100B100002A803F086FE22681D4B9A4201D00FB056
:100B2000F0BD0123029302A801F02CF900282BD17B
:100B3000184B196C8020C001014319641A6C0240E3
:100B40000092009A5A6B01252A435A635B6B2B4033
:100B50000193019B022609960A9600240B940C949B
:100B600004230D93A027FF0509A9380001F012FA0C
:100B700080239B0009930A960B940C940D9509A968
:100B8000380001F007FACAE7FFF73EFCD0E7C0469D
:100B90000038014000100240FEE710B500F07AF97D
:100BA00003F006F9012800D110BD03F073FCFBE748
:100BB00010B501F081F910BD704710B5802080019B
:100BC00001F0CEFA10BD000010B5024800F0FAFDA9
:100BD00010BDC0462401002000B583B0144B196C31
:100BE000012211431964196C0A400092009ADA6BD1
:100BF000802149050A43DA63DB6B0B400193019BBB
:100C0000022000220321404201F0C2FA002200210A
:100C1000032001F0BDFA032001F0EAFA00220021CE
:100C2000042001F0B5FA042001F0E2FA03B000BD9F
:100C30000010024070B588B0174B5A6B0124224354
:100C40005A635A6B22400092009A5A6B22435A63AD
:100C50005A6B22400192019ADA6B802189020A4381
:100C6000DA63DB6B0B400293029B042303930225A0
:100C70000495069505940794A026F60503A930006F
:100C800001F088F9082303930495079403A9300021
:100C900001F080F908B070BD0010024070B588B056
:100CA0000400012832D800281DD11A4A516B0123B3
:100CB00019435163526B13400193019B6300164A21
:100CC0009E5A03960123049300230593033306934E
:100CD000A300124A985803A901F05CF9012C0CD02A
:100CE000002008B070BD0B4A516B042319435163B7
:100CF000526B13400293029BE0E7A400074BE058BD
:100D00000122310001F024FA0020EAE702204042EB
:100D1000E7E7C04600100240B0510008B451000897
:100D200010B586B004001C4A506B0423184350636E
:100D3000526B13400093009B80239B01019301237E
:100D4000039301330493002908D10023029301A9DE
:100D5000124801F01FF9002006B010BD104B02939D
:100D600001A90E4801F016F960000419A4000D480D
:100D700004190D49200001F075FA0C4A00212000E9
:100D800001F05EFA00220F21072001F001FA07208E
:100D900001F02EFADFE7C0460010024000080050C4
:100DA00000002110FC0200200D000006B30D000819
:100DB000704710B50020FFF7FBFF10BD10B50B4BBF
:100DC0001B6803600B6843600C2343614B8903611C
:100DD0004B6883600B89C3608B89836180231B020E
:100DE000C3610023436202F02BF810BD0000002015
:100DF00070B50D0000280DD19424444308482418F0
:100E00002000FFF717FF29002000FFF7D7FF002879
:100E100003D170BD02204042FBE704204042F8E7C6
:100E20006802002010B50400114B1978002901D187
:100E3000012010BDFA208000FFF770F901000D4B72
:100E40001868FFF76BF901F0DFF900280DD1032CCA
:100E500001D90120EDE7013000222100404201F0DC
:100E600097F9054B1C600020E3E70120E1E7C0464D
:100E7000040000200C0000200800002010B5032012
:100E8000FFF7D0FF041E02D00124200010BDFFF7A1
:100E9000A3FEFAE7034B1B78034A11685B18136043
:100EA0007047C0460400002008030020014B18686A
:100EB0007047C0460803002070B50400FFF7F6FF36
:100EC0000500631C02D0044B1B78E418FFF7EEFF0B
:100ED000401BA042FAD370BD0400002030B583B09F
:100EE000040000230193002800D105E1836D002B4D
:100EF00012D023689A68D2001BD49A687F491140A7
:100F0000802252050A439A607D4B18687D49FFF79D
:100F100005F94000019009E0FFF7B4FC0023E36508
:100F20005422A354E5E7019B013B0193019B002B55
:100F3000F9D123689A68D20000D59DE0A26D1021F6
:100F40000A43A265E26D0F390A43E26501209A68FF
:100F500004210D001540114200D00125A26DD206DA
:100F600000D5C2E0002D00D0BFE0A26D66490A4066
:100F70000631FF310A43A2659A68D20752D4227E15
:100F80009203A1680A43617EC9030A43A57E6903EF
:100F90000A43216B002901D0802149010A43E168FD
:100FA0000A432169002969DB802189030A432C2136
:100FB000615C49000A432021615C012961D0616ABA
:100FC000002905D0E0256D002940A56A29430A4380
:100FD000D9684E4D29400A43DA6063689B0F9B072E
:100FE000E26C1A433C21615C012959D021680B69EC
:100FF000474D2B4013430B616368C0221206934296
:1010000010D08022D20593420CD080221206934247
:1010100008D040490A68404D2A40F025AD032B40D6
:1010200013430B602268536907218B43616B0B43A9
:10103000536121684B6970229343A26B12011343E1
:101040004B612369002B35D12268916A103B0B4319
:10105000936223685A6907231340626B9A423BD01C
:10106000A36D12229343023A1343A365E36D0F3A33
:101070001343E36501203DE0002068E7490049088B
:1010800094E7002D03D1802149020A4397E7A16D1F
:1010900020252943A165E16D1F3D2943E1658EE7C8
:1010A000216C0B43616C0B43A16C0B431343012276
:1010B0001A439BE7802292039342CAD121688B6A2C
:1010C000E369013B9B001C221A4010235B429340C2
:1010D000226E13438B62BCE70023E365A36D0322FA
:1010E0009343023A1343A36504E0A36D1022134314
:1010F000A365012003B030BD0120FBE7E8FFFF6FCF
:101100000C000020400D0300FDFEFFFF0102DEFF8A
:1011100002FCFF1F08270140FFFFC3FFF8B50400D2
:101120000D004669082E04D00368DB68DB0719D47C
:101130000426FFF7BBFE070023681A68164217D182
:101140006B1CF9D0FFF7B2FEC01BA84201D8002DDE
:10115000F2D1A36D04221343A36554230022E25469
:10116000032029E0836D202213438365012023E0BF
:10117000A16D802292000A43A265D968C0221201A3
:10118000114213D1A27E002A10D11A6812070DD580
:101190009A68520711D45A680C218A435A60A36D89
:1011A0000B4A13400432FF321343A365207E00280C
:1011B0000CD123680C221A60F8BDA36D20221343C2
:1011C000A365E36D1F3A1343E365EFE70020F3E700
:1011D000FEFEFFFF0368186C70470000F0B583B097
:1011E00004000023019305695433C35C012B00D133
:1011F00022E154230122C25400688368033216009E
:101200001E401A4209D0A36D1C321343A36501206E
:1012100054230022E25403B0F0BD4B68022B00D1EE
:10122000D6E080221206954226D0844A954223D0E9
:101230001F221340103A9A40256E95432A000D68EC
:101240006F022FD1AD0E1F262E409E4016432666FC
:101250004D68AB080133E269934213D8826A1F23B9
:101260001D40103B1E00AE40B2430E68B60E334028
:10127000AB401343836205E0826A0B685B025B0A42
:1012800013438362206842690B681B029A438D688E
:101290002B406B4D2B40134343610B68002B5FDBEE
:1012A0000020B5E7EF07D0D4AE072FD46E072FD4B8
:1012B0002E072FD4EE062FD4AE062FD46E062FD4D1
:1012C0002E062FD4EE052FD4AE052FD46E052FD4C5
:1012D0002E052FD4EE042FD4AE042FD46E042FD4B9
:1012E0002E042FD4EE032FD4AE032FD46E032FD4AD
:1012F0002E032FD4EE022FD4AE022FD48027FF036B
:101300002E003E403D42A0D016269EE701269CE7D7
:1013100002269AE7032698E7042696E7052694E72F
:10132000062692E7072690E708268EE709268CE72F
:101330000A268AE70B2688E70C2686E70D2684E72F
:101340000E2682E70F2680E710267EE711267CE72F
:1013500012267AE7132678E7142676E7152674E72F
:10136000384A1168C02212040A403748834204D028
:10137000364883421FD000204AE70802F8D4802371
:101380001B041A432F490B68314803401A430A6073
:10139000304B18683049FEF7C1FE43001B189B0014
:1013A0000133019302E0019B013B0193019B002B60
:1013B000F9D100202CE74B023CD48023DB031A43F5
:1013C00020490B68224803401A430A6000201FE7A7
:1013D00080231B069D4202D0184B9D4205D1826A94
:1013E0000B685B025B0A9A4382620B68002B01DB8D
:1013F00000200DE7134A126813498B4204D01349A9
:101400008B420CD0002003E78023DB031A400D49F8
:101410000B680F4803401A430A600020F8E6802357
:101420001B041A4007490B68094803401A430A6025
:101430000020EDE60020EBE60220ECE60400008050
:1014400000FFFF7F08270140000200A4000400A85D
:10145000FFFF3FFF0C000020400D030070B50400AB
:1014600003689A68520720D59A68920705D49A684B
:101470000F490A4010210A439A60FFF717FD050043
:1014800023689B685B070ED5FFF710FD401B022801
:10149000F6D9A36D10221343A365E36D0F3A1343EE
:1014A000E365012002E0002000E0002070BDC0469E
:1014B000E8FFFF7F30B583B0040000230193036889
:1014C0009A68D2074DD49968274A114211D19A6877
:1014D00026490A4001210A439A60254B1B681B02DA
:1014E00017D5244B18682449FEF718FE01300190E7
:1014F0000CE0836D102213438365C36D0F3A1343D1
:10150000C36501202EE0019B013B0193019B002B51
:10151000F9D1637E012B01D1002023E0FFF7C6FC47
:10152000050004E0FFF7C2FC401B02280DD8236829
:101530001A68D20713D49A68D207F3D49A680B4971
:101540000A4001210A439A60ECE7A36D102213437D
:10155000A365E36D0F3A1343E365012002E0002029
:1015600000E0002003B030BD17000080E8FFFF7FDF
:10157000082701400C000020400D030010B50400B6
:1015800003689B685B0724D45423C35C012B22D0DF
:1015900054230122C254FFF78DFF002815D1A36DFB
:1015A0000E4A1A4080235B001343A3650023E365C2
:1015B00022681C2111605422A354226893680849B0
:1015C0000B4004210B43936004E054230022E254B7
:1015D00000E0022010BD0220FCE7C046FEF0FFFF45
:1015E000E8FFFF7F70B5040003689A6802210800D5
:1015F0001040114200D001209A68D20731D500284E
:1016000031D1996805220A40012A09D0A36D102220
:101610001343A365E36D0F3A1343E365012021E013
:101620009A6812490A4002210A439A6023680322F9
:101630001A60FFF73BFC050023689B68DB070ED5AB
:10164000FFF734FC401B0228F6D9A36D1022134388
:10165000A365E36D0F3A1343E365012002E0002028
:1016600000E0002070BD0020FCE7C046E8FFFF7FDF
:1016700010B504005423C35C012B17D0542301225E
:10168000C254FFF7EBFE002803D054230022E2549B
:1016900010BD2000FFF7A6FF0028F6D1A36D044A75
:1016A00013400432FF321343A365EEE70220EFE755
:1016B000FEFEFFFF10B50400FF2023681840083825
:1016C0001421FEF72BFD236C9B08064A94466344C5
:1016D0009B006364044BA3641C2318401B3B8340A2
:1016E000E36410BD0082001080080240FF234268BE
:1016F0001340064A9A1892000265054A4265013B6A
:1017000003221A4001239340836570473F820010F3
:101710004009024070B5041E4DD00568274BE818FB
:101720001421FEF7FBFC8000206425230222E254F2
:101730002B68234A13402B6021680A68A368E0687D
:1017400003432069034360690343A0690343E069DD
:101750000343206A034313430B602000FFF7AAFFF3
:101760008023DB01A2689A4218D0626CFF23616873
:101770000B401360A36CE26C5A606368013B032B5F
:101780000FD9002323656365A3650023E363252246
:101790000121A154013AA354002070BD00236360CD
:1017A000E3E72000FFF7A2FF236D00221A60636DBC
:1017B000A26D5A60E9E70120EFE7C046F8FFFDBFE0
:1017C0000F80FFFF70B5314B1968046825681C2332
:1017D000026C134004229A40114216D06A0714D5B5
:1017E00023689B0603D42368042293432360274C79
:1017F00063681C21026C114004228A401343636019
:10180000036B002B00D0984770BD02229A40114212
:101810001CD0AA071AD523689B0606D423680A227F
:10182000934323602523093AC254184C63681C2152
:10183000026C114002228A40134363602423002279
:10184000C254C36A002BDFD09847DDE708229A40D4
:101850001142D9D02B07D7D523680E22934323609A
:101860000A4C62681C21036C194001231D008D4045
:101870002A436260C3632522835423330022C25467
:10188000436B002BC0D09847BEE7C0460000024023
:1018900070B5041E00D139E10368DB072CD5A14BDC
:1018A0009A6838231340082B22D0436880225202C2
:1018B00093422ED0A022D202934231D0994B1A6883
:1018C00099490A401A601A6898490A401A60636880
:1018D000002B31D0FFF7EAFA0500924B1B689B03FF
:1018E0000AD4FFF7E3FA401B6428F6D903200EE17F
:1018F0004368002B00D10BE123689B0747D5894B38
:101900009B6838221A4261D1E368002B22D1012062
:10191000FDE0844A116880235B020B431360D6E725
:10192000804B19688022D2020A431A60196880220B
:1019300052020A431A60CAE7FFF7B8FA0500794B6A
:101940001B689B03D8D5FFF7B1FA401B6428F6D972
:101950000320DCE0734B5A6875490A40616909024B
:101960000A435A601A6873490A4021690A431A6097
:101970001B68DB0A07221A406F4BD3406F4A136083
:101980006F4B1868FFF74EFA002800D0C2E02368BA
:101990001B0757D5634B9A6838231340182B4ED03A
:1019A000A369002B77D05F4A136E01210B431366A6
:1019B000FFF77CFA05005B4B1B6E9B0742D4FFF7D9
:1019C00075FA401B0228F6D90320A0E0E368002B3B
:1019D00022D0544A136857490B4021690B431360C6
:1019E000116880235B000B431360FFF75FFA05006B
:1019F0004C4B1B685B0506D4FFF758FA401B0228C6
:101A0000F6D9032083E047494B68494A134062698D
:101A1000120213434B60BAE7424A136849490B402C
:101A20001360FFF743FA05003E4B1B685B05AED51C
:101A3000FFF73CFA401B0228F6D9032067E0A369B0
:101A4000002B69D023685B0768D5364B9A6838232A
:101A50001340202B32D0A368012B34D0052B38D073
:101A6000304BDA6D01218A43DA65DA6D03318A433E
:101A7000DA65A368002B38D0FFF718FA0400294B69
:101A8000DB6D9B072FD4FFF711FA001B2E4B9842FA
:101A9000F5D903203BE0234A136E01218B431366E3
:101AA000FFF704FA05001F4B1B6E9B07CAD5FFF713
:101AB000FDF9401B0228F6D9032028E0A368002B7B
:101AC0002ED0002023E0174AD36D01210B43D365AC
:101AD000CFE7144BDA6D04210A43DA65DA6D033976
:101AE0000A43DA65C5E7002011E0FFF7DFF90400DB
:101AF0000C4BDB6D9B0707D5FFF7D8F9001B124B8A
:101B00009842F5D9032002E0002000E0012070BDDA
:101B10000120FCE70120FAE70120F8E70020F6E7C2
:101B20000120F4E700100240FFFFFEFFFFFFFBFF74
:101B3000FF80FFFFFFC7FFFF006CDC020C000020EE
:101B400008000020FFFEFFFF88130000144B9B6875
:101B500038221A4207D1124B1A68D20A07231340BF
:101B60001048D84070470E4B9A6838231340082B12
:101B700010D00B4B9A6838231340202B0CD0084B05
:101B80009A6838231340182B01D00020EAE7FA2086
:101B9000C001E7E70348E5E780200002E2E7C0462E
:101BA00000100240006CDC0270B504000D0000283B
:101BB00000D1A4E0544B1A68072313408B4221D371
:101BC00023689A0710D55B0707D550498B68504AA0
:101BD0001A40B0231B0113438B604C4A93684D4954
:101BE0000B40E1680B4393602368DB074CD56368C7
:101BF000012B1ED0002B39D1444A126852051CD447
:101C0000012064E0404A136807218B432B43136093
:101C1000FFF74CF906003C4B1A6807231340AB4210
:101C2000CED0FFF743F9801B3B4A9042F3D9032003
:101C30004DE0364A1268920363D534498A6807201A
:101C4000824313438B60FFF731F906002F4B9B68EB
:101C500038221A406368DB009A4215D0FFF726F954
:101C6000801B2D4B9842F1D9032030E0032B05D087
:101C7000264AD26D9207E0D4012028E0234A126E52
:101C80009207DAD4012022E01F4B1A680723134081
:101C9000AB421DD823685B0706D51C4A93681F49D1
:101CA0000B4021690B439360FFF750FF174B9A6875
:101CB000120A0F2313409B00194A9A581F231340FE
:101CC000D840184B1860184B1868FFF7ABF870BD78
:101CD0000D4A136807218B432B431360FFF7E6F887
:101CE0000600094B1A6807231340AB42D2D0FFF716
:101CF000DDF8801B084B9842F3D90320E7E7012069
:101D0000E5E70120E3E7C046002002400010024062
:101D1000FF84FFFFFFF0FFFF88130000FF8FFFFF2E
:101D2000E45100080C0000200800002010B5FFF767
:101D30000DFF074B9A68120A0F2313409B00054AB8
:101D40009A581F231340D840034B186010BDC0465B
:101D500000100240E45100080C00002010B5FFF70D
:101D6000E5FF064B9A68120B072313409B00044AB9
:101D70009A581F231340D84010BDC046001002409F
:101D80002452000870B582B0040003685B064ED58B
:101D9000414BDB6BDB0035D43F4AD16B80204005E3
:101DA0000143D163D36B03400193019B01253A4B5F
:101DB000D96DC02292000B001340114210D0A269CD
:101DC0009A420DD0344AD36D34490B40D06D8021F6
:101DD00049020143D165D16D31480140D165D365D8
:101DE000DB0711D42C4AD36D2C490B40A1690B435E
:101DF000D3650020012D1BD1274AD36B29490B4005
:101E0000D36315E00025D2E7FFF750F80600224B18
:101E1000DB6D9B0707D4FFF749F8801B224B9842E4
:101E2000F5D9032000E000200028E3D1DAE7002004
:101E30002368DB0706D5184A536D03218B43A1683D
:101E40000B43536523689B0706D5134A536D174907
:101E50000B40E1680B43536523689B0606D50E4A89
:101E6000536D9B009B0861690B43536523685B07B7
:101E700006D5094A536D0E490B4021690B43536542
:101E800023681B0606D5044A1368E0218B4361686A
:101E90000B43136002B070BD00100240FFFCFFFF57
:101EA000FFFFFEFFFFFFFFEF88130000FFCFFFFFE4
:101EB000FF3FFFFF7047704710B52A4A11692A4B50
:101EC0000B4051692948806881435161284A10427A
:101ED00021D0264AD468002B26D1224B1B69DB0770
:101EE0000CD5204B01221A61204B9B68022B27D076
:101EF0001E4B00229A602000FFF7DCFF1B4B9B6803
:101F0000002B07D1174A53691A490B405361174BED
:101F100000221A7010BD0622024202D0134A146930
:101F2000D9E701246442D6E7104A51681943516049
:101F30000C490B61002393602000FFF7BCFFCCE746
:101F40000A4A5369013B5361002B03D1074B00221E
:101F50009A60D0E713001269501C186100F00CF869
:101F6000C9E7C04600200240FAC300000C0300206D
:101F700001000400FFFFFFFC044A536978218B43F2
:101F8000C0001843024B18435061704700200240C4
:101F900002000100F0B5D6464F464646C0B50023C4
:101FA0003BE0052500E00025A5402C003C43634DA7
:101FB0001832920054518022AC584A46D243250030
:101FC0004E46B5434E68F60302D54D462C432500D8
:101FD0005A4C8027E55184256459250015404E68E8
:101FE000B60302D54D462C432500544C8427E551B9
:101FF0002468250015404E68F60202D54D462C4354
:1020000025004E4C2560646822404D68AD0201D524
:102010004A462243494C626001330C682200DA4090
:1020200000D186E001229A4026001640B1461442B3
:10203000F2D04C68022C01D0122C18D1DD080835E2
:10204000AD002C58A44607271F40BF000F24A2460E
:102050002600BE40B04666464446A643B4460C69D8
:10206000564626403400BC40664634432C50046833
:10207000A4465D000324A2462700AF40B846FF43B4
:1020800066464446A643B4464C685646264034004D
:10209000AC406646344304604C68661E012E03D98A
:1020A000112C01D0122C12D184683C40A446CC687B
:1020B000AC40664634438460446894434A681209DD
:1020C00094460122664632409A40224342604A6862
:1020D000032A05D0C2683A408F68AF401743C760F3
:1020E0004A68D20098D59A0814001834A400134DF9
:1020F000675903251D40EC000F25A540AF43A025DF
:10210000ED05A84200D14EE70D4DA8420BD00D4D74
:10211000A8420AD00C4DA84209D00C4DA84200D1CB
:102120003FE7062540E701253EE702253CE703257A
:102130003AE7E0BCBA46B146A846F0BD00180240F6
:102140000004005000080050000C00500014005023
:10215000002A01D0816170478162FCE770477047B7
:1021600010B50400094BDB68184204D1074B1B690A
:10217000234205D110BD054BD860FFF7EFFFF5E70F
:10218000024B1C612000FFF7EAFFF3E70018024052
:1021900070B5002811DB8308134EC0339B009D5996
:1021A00003242040C000FF2214008440A54389017D
:1021B0000A4082402A439A5170BD0F230340083BD6
:1021C0009B0806339B00094A944663445C680322DB
:1021D0001040C000FC3215008540AC4389010A4024
:1021E000824022435A60E7E700E100E000ED00E0B2
:1021F000002805DB1F2318401E3B8340014A136063
:102200007047C04600E100E0013880235B0498423B
:102210000FD2094A50600948036A1B021B0AC021F9
:1022200009060B4303620023936007331360002009
:1022300070470120FCE7C04610E000E000ED00E040
:10224000012909D002290AD0002901D001207047B4
:10225000426082600800FAE742600020F7E782608F
:102260000020F4E7002802D0016000207047012020
:10227000FCE703689A69920701D500229A62036815
:102280009A69D20703D49A6901210A439A61704777
:1022900010B58905890D120411431943029B194396
:1022A00049004908046862685B0D8020C000034053
:1022B000024803439A431143616010BDFF63FF036B
:1022C000F0B5C64600B504000D00170001688B6923
:1022D000102216001E401A4200D175E01023CB6177
:1022E00000239846002623689869820631D4002E80
:1022F0002FD16B1CF7D0FEF7D9FDC01BA84201D827
:10230000002DF0D121684B688022D2011340422277
:10231000A25CD2B28869000403D5002B01D1202A27
:102320000ED123689B699B06DDD4FEF7BFFDC01B61
:102330001928F6D9202342461A4390460126D2E7AF
:102340004A688023DB0113434B60FEF7AFFD0700B3
:10235000E7E7002E01D12022DA6104264346334309
:102360001E00012522689369D90504D501210E4379
:10237000FF31D16101255A0506D50822164322688E
:102380008021C900D16101259B051FD502231E4371
:10239000236880229200DA6101252000FFF769FF9F
:1023A000226853680B490B405360636C1E4366649C
:1023B00041232022E25400232232A354023AA354A0
:1023C000280080BCB846F0BD0025CBE7002DF7D033
:1023D000E3E7C04600E800FE70B504000D001600FB
:1023E00023689B699B0720D4320029002000FFF757
:1023F00067FF00281BD16B1CF2D0FEF757FD801B36
:10240000A84201D8002DEBD123689B699B07E7D434
:10241000636C2022134363644123E254002322327D
:10242000A354023AA354012000E0002070BD012013
:10243000FCE7F0B5D6464F4680B583B007000D00E7
:10244000160099460A9B9A463B689C692C40641B7F
:1024500063425C410196B44228D152464946380055
:10246000FFF72EFF002827D14B460133ECD0FEF7B3
:102470001DFD5346C01A484502D84B46002BE3D1F8
:102480003B689B692B405B1B5A425341019A934224
:10249000DAD17B6C202213437B644123FA5400235E
:1024A0002232BB54023ABB54012000E0002003B0AA
:1024B000C0BCBA46B146F0BD0120F8E770B50400D3
:1024C0000D00160003E023689B699B0612D5236864
:1024D0009B699B061BD4320029002000FFF7F0FE09
:1024E000002816D1FEF7E2FC801BA842EBD8002D95
:1024F000EDD1E8E7636C2022134363644123E25487
:1025000000232232A354023AA354012000E0002009
:1025100070BD0120FCE7000010B5041E60D041230F
:10252000C35C002B48D041232422E2542268136864
:1025300001218B43136022682A4B61680B401361B1
:102540002268936828490B409360E368012B39D0D7
:10255000226884231B02A1680B439360E368022B6B
:1025600037D02268536821490B4053602268516874
:102570001F4B0B4353602268D3681B490B40D36049
:10258000236962691343A269120221681343CB6075
:102590002268E369216A0B431360226813680121F2
:1025A0000B4313600023636441221F31A154236352
:1025B0000132A354002010BD40330022C254FEF764
:1025C000E7F9B0E7226880231B02A1680B43936000
:1025D000C4E72268516880231B010B435360C5E7A1
:1025E0000120E8E7FFFFFFF0FF7FFFFFFFF7FFFF9E
:1025F00000800002F0B585B004000E000292039343
:102600000A9D4123C35C202B00D0AEE02033C35C85
:10261000012B00D1ACE040230122C254FEF746FC5E
:102620000700802100901923012209022000FFF7F2
:1026300000FF002800D09DE041232122E254013315
:10264000113AE25400236364029A6262039A62853B
:102650006363638D9BB2FF2B1ED9FF2323858023E9
:102660005B04228D002A1CD02268029909789162AD
:10267000626A01326262628D013A92B26285228D93
:10268000013A92B222850132D2B23E490091310024
:102690002000FFF7FDFD18E0638D238580239B0458
:1026A000DFE7D2B23749009131002000FFF7F0FD9B
:1026B0000BE0628D92B222858023D2B2002100917C
:1026C0009B0431002000FFF7E3FD638D9BB2002BDC
:1026D00034D03A0029002000FFF77EFE00284BD1BD
:1026E0002368626A12789A62636A01336362638D57
:1026F000013B9BB26385238D013B9BB22385628D99
:1027000092B2002AE1D0002BDFD100972B000022EB
:1027100080212000FFF78DFE00282FD1638D9BB212
:10272000FF2BC6D9FF2323857F3B002200925B0449
:10273000FF3231002000FFF7ABFDC6E73A00290069
:102740002000FFF7BBFE00281AD123682022DA619F
:1027500021684B680C4D2B404B604123E254002311
:102760002232A354023AA35400E0022005B0F0BD87
:102770000220FBE70120F9E70120F7E70120F5E758
:102780000120F3E70020008000E800FEF0B5D64607
:102790004F464646C0B584B00600894690461D00A7
:1027A000002303934133C35C202B00D0A8E00368CF
:1027B0009B691B0400D5A5E04023C35C012B00D11D
:1027C000A2E040230122C25401332332C254002329
:1027D00043649A46F368012B17D04B469A05920D35
:1027E0004A4B134332685360FEF760FB07003368BF
:1027F0009A6920241440621E9441E2B29C6910231D
:102800002340591E8B41DCB212E04B469A05920DD3
:102810003F4B1343E6E733689A6920241440621E55
:102820009441E2B29B6910241C40631E9C41E4B2B7
:10283000144318D16B1CEED0FEF738FBC01BA84226
:1028400001D8002DE7D120224123F254736C1343A9
:10285000736440230022F254012004B0E0BCBA4665
:10286000B146A846F0BD33689A69D20633D40097C2
:102870002B00002220213000FFF7DBFD002821D0B3
:10288000736C042B18D001239A46039B01330393E6
:10289000039B434502D25346012B2ED0039B434555
:1028A00098D320224123F254736C13437364402362
:1028B0000022F2540120D0E733682022DA6100239D
:1028C0007364E2E732682023D3614122B35420339A
:1028D0000022F254C1E71022DA6100972B00002297
:1028E00020213000FFF7A5FD002803D13368202206
:1028F000DA61CAE701239A46C7E700239A46CDE783
:102900000220AAE70220A8E70220A6E7002800028A
:1029100000200002F0B54123C35C202B20D12033DE
:10292000C35C012B1ED040240122025541252423E3
:1029300043550668336893433360066833680A4F2B
:102940003B403360066833681943316001680B68A7
:1029500013430B6020234355002303550020F0BD93
:102960000220FCE70220FAE7FFEFFFFFF0B541236A
:10297000C35C202B1ED12033C35C012B1CD0402410
:1029800001220255412524234355066833689343A9
:10299000336006683368094F3B40090219433160D0
:1029A00001680B6813430B60202343550023035534
:1029B0000020F0BD0220FCE70220FAE7FFF0FFFF55
:1029C00030B5EFF31084012282F3108801680B68A0
:1029D000124D2B400B6084F31088EFF3108182F3CB
:1029E0001088026893680E4C2340936081F310882E
:1029F000C36E012B06D08C232022C2500023C36655
:102A0000436730BDEFF3108183F3108802681368C9
:102A10001024A343136081F31088ECE7DFFEFFFF6F
:102A2000FEFFFFEF10B5040083680269134342699B
:102A30001343C269134301680A68634802401343A1
:102A40000B602268536861490B40E1680B43536097
:102A5000226AA3691A4321688B685D4803401343C7
:102A60008B602268D36A0F218B43616A0B43D36268
:102A70002368584A93421BD0574A934229D01023C7
:102A8000E0698022120290422DD0042B00D194E004
:102A900068D8002B00D18AE0022B61D14F4B1B6814
:102AA0005B090721194001314D48FDF737FB80E0F4
:102AB0004A4B5A6D03231340022B0CD005D8002B30
:102AC0000BD0012B0BD10333DAE7032B09D10533EC
:102AD000D6E70023D4E70223D2E70023D0E7102370
:102AE000CEE71023CCE7042B37D00FD8002B2ED005
:102AF000022B09D1394B1B685B09072119400131B1
:102B00003748FDF70BFB24E0012047E0082B1CD1E0
:102B1000636A5B00334A995AFDF700FB4000636823
:102B20005B08C0186168FDF7F9FA0200103A2E4BF5
:102B30009A4245D882B20F239A434008083B184076
:102B400010432368D860002028E0012026E0FFF72A
:102B500005F90028DCD1002020E0FEF7F7FFF8E7B8
:102B600001201BE0082B18D180200002636A5B0063
:102B70001C4A995AFDF7D2FA63685B08C01861686D
:102B8000FDF7CCFA0200103A174B9A421AD8236884
:102B90000004000CD860002000E0012001236A221C
:102BA000A352023AA35200236367A36710BDFFF745
:102BB000D5F80028DAD10020F0E7FEF7C7FFF8E7E4
:102BC0000120EBE70120E9E7F369FFCFFFCFFFFF2B
:102BD000FFF4FF11003801400044004000100240A3
:102BE000006CDC02BC510008EFFF0000836A1B0789
:102BF00006D5026853682C490B40816B0B43536028
:102C0000836ADB0706D50268536828490B40C16A0E
:102C10000B435360836A9B0706D5026853682449B7
:102C20000B40016B0B435360836A5B0706D5026858
:102C3000536820490B40416B0B435360836ADB06AA
:102C400006D5026893681C490B40C16B0B43936027
:102C5000836A9B0606D50268936818490B40016C8D
:102C60000B439360836A5B060BD502685368144973
:102C70000B40416C0B43536080235B03426C9A42D0
:102C80000AD0836A1B0606D5026853680D490B40BB
:102C9000C16C0B4353607047026853680A490B408C
:102CA000816C0B435360ECE7FF7FFFFFFFFFFDFFED
:102CB000FFFFFEFFFFFFFBFFFFEFFFFFFFDFFFFF59
:102CC000FFFFEFFFFFFFF7FFFFFF9FFFF8B5CE46C7
:102CD000474680B506000D0017009946089B9846A8
:102CE0003368DC692C40641B63425C41BC4233D1D5
:102CF00043460133F4D0FEF7D9F84B46C01A40459D
:102D00002FD84346002B2ED033681A685207E7D5D8
:102D1000802DE5D0402DE3D0DA69120710D4DA69AE
:102D20001205DDD5802212011A623000FFF748FE3D
:102D300090232022F2500C3B0022F25403200CE09E
:102D400008241C623000FFF73BFE9023F4500C3B3C
:102D50000022F254012000E00020C0BCB946B04679
:102D6000F8BD0320F9E70320F7E7000030B583B092
:102D7000040090230022C250FEF798F80500226854
:102D80001268130710D423681B685B072BD4202319
:102D90008822A3500432A3500023E3662367083A35
:102DA000A354002003B030BD8021234B00930300C7
:102DB000002289032000FFF789FF0028E3D0EFF30A
:102DC0001081012383F310882268136880208343D5
:102DD000136081F3108888232022E250043B0022F4
:102DE000E2547D38DEE78021134B00932B00002254
:102DF000C9032000FFF76AFF0028C8D0EFF3108056
:102E0000012282F3108821680B680C4D2B400B6067
:102E100080F31088EFF3108082F3108821688B68AC
:102E200093438B6080F310888C231F32E250083B61
:102E30000022E2540320B5E7FFFFFF01DFFEFFFFA2
:102E400010B5041E30D08823C358002B22D088230D
:102E50002422E2502268136801218B431360A36A85
:102E6000002B1DD12000FFF7DDFD012811D02268C5
:102E700053680E490B405360226893682A218B43A4
:102E800093602268136829390B4313602000FFF711
:102E90006DFF10BD84330022C254FDF72FFED6E72C
:102EA0002000FFF7A3FEDDE70120F2E7FFB7FFFFF9
:102EB000F8B50400436E002B05D101336A2283521A
:102EC000023A8352F8BD026895686D0E07231D40D3
:102ED0009268520F1340084FF85CC000074EF15C37
:102EE000FDF7A6F96A23E052785DC000715DFDF739
:102EF0009FF96823E052E5E7DC510008D45100084F
:102F000070B58423C35C012B15D08424012606559B
:102F1000882524234351026813681168B143116066
:102F2000064A13400022426601680B602023435189
:102F30000255002070BD0220FCE7C046FFFFFFDF06
:102F4000F8B504000A008423C35C012B1BD0842540
:102F50000120605588262423A35123681F6819681F
:102F60008143196020688368DB00D90811438160C0
:102F70002000FFF79DFF23681F602023A35100233B
:102F800063550020F8BD0220FCE70000F8B50400FE
:102F90000B008422825C012A1BD08425012060550D
:102FA00088262422A2512268176811688143116083
:102FB0002268916808480140194391602000FFF79A
:102FC00077FF23681F602023A3510023635500204F
:102FD000F8BD0220FCE7C046FFFFFFF1024B802254
:102FE00012059A607047C04600ED00E00300083308
:102FF0004360012252428260C36003610023036088
:10300000704700230361704730B50C68631C10D013
:10301000030008331A005B681D68A542FAD953689B
:103020004B6099608A6051600861036801330360F6
:1030300030BD0269F3E70369416882688A604168CC
:1030400051605A68824206D0002202611A68013A31
:103050001A601868704782685A60F5E710B5040076
:1030600001F0CEF9A36B002B04D1012401F0D4F9B7
:10307000200010BD0024F9E710B5030008001A6C09
:10308000002A0AD0D9688918D9609C68A14201D366
:103090001968D960D96801F0BBFB10BD70B5050097
:1030A00001F0AEF94523EC5C64B201E0013C64B28E
:1030B000002C0BDD6B6A002B08D02800243000F0B8
:1030C000BBFD0028F2D000F06DFEEFE74523FF22A4
:1030D000EA5401F0A1F901F093F94423EC5C64B2E5
:1030E00001E0013C64B2002C0BDD2B69002B08D001
:1030F0002800103000F0A0FD0028F2D000F052FEB1
:10310000EFE74423FF22EA5401F086F970BDF8B5D9
:1031100004000D0000280FD0C36B002B0AD0026CF6
:103120000026170C190C002F0AD188B2002805D1EF
:10313000002E16D072B6FEE772B6FEE7101C04E051
:1031400089B200290BD1391C181C92B29BB253438F
:1031500080B289B241431B0CCB181B0CE8D001266E
:10316000E6E701F04DF92268E36B206C010059435A
:103170005118A1600021A1636260013B4343D31851
:10318000E360FF234422A3540132A354002D0FD146
:103190002369002B03D101F03FF90120F8BD200085
:1031A000103000F049FD0028F5D001F01DF9F2E7DC
:1031B00020001030FFF71AFF20002430FFF716FF21
:1031C000E9E770B51D00049C002909D12460E06383
:1031D000216401212000FFF79AFF4C23E55470BDC4
:1031E0002260F4E770B584B01C0008AB1B78002C9B
:1031F0000ED0002810D0002A01D000290CD0002ABF
:1032000008D050250395039D502D07D072B6FEE7D8
:1032100072B6FEE70029F4D072B6FEE7039D46259C
:10322000012666550094FFF7CCFF200004B070BD66
:10323000F0B585B004000F00019200280AD00029E3
:103240000AD000F0B5FD061E0BD1019B002B42D029
:1032500072B6FEE772B6FEE7036C002BF1D072B6D1
:10326000FEE7002637E039002000FFF705FF013DAB
:10327000A5632369002B04D101F0CEF8012005B02D
:10328000F0BD2000103000F0D7FC0028F4D001F091
:10329000ABF8F1E701F0C0F80020F0E702A800F079
:1032A0003FFD013621E044230022E25428E045237B
:1032B0000022E25429E02000FFF7F0FE00F088FB36
:1032C00009E02000FFF7EAFE00F082FB2000FFF794
:1032D000C5FE002835D101F093F8A56B002DC2D1B1
:1032E000019B002BD6D0002ED8D001F095F800F02D
:1032F000AFFA01F085F84423E35C5BB20133D2D02E
:103300004523E35C5BB20133D1D001F085F801A91C
:1033100002A800F011FD0028D3D12000FFF79EFE87
:103320000028C8D020002430019900F04FFC200074
:10333000FFF7B4FE00F04CFB0028CCD101F054F8AC
:10334000C9E700209BE7000030B5002804D0002921
:103350000AD00025002309E072B6FEE70C4D2D19B6
:10336000002D01D02960686030BD0133072BF7D8EC
:10337000DC00074A121952688242EFD0002DF4D1C6
:10338000DA00034C1259002AEFD1DA00A518ECE755
:103390002403002070B504000D00160001F030F881
:1033A0004423E35C5BB201330DD04523E35C5BB2A5
:1033B00001330CD001F030F8A36B002B0BD02000B0
:1033C000FFF76CFE70BD44230022E254EDE7452375
:1033D0000022E254EEE7200024303200290000F001
:1033E00007FCECE7084B1B681B68002B04D1074B5C
:1033F000012252421A607047034B1B68DB681A684F
:10340000024B1A60F7E7C04668030020100800204E
:10341000F0B583B001900E0014001D000A9F9200C9
:10342000A521386B01F0FDF91D4BE3189B003A6BA9
:1034300094466344072293431C00002E0ED00022C2
:103440000F2A08D8B15CBB1834331970B35C002B59
:1034500001D00132F4E743230022FA54089B372BB2
:1034600001D972B6FEE7089BFB62FB64381DFFF7CB
:10347000C8FD38001830FFF7C4FD3F613823089AB3
:103480009B1ABB617F622A000199200000F09AFF1D
:103490003860099B002B00D01F6003B0F0BDC04610
:1034A000FFFFFF3F70B5002407E0A3001B19980041
:1034B0000E4BC018FFF79AFD0134372CF5D90C4D8F
:1034C0002800FFF793FD0B4C2000FFF78FFD0A4803
:1034D000FFF78CFD0948FFF789FD0948FFF786FDD6
:1034E000084B1D60084B1C6070BDC0467003002077
:1034F000E4070020F80700201C08002048080020EE
:1035000034080020680300206C03002010B504007C
:1035100000F076FF284A136801331360274B1B68BD
:10352000002B0CD0264B1B68002B0DD1234B1B68A6
:10353000DB6AE26A934207D8204B1C6004E01F4B11
:103540001C601368012B31D01E4A136801331360CD
:103550006364E26A1C4B1B689A4201D91A4B1A60D9
:103560001A4993009B189B00CB185B68A36098686E
:10357000E060221D42609A60E06A83001A1892009F
:10358000521862611A189200525801321B189B009F
:103590005A5000F041FF0A4B1B68002B05D0074B27
:1035A0001B68DA6AE36A9A4203D310BDFFF77AFF19
:1035B000CAE700F019FFF8E7D007002064030020F5
:1035C00030080020DC070020E00700207003002006
:1035D00010B504005923C35C002B05D0012B0AD081
:1035E000022B07D072B6FEE7006B01F069F82000ED
:1035F00001F066F810BD01F063F8FBE710B514E0C8
:1036000000F0FEFE0B4BDB68DC68201DFFF713FDAE
:10361000094A1368013B1360084A1368013B1360B1
:1036200000F0FAFE2000FFF7D3FF044B1B68002BCD
:10363000E6D110BD48080020D0070020D4070020A4
:1036400010B5FFF7DBFF034B1B68012BF9D900F026
:10365000CBFEF6E77003002070B504000D001D4B93
:103660001E681D4B18680430FFF7E5FC631C0DD085
:103670003419194B1B685C60A6421DD9174B18689A
:10368000154B19680431FFF7BFFC70BD002DEFD05A
:10369000134A5168104B1868816018688C68C460C0
:1036A0001868043060601868043088601B685A61CC
:1036B000136801331360E8E70A4B1868064B196872
:1036C0000431FFF7A1FC084B1B68A342DDD9064B70
:1036D0001C60DAE75C080020640300206C03002013
:1036E000340800206803002010080020F0B587B0DF
:1036F00004000D0016001F000D9B002B09D00E9B2F
:10370000002B08D05C230493049B5C2B05D072B67D
:10371000FEE772B6FEE772B6FEE7049B5C2200216C
:103720000E9801F07EF80E9B0D9A1A63592302221F
:103730000E99CA5400230393029105AB01930C9B8D
:1037400000933B00320029002000FFF761FE0E9835
:10375000FFF7DCFE059807B0F0BDF0B587B0049028
:10376000059116001F00900000F034FF041E23D0C6
:103770005C2000F02FFF051E1AD05C22002101F012
:1037800050F82C63002D1BD000235922AB54039317
:1037900002950D9B01930C9B00933B003200059911
:1037A0000498FFF735FE2800FFF7B0FE012005E082
:1037B000200000F085FFE5E70120404207B0F0BDA2
:1037C00001204042FAE7000010B588B000240594BB
:1037D000069407AA06A905A800F0AAFD059B029376
:1037E000069B019300940023079A12491248FFF7A1
:1037F0007DFF124B1860002809D000F077FC0128EB
:1038000007D0431C13D00E4B1B6808B010BD00201E
:10381000F5E772B60B4B012252421A600A4B023294
:103820001A600A4B00221A6000F060FEEBE772B6E5
:10383000FEE7C04644520008413600080C0800204C
:103840001000002010080020300800205C08002034
:10385000024A1368013313607047C046D80700203E
:10386000014B18687047C0465C080020F8B54D4B06
:103870001B68002B00D08FE04B4B1E6801361E608A
:10388000002E12D1494B1B681B68002B01D072B669
:10389000FEE7464A1168464B186810601960454AB1
:1038A000136801331360FFF79DFD434B1B68B34260
:1038B00011D90020414B1B68DA6A93009B189A00CB
:1038C0003F4BD358012B00D901203E4B1B68002BE6
:1038D00067D0012065E0002033E0374B01225242DF
:1038E0001A60E7E7344B1A60E4E7D96851603EE0BC
:1038F00000219962116801391160DA6A3249096858
:103900008A4201D930490A602D499400A418A200C6
:103910008A1852689A609468DC6065609560DC6A19
:10392000A2001719BD006D185D61BD006D5801350D
:10393000BC006550DA6A214B1B68DB6A9A4200D9E9
:1039400001201A4B1B681B68002BC6D0174B1B6845
:10395000DB68DB685A689642C4D35A699C68D968A8
:10396000A1609C684C601D1D5168A942BDD000211A
:1039700059611168013911609A6A002ABDD0DC6969
:10398000196AA160DC694C601900183154688C42D6
:10399000AED1196A5160ABE70C4A1368013313606A
:1039A0000020F8BDD80700205C0800206803002034
:1039B0006C0300201408002010080020640300207D
:1039C0007003002060080020E00700201808002095
:1039D00010B5474B1B68002B01D172B6FEE700F013
:1039E0000FFD434B1A68013A1A601B68002B7AD10D
:1039F000404B1B68002B07D1002475E0196A516009
:103A000015E0D968516021E000233B4A1268002A82
:103A10004AD0394BDB68DB689A6AD869196A8160D9
:103A2000D86948601900183150688842E6D00021F2
:103A300099621168013911605A699868D968816082
:103A4000986848601C1D5168A142DAD00021596174
:103A5000116801391160D96A284A1268914201D966
:103A6000264A116026488A0052189200821852682D
:103A70009A609168D9604C609460DC6AA200111968
:103A80008900091859611119890009580131121961
:103A9000920011501B4A1268D26AD96A9142B4D975
:103AA000194A01211160B0E7002B01D0FFF79AFC01
:103AB000164B1C68002C0AD1134B1C68002C13D029
:103AC00000F092FC01240FE0013C002C07D0FFF72E
:103AD000CDFE0028F8D00C4B01221A60F4E70B4B06
:103AE00000221A60E8E7002400F096FC200010BDD8
:103AF000D8070020D00700201C080020E007002085
:103B000070030020640300206008002018080020D3
:103B100010B5041E0FD0094B1B68002B01D072B6E4
:103B2000FEE7FFF795FE00212000FFF795FDFFF768
:103B30004FFF002801D100F057FC10BDD80700202E
:103B400030B51D4B1B68002B03D01C4B01221A60A3
:103B500030BD1A4B00221A60194B1B689A00D2180C
:103B60009100184A8A58002A05D1002B01D0013B48
:103B7000F4E772B6FEE7134D9900CA1890002818B2
:103B8000426854684460C9188A0008325219944245
:103B90000BD09A00D21891000A4A52185268D16884
:103BA000094A1160064A1360D2E79900C9188800D3
:103BB0002A18D1685160ECE7D8070020600800207F
:103BC000E0070020700300206403002010B50C0003
:103BD000002809D0054B19681831FFF715FA0121A3
:103BE0002000FFF739FD10BD72B6FEE76403002028
:103BF00070B5030008001100002B18D05C680D4A56
:103C00001568EC611568A6682E6215681835756030
:103C100015681835A560126893621A6801321A6037
:103C2000002901D001204042FFF716FD70BD72B699
:103C3000FEE7C0466403002010B5C368DB68002BB4
:103C40004CD09A6AD869196A8160D86948601800AE
:103C500018305168814243D00021996211680139BE
:103C60001160294A1268002A40D15A699868D968B7
:103C70008160986848601C1D5168A14233D00021C2
:103C80005961116801391160D96A204A126891425C
:103C900001D91E4A11601E488A00521892008218EB
:103CA00052689A609168D9604C609460DC6AA200A6
:103CB0001119890009185961111989000958013130
:103CC000121992001150DA6A124B1B68DB6A9A4291
:103CD00018D9114B01221A60012010BD72B6FEE7FF
:103CE000196A5160B8E7D9685160C8E70B4A516852
:103CF000D9618C681C62606088609A6211680131C9
:103D00001160E0E70020E8E7D8070020E007002086
:103D10007003002064030020600800201C080020BD
:103D2000034B1B680360034B1B6843607047C0462E
:103D3000140800205C080020F8B504000D000028DD
:103D400015D0002915D000F05BFB144B196863688F
:103D5000C81A2A68561C1CD0114E36682768B7420C
:103D600009D08B4207D800232B60012412E072B6E1
:103D7000FEE772B6FEE7824203D800232B600124DF
:103D800008E05B1A9B182B602000FFF7C9FF002496
:103D900000E0002400F040FB2000F8BD5C0800209B
:103DA00014080020014B01221A60704760080020AF
:103DB000064B1B68002B07D0054B1B68002B01D05E
:103DC000002002E0022000E00120704730080020BF
:103DD000D8070020074B1A681368002B06D101335F
:103DE0000360002B04D1D368186870470023F7E7FD
:103DF0000020FAE76408002010B54160006191429C
:103E00000CD8D21A83699A4201D3012010BD011D3A
:103E1000094B1868FFF7F8F80020F7E79A4201D23B
:103E2000994206D2011D054B1868FFF7EDF80020F6
:103E3000ECE70120EAE7C04668080020640800209B
:103E400070B504000D00160005E0A3699C466544AA
:103E50002000236A9847A36959192B0032002000DB
:103E6000FFF7CAFF0028F0D170BD000070B5050053
:103E70000E000C4B1B68DB68DC68201DFFF7DBF8CD
:103E80002823E35C5A0707D4012293432732A35423
:103E9000236A2000984770BD320029002000FFF7F8
:103EA000CFFFF5E76408002010B505E0DB6818686F
:103EB00001214942FFF7DAFF054B1B681A68002A07
:103EC000F4D1044A024910680860136010BDC0466E
:103ED000640800206808002070B50500FFF7C0FCEA
:103EE0000400074B1B68834205D800232B60044B5A
:103EF0001C60200070BDFFF7D7FF01232B60F6E7A1
:103F00003409002070B582B004000D00FFF7A0FC5A
:103F100001A8FFF7E1FF0600019B002B23D1002D34
:103F200001D1A04213D2002D05D0104A12681268A8
:103F3000002A13D10125A11B0D4B18682A00FFF799
:103F400029FAFFF745FD00280AD002B070BDFFF73F
:103F50003FFD31002000FFF789FFF6E71D00EAE78B
:103F600000F042FAF1E7FFF733FDEEE768080020C2
:103F70008809002030B587B002E0029B002B0FDAE1
:103F8000364B1868002202A9FFF752F9002863D0C7
:103F9000029B002BF1DA039B059904989847ECE704
:103FA000049C6369002B02D0201DFFF744F801A890
:103FB000FFF792FF0500029B092BE1D89B00284ADE
:103FC000D3589F462822A35C01210B43A354039995
:103FD000A3699C466144039B02002000FFF70CFF8D
:103FE0000028CDD02823E35C5A0707D4012293434D
:103FF0002732A354236A20009847C1E70399A36995
:104000009C4661442A002000FFF71AFFF2E72822AD
:10401000A35C01218B43A354B2E72822A35C0121B6
:104020000B43A3540399A161002906D0091803008A
:1040300002002000FFF7E0FEA2E772B6FEE72823A9
:10404000E35C9A0704D5012293432732A35497E7F0
:10405000200000F035FB93E707B030BD8809002051
:104060004C52000800B583B001A8FFF7B3FE0199D8
:10407000FFF748FFFFF77EFFF6E7000030B583B09B
:1040800000F0BEF9114B1B68002B03D000F0C4F9FF
:1040900003B030BD0E4D2800FEF7A8FF0D4C2000E8
:1040A000FEF7A4FF0C4B1D600C4B1C60002300931B
:1040B0000B4B0C4A10210A20FFF794F8034B1860B1
:1040C0000028E3D00849FFF73FF9DFE7880900201F
:1040D0000C09002020090020640800206808002046
:1040E000380900206C0800207452000800B589B01F
:1040F000FFF7C4FF104B1B68002B1AD00023059359
:10410000069307AA06A905A800F01EF9059B0293CD
:10411000069B0193022300930023079A074908484E
:10412000FFF7E4FA074B1860002802D0012009B01D
:1041300000BD72B6FEE7C046880900207C52000828
:10414000654000088C09002010B5EFF30584002CB1
:104150000DD00124002C14D1FFF72AFE012813D121
:104160000C4B1868002812D101221A6010BDFFF70D
:104170001FFE0128EED0EFF31084002CEAD00124BA
:10418000E8E706204042F1E701204042EEE7012047
:104190004042EBE7EC0B002010B5EFF30584002C58
:1041A00016D00124002C1DD1FFF702FE01281CD1DE
:1041B000114B1B68012B1BD1104AD3691B021B0A30
:1041C000D3610D4B02221A60FFF7FEFA002010BDEA
:1041D000FFF7EEFD0128E5D0EFF31084002CE1D0CD
:1041E0000124DFE706204042F1E701204042EEE7EC
:1041F00001204042EBE7C046EC0B002000ED00E060
:10420000F0B587B006000F00140000230593EFF30C
:104210000585002D26D00125002D41D1002E3FD04F
:10422000002C34D02168A369002B00D118335A1E0A
:10423000372A59D86268D20758D46569002D1BD037
:10424000AA089446A068002807D0E2685B2A04D92F
:104250002269002A01D0002D25D100280FD001208D
:10426000404219E0FFF7A4FD0128D5D0EFF31085F7
:10427000002DD1D00125CFE780229446E2E7E26805
:10428000002A12D12269002A12D0013804E021004C
:10429000002018238022944601280BD0002815D036
:1042A000059807B0F0BD0120F6E701204042F3E792
:1042B0000020F1E72069A2680292019000933B0080
:1042C00062463000FFF712FA0590E9E7624692B2C3
:1042D00005A8019000933B003000FFF73EFA01284B
:1042E000DED000230593DBE70020DAE70020D8E7E3
:1042F00070B50400EFF30585002D06D00125002DD3
:1043000012D1002C0BD1002070BDFFF751FD012808
:10431000F5D0EFF31085002DF1D00125EFE7200057
:10432000FFF7F6FB0020EFE706204042ECE7000035
:10433000034B0360034B0B60802313607047C04640
:10434000900B002090090020034B0360034B0B608F
:10435000802313607047C046F00D0020F00B002052
:1043600082B000230193064B1B68013301D072B663
:10437000FEE772B6019B002BFCD002B07047C0462E
:1043800014000020000000000000000000000000F9
:104390000B4A13681868203080F30988022080F3E4
:1043A0001488BFF36F8F3FBCAE4608BC04BC62B636
:1043B0001847C046C046C046C046C046C046C04674
:1043C0006403002010B5031F802464041C60043BB8
:1043D0001960043B02491960143B1A60403810BD53
:1043E0006143000870470000044B802252051A60A8
:1043F000BFF34F8FBFF36F8F7047C04604ED00E0EF
:1044000072B6044A136801331360BFF34F8FBFF3D2
:104410006F8F704714000020064B1B68002B01D1E2
:1044200072B6FEE7013B034A1360002B00D162B66F
:104430007047C04614000020EFF3108072B670473A
:1044400080F31088704700000000000000000000AA
:10445000EFF309800E4B1A6820381060F0C0444614
:104460004D4656465F46F0C008B572B6FFF768FB8A
:1044700062B60CBC116808681030F0C8A046A946A6
:10448000B246BB4680F309882038F0C81847C046BA
:104490006403002010B5FFF7CFFF0400FFF7E6F933
:1044A000002803D0034B802252051A602000FFF73A
:1044B000C7FF10BD04ED00E010B5084C00232360D9
:1044C000074A1360074B1868FA218900FBF726FE9C
:1044D0000138054B18600723236010BD10E000E091
:1044E00018E000E00C00002014E000E010B50C4BD8
:1044F0001968FF2212040A431A601968FF22120683
:104500000A431A60FFF7D8FF064B00221A60FFF734
:104510003FFFFFF715FBFFF723FF002010BDC0464C
:1045200020ED00E014000020104A53071BD0D11DDD
:104530000723994380235B015B1A9B180A000C48F0
:10454000026000214160D318083B072083430948DB
:10455000036059601960991A51601360064B196025
:10456000064B1960704780235B01E8E7500E00207E
:10457000601E00204C0E0020541E0020501E002003
:1045800010B5124B1A001B688342FBD351685418B4
:10459000844208D041684418A34209D00360904285
:1045A00000D0106010BD4068091851601000F1E79C
:1045B000074C2468A34206D05B68C91841601368A1
:1045C0001B680360EBE70460E9E7C046601E00205B
:1045D0004C0E002070B50500FFF73AF9334B1B680D
:1045E000002B11D0002D13D02B0009330FD8083524
:1045F00007231A002A402B420AD001339B1ADA43C0
:10460000AA420FD3ED1803E0FFF78EFFEAE700257B
:10461000002D3CDB3DD0264B1B68AB4240D3254AE6
:10462000146803E00025F3E722001C006368AB4236
:1046300002D22368002BF7D11C4B1B68A34231D058
:10464000166808362368136063685B1B102B08D953
:104650006019420701D072B6FEE743606560FFF75C
:104660008FFF626812490B689B1A0B601249096838
:104670008B4201D210490B6080231B0613436360F9
:10468000002323600D4A13680133136002E0002603
:1046900000E00026FFF79CF9730705D072B6FEE72D
:1046A0000026F7E70026F5E7300070BD4C0E00202D
:1046B000501E0020601E0020541E0020581E0020A6
:1046C00070B500280FD00500083D6B68002B01DB9A
:1046D00072B6FEE70200083A1268002A01D072B6EC
:1046E000FEE7002B00DB70BD083804005B005B08B0
:1046F0004360FFF7ADF86368074A11688C4663446E
:1047000013602800FFF73CFF044A1368013313606D
:10471000FFF75EF9E7E7C046501E00205C1E002050
:1047200010B503000C4A0D49521A0D4909680029B9
:1047300007D00B490868C318934206D8084A13608B
:1047400010BD074907480860F3E700F037F80C236D
:10475000036001204042F3E7003000200004000025
:10476000681E0020801E00200D488546FEF736FC9E
:10477000002103E00B4B5B58435004310A480B4BBC
:1047800042189A42F6D30A4A02E000231360043228
:10479000084B9A42F9D300F017F8FBF769FEFEE7E1
:1047A00000300020C0520008000000207C000020E3
:1047B0007C0000207C1E0020FEE70000014B1868F2
:1047C0007047C0461800002070B500260C4D0D4CF7
:1047D000641BA410A64209D1002600F08BFC0A4DF0
:1047E0000A4C641BA410A64205D170BDB300EB585F
:1047F00098470136EEE7B300EB5898470136F2E7E9
:10480000B8520008B8520008B8520008BC5200085C
:10481000002310B59A4200D110BDCC5CC4540133C2
:10482000F8E703008218934200D1704719700133F2
:10483000F9E700000EB400B50B499CB01DAB029027
:104840000690079104910948094904CB0591006835
:1048500002A9019300F070F80023029A13701CB0B3
:1048600008BC03B01847C046FFFFFF7F18000020B8
:104870000802FFFFF0B58E6885B007000C000392B8
:1048800001939E423CD890238A89DB001A4234D09F
:104890000969236860695B1A029303234343DD0FB0
:1048A000ED18019B029801331B186D10AB4200D923
:1048B0001D00530532D52900380000F049FB061EC3
:1048C00009D10C233B6040230120A28940421343BD
:1048D000A38105B0F0BD029A2169FFF799FFA38972
:1048E000144A1A4080231343A381029B2661F618C1
:1048F00026606561019EED1AA560019B9E4200D96C
:10490000019E32000399206800F0A3FAA3680020FA
:104910009B1BA36023689E192660DAE72A003800F3
:1049200000F08CFB061EE0D13800216900F0A4FAEB
:10493000C7E7C0467FFBFFFFF0B5A1B003901D00A5
:104940008B890F0016001B0611D50B69002B0ED1A9
:10495000402100F0FDFA38603861002805D10C23B1
:10496000039A0138136021B0F0BD40237B6100231E
:1049700008AC6361203363761033A3760795350066
:104980002B78002B01D0252B47D1AB1B0593B542CB
:104990000CD0320039000398FFF76CFF431C00D1A4
:1049A000AEE06269059B9446634463612B78002BFB
:1049B00000D1A5E0012200235242626004A95432D2
:1049C00052186E1C2360E360A3601370A365052278
:1049D0003178544800F032FA751C00281FD1226843
:1049E000D30604D5532304A95B182021197013079B
:1049F00004D5532304A95B182B21197033782A2B73
:104A000016D0350000210A20E3682A786E1C303A5F
:104A1000092A4ED9002911D117E00135B0E7414BE1
:104A20002268C01A0123834013432E002360CEE77F
:104A3000079B191D1B680791002B01DB0B9304E0FA
:104A40005B42E3600223134323602B782E2B0AD1B1
:104A50006B782A2B35D1079B02351A1D1B680792EC
:104A6000002B2BDB0993304E03223000297800F015
:104A7000E5F9002806D04023801B834022680135D9
:104A8000134323602978062228486E1C217600F003
:104A9000D5F900283CD0264B002B25D10722079BB7
:104AA00007339343083307936369049A9B18636140
:104AB00065E74343350001219B18A6E701235B42CC
:104AC000D0E700230A201A000135636029786E1CA4
:104AD0003039092903D9002BC5D00992C3E74243D5
:104AE000350001235218F1E707AB00933A0021008B
:104AF000104B039800E000BF0490049B0133D3D116
:104B0000BB890D985B0600D42DE7012040422AE7BF
:104B100007AB00933A002100064B039800F07CF8A5
:104B2000EAE7C046845200088A5200088E52000804
:104B30000000000075480008F7B5150001938A6869
:104B40000B690C000090934200DA130022002B60E6
:104B500043321278002A01D001332B6023689B0670
:104B600002D52B6802332B602268062317001F40F2
:104B70001A4227D0230043331B785A1E93412268E0
:104B8000920630D4220001990098089E4332B04723
:104B9000431C25D0062320682A68E16800250340CD
:104BA000042B03D18D1AEB43DB171D40A368226948
:104BB000934201DD9B1AED180027BD4220D1002051
:104BC00010E00137E3682A689B1ABB42D2DD22005D
:104BD000012301990098089E1932B047431CF0D177
:104BE00001204042FEBD3020E11843310870210011
:104BF0005A1C45310978A218433202331170C1E7BB
:104C00002200012301990098089E1A32B047431CE4
:104C1000E6D00137D1E70000F0B58BB006920A006C
:104C200043320793059004920A7E0C00109B782A69
:104C300007D8622A09D8002A00D1C1E0582A00D139
:104C40008CE026004236327022E0100063381528CE
:104C5000F7D8FBF759FA16001F00F6FFF6FFF6FF2C
:104C6000F6FF1F00F6FFF6FFF6FFF6FFA80036007E
:104C70009A00F6FFF6FFB900F6FF3600F6FFF6FFE2
:104C80009E0026001A684236111D196013683370A1
:104C90000123A7E0086819680A1D05060BD50D68F1
:104CA0001A60002D03DA2D23049A6D421370614BB4
:104CB0000A2703931BE00D681A604106F1D52DB257
:104CC000EFE70D681968081D18602E0601D50D68FC
:104CD00003E06D06FBD50D68ADB2564B0827039374
:104CE0006F2A00D002372300002243331A70636812
:104CF000A360002B03DB0422216891432160002D77
:104D000002D1049E002B0CD0049E28003900FBF732
:104D10008BFA039B013E5B5C33702B0005009F42C6
:104D2000F3D9082F09D12368DB0706D56368226908
:104D3000934202DC3023013E3370049B9B1B2361B2
:104D4000079B210000930598069B09AAFFF7F4FE34
:104D5000431C4CD1012040420BB0F0BD45310A70DC
:104D6000344A03921A68216820CA1A60080616D5C8
:104D7000CB0702D52023194321601027002DB2D183
:104D8000202322689A432260ADE7202209680A4363
:104D900022602200782145321170274AE1E7480657
:104DA000E6D5ADB2E4E71A680D68101D49691860D0
:104DB00013682E0601D5196002E06D06FBD5198037
:104DC0000023049E2361BBE71A68111D1960166851
:104DD00000213000626800F031F8002801D0801B0B
:104DE0006060636823610023049A1370A8E7236955
:104DF000320006990598079DA847431CAAD023684E
:104E00009B0715D4099BE0689842A5DA1800A3E730
:104E10002200012306990598079E1932B047431CCA
:104E200098D00135E368099A9B1AAB42F0DCE9E7B8
:104E30000025F7E795520008A6520008C9B282186B
:104E4000904201D10020704703788B42FBD00130A3
:104E5000F6E710B5884202D98B18984203D3002395
:104E600007E08B5C8354013AFBD210BDCC5CC45488
:104E700001339A42FAD1F8E770B50500002910D045
:104E80000C1F2368002B00DAE418280000F018F942
:104E90001D4A1368002B05D163601460280000F0E0
:104EA00017F970BDA34208D9216860188342F3D175
:104EB00018685B6841182160EEE71A005B68002BF8
:104EC00001D0A342F9D911685018A0420BD1206833
:104ED0000918501811608342E0D118685B684118C6
:104EE00011605360DAE7A04202D90C232B60D5E7AA
:104EF00021686018834203D118685B6841182160FB
:104F000063605460CAE7C0466C1E002070B50F4E47
:104F10000D0031680400002902D100F0BFF83060B4
:104F20002900200000F0BAF8431C0AD00323C51C56
:104F30009D43A84207D0291A200000F0AFF8431C77
:104F400001D101256D42280070BDC046701E0020B1
:104F5000F7B50322CB1C9343083306001F000C2B2C
:104F600032D20C27B94231D8300000F0A9F8324DC6
:104F70002B681C00002C2ED139003000FFF7C6FF33
:104F80000400431C1ED12C682500002D4AD1236843
:104F90002900E3183000019300F080F8019B834260
:104FA00043D123680337FF1A03239F4308370C2F8D
:104FB00000D20C2739003000FFF7A8FF431C34D083
:104FC0002368DF19276013E0002BCBDA0C230025C0
:104FD00033602800FEBD2268D11B20D40B2917D9CD
:104FE000E2192760A34211D12A60636811605360FF
:104FF0003000250000F06CF807220B35231D954387
:10500000EA1A9D42E5D05B1BA350E2E75A60ECE749
:105010006268A34201D12A60EAE75A60E8E7230008
:105020006468A7E72C006D68AFE70C23300033609D
:1050300000F04EF8CDE7C0466C1E0020F7B5070023
:105040000E001400002905D11100FFF781FF0500B3
:105050002800FEBD002A03D1FFF70EFF2500F7E769
:1050600000F03EF80190844203D835004308A34283
:10507000EED321003800FFF76BFF051EE8D0019B3F
:1050800022009C4200D91A0031002800FFF7C0FB23
:1050900031003800FFF7F0FEDAE70000002370B5BA
:1050A000064D040008002B60FFF73AFB431C03D1B8
:1050B0002B68002B00D0236070BDC046741E0020FA
:1050C00010B5024800F014F810BDC046781E00204C
:1050D00010B5024800F00DF810BDC046781E002043
:1050E0000B1F1B68181F002B01DA0B58C0187047E4
:1050F00070477047F8B5C046F8BC08BC9E4670477C
:0C510000F8B5C046F8BC08BC9E467047DD
:10510C00256400004461726B000000004C69676804
:10511C00740000006D795461736B30330000000033
:10512C006D795461736B3032000000006465666108
:10513C00756C745461736B003851000800000000EA
:10514C000000000000000000000000000002000051
:10515C001800000000000000000000002C510008A6
:10516C000000000000000000000000000000000033
:10517C000002000008000000000000000000000019
:10518C00205100080000000000000000000000009A
:10519C0000000000000200000800000000000000F9
:1051AC000000000020000002000000500008005029
:1051BC00010002000400060008000A000C001000A8
:1051CC0020004000800000010804020408010101D5
:1051DC0001010103070100000000000000000000B5
:1051EC0000000000000000000000000000000000B3
:1051FC0000000000000000000100000002000000A0
:10520C00030000000400000006000000070000007E
:10521C000800000009000000000000000000000071
:10522C00000000000000000001000000020000006F
:10523C00030000000400000049444C45000000003D
:10524C00803F0008C43F0008C43F00080E4000081F
:10525C001A4000083E400008C43F0008C43F000844
:10526C000E4000081A400008546D725100000000F6
:10527C00546D722053766300232D302B2000686C04
:10528C004C0065666745464700303132333435365D
:10529C003738394142434445460030313233343596
:0C52AC00363738396162636465660000C3
:0452B800E900000801
:0452BC00C100000825
:1052C000004400400100000004000000001BB70083
:1052D00037000000AAAAAAAA1C00002000000000B3
:1052E00000000000000000000000000000000000BE
:1052F00000000000000000000000000000000000AE
:10530000000000000000000000000000000000009D
:10531000000000000000000000000000000000008D
:10532000000000000000000000000000000000007D
:0C53300000000000000000000000000071
:04000005080047693F
:00000001FF
